:100000005555AAAA90120000000000000000000050
:10001000668700000000000000000000C4E0F29EBF
:100020000001100005080000890200009F02000086
:10003000B5020000CB020000E10200000000000059
:10004000000000000000000000000000C1280000C7
:10005000C528000000000000F7020000C7280000CB
:10006000C9280000B526000075290000ED26000013
:10007000E3280000172900001B290000292900009F
:100080003B2900003D2900003F2900005D290000B8
:100090005F29000077290000000000000000000038
:1000A000792900007B29000000000000000000000A
:1000B000000000007D2900007F29000001270000CA
:1000C000812900008F29000009030000A7290000F2
:1000D000A92900000000000000000000000000004E
:1000E0009012000000F002F800F05AF80AA090E820
:1000F000000C82448344AAF10107DA4501D100F0E3
:100100004FF8AFF2090EBAE80F0013F0010F18BF55
:10011000FB1A43F0010318470036010020360100A6
:100120000A444FF0000C10F8013B13F0070408BF1D
:1001300010F8014B1D1108BF10F8015B641E05D0BB
:1001400010F8016B641E01F8016BF9D113F0080F70
:100150001EBF10F8014BAD1C0C1B09D16D1E58BF02
:1001600001F801CBFAD505E014F8016B01F8016B39
:100170006D1EF9D59142D6D37047000000230024AC
:1001800000250026103A28BF78C1FBD8520728BFA7
:1001900030C148BF0B6070471FB51FBD10B510BD03
:1001A000DFF80CD0FFF7F8FF02F032FD13F05EF835
:1001B0000001100003B4FFF7F1FF03BC13F05EF879
:1001C0000A484FF0FF0101704FF0000080F31188E2
:1001D0004FF0000080F3098805484FF002010170DC
:1001E00062B604484FF080510160704722ED00E094
:1001F0000001100004ED00E002484FF08051016062
:100200007047000004ED00E04FF0200080F31188FB
:10021000EFF3098098B112480068124909688842D2
:1002200017D0EFF309800E49096820E9F00F8860C4
:1002300000B50B48006800F0F2F85DF804EB0848E0
:1002400008490A68026000688168B1E8F00F81F32C
:1002500009884EF0040E4FF0000080F311887047BB
:100260000401100008011000EFF311804FF020018D
:1002700081F31188704700004FF0000080F311886F
:100280007047000062B6704772B6704740BA704758
:10029000C0BA7047401E0028FCDC704700BE7047A3
:1002A00040BA7047C0BA70471EF0040F0CBFEFF39E
:1002B0000880EFF309804FF0010102F06CBA1EF0E4
:1002C000040F0CBFEFF30880EFF309804FF0020139
:1002D00002F061BA1EF0040F0CBFEFF30880EFF3D9
:1002E00009804FF0030102F056BA1EF0040F0CBF54
:1002F000EFF30880EFF309804FF0040102F04BBAEE
:100300001EF0040F0CBFEFF30880EFF309804FF0ED
:10031000050102F040BA4FF0000000B503F0D9F932
:100320005DF804EBFFF770BF1EF0040F0CBFEFF396
:100330000880EFF309804FF0000102F02CBA0000B2
:10034000194910B5012008701849002008601849A3
:100350000860184908601849086000F0B9F900F011
:100360004BF900F063F8002010BD10B5114800F003
:100370002AF90F4908600D490968884207D00A48E0
:100380000078022803D1BDE81040FFF735BF10BD4B
:1003900010B5FFF7EAFF044902200870FFF710FFCD
:1003A0004FF0FF3010BD00000001100004011000EC
:1003B000080110000C0110001001100070B50D466E
:1003C0000446C1698068CC2212F053FEE169A0683E
:1003D000084440384FF08071C163216A8163002175
:1003E00041630163C1628162C0E908514FF00B3182
:1003F000C1614FF00A3181614FF0093141614FF025
:10040000083101614FF00731C1604FF00631816062
:100410004FF0053141604FF00431016070BD8269D9
:100420008168914201D802F0AABC704710B54FF420
:10043000B4714F4812F047FE002010BD70B505465C
:1004400000EBC5014A4800EB8104FFF70DFF0646AB
:10045000207828B13046FFF70FFF6FF0010070BD24
:100460000320207000206560206204F11C0000F071
:1004700083F83046FFF700FF002070BD2DE9F04102
:100480000F463B49002500EBC00001EB80042E46DF
:10049000FFF7EAFE8046206A3843206204F11C0020
:1004A000074600F090F80CE0216A026C114203D07C
:1004B00000F066F9012600E06D1C2946384600F080
:1004C00078F80028F0D1012E01D1FFF74EFF404609
:1004D000FFF7D2FE0020BDE8F08170B50D4624493B
:1004E00000EBC00001EB8004FFF7BEFE216AA943C8
:1004F0002162FFF7C1FE002070BD70B50C461C499B
:1005000000EBC00001EB800500202060FFF7ACFE8F
:10051000296A2160FFF7B0FE002070BD2DE9F0418F
:100520000D46134900EBC0001E46904601EB8004C7
:10053000FFF79AFE07460F4800680564216A2942C2
:1005400003D104F11C0100F02DF93846FFF794FEA9
:10055000FFF78AFE216A29403160B8F1010F02D10C
:10056000216AA9432162FFF787FE0020B3E700005C
:1005700000041000040110000021016008467047CB
:1005800030B50A6812B10B46C46B09E0002208605E
:10059000C0E903210BE000BF02F10C03D26812B1E5
:1005A000D56BA542F8DC1A68C0E903211860002069
:1005B00030BD0068002201E0C068521C8A4201D0B0
:1005C0000028F9D170470068704702690AB11168C4
:1005D00031B96FF00400704701F10C02C96839B1FC
:1005E0008142F9D1C9681160002101610846704754
:1005F0006FF003007047000010B54FF4C871324827
:1006000012F061FD002010BD2DE9F041884605463D
:100610002D4900EB8500174601EBC004FFF724FECF
:100620000646207830B13046FFF726FE6FF0010015
:10063000BDE8F08102202070E7611422414604F1F8
:100640000800656012F0D0FC0020206204F1240054
:10065000FFF792FF3046FFF70FFE0020E8E770B586
:10066000194900EB800001EBC004FFF7FDFD0546D2
:10067000D4E90701814205DB144804F12401006834
:1006800000F090F8206A401C20622846FFF7F4FD35
:10069000002070BD70B50C4900EB800001EBC00478
:1006A000FFF7E2FD0546206A08B1401E206204F112
:1006B0002400FFF788FF10B1606A00F011F82846A7
:1006C000FFF7DAFD002070BD68051000040110007E
:1006D00010B54FF42A71404812F0F5FC002010BD0F
:1006E00010B5044690F8380002280BD02046FFF7DA
:1006F0006CFF022084F8380038492046FFF740FF9D
:10070000FFF733FE002010BD2DE9F05F8B46064653
:10071000314900EB06109046DDE90AA911F82020C6
:100720001D461AB16FF00100BDE8F09F01EB800497
:10073000FFF79AFD074601202070C4E90165C4E96E
:100740000585C4E907A91422594604F1240012F0D2
:100750004BFC002084F8370084F838006169E060C1
:100760002061C4E90F1020460C99FFF727FEA06016
:100770002046FFF7B5FF3846FFF77EFD0020D3E7A0
:1007800010B5044690F83800022809D02046FFF73B
:100790001CFF022084F8380010492046FFF7F0FEC5
:1007A000002010BD70B5044690F838000D460228B0
:1007B0000BD12046FFF709FF032084F838002946B3
:1007C0002046FFF7DDFEFFF7D0FD002070BD044896
:1007D0000068406870470000F80610000C01100027
:1007E00004011000F0B58446002004460C4F14E0CC
:1007F0005CF824600323DD0046FA05F280EA02601B
:100800000825002802DA87EA400000E040006D1E5B
:10081000002DF6DC5B1EEED5641C8C42E8DBF0BDDF
:100820001B0000801248804712480047FEE7FEE7A1
:10083000FEE7FEE7FEE7FEE7FEE7FEE7FEE7FEE790
:10084000FEE7FEE7FEE7FEE7FEE7FEE7FEE7FEE780
:10085000FEE7FEE7FEE7FEE7FEE7FEE7FEE7FEE770
:10086000FEE7FEE7FEE7FEE7FEE7FEE7FEE7000045
:10087000AD080000C50000001E4800684FF00051A0
:10088000002891F8210000F01C000DD0042805D0AC
:10089000082805D00C2805D096200CE011200AE08D
:1008A000252008E04B2006E0042809D0082809D0BC
:1008B0000C2809D07020401E01F82C0F08707047DA
:1008C0000C20F8E71B20F6E73720F4E770470A49C9
:1008D00093200870D0E708490B200870CCE7054842
:1008E000006818B904480078932801D000207047A8
:1008F00001207047340400222100002070B504203C
:1009000000F0D2F9052000F0CFF9062000F0CCF974
:10091000072000F0C9F9082000F0C6F9182000F0FF
:10092000C3F9192000F0C0F91A2000F0BDF9F04910
:1009300000200860EE4A40321060ED4B183B186012
:10094000EB4B08331860EB4CE071E94B143B18603B
:10095000E74B0C3318602072E54B103B1860E44BFA
:10096000103318606072E24B0C3B1860E04B14339C
:100970001860A072DE4B083B1860DD4B183318601E
:10098000E072DB4B28331860A0731E1D3060E073EB
:10099000331D1860207401250D6015602570062137
:1009A000042000F099F90621052000F095F90621B0
:1009B000084600F091F90621072000F08DF9062184
:1009C000082000F089F90621182000F085F9062199
:1009D000192000F081F904211A2000F07DF904208B
:1009E00000F06EF9052000F06BF9062000F068F9C0
:1009F000072000F065F9082000F062F9182000F0E7
:100A00005FF9192000F05CF91A2000F059F9042070
:100A100000F03EF9052000F03BF9062000F038F91F
:100A2000072000F035F9082000F032F9182000F016
:100A30002FF91A2000F02CF9FF20E070356070BD0E
:100A400000EB8000AA494000002218390A60A94A38
:100A5000521F1070012008607047A5490020183906
:100A60000860704700EB8000A14940000022143963
:100A70000A60A04A121F10700120086070479C494C
:100A8000002014390860704700EB8000984940004E
:100A9000002210390A60974AD21E107001200860A7
:100AA00070479349002010390860704700EB8000C0
:100AB0008F49400000220C390A608E4A921E107045
:100AC0000120086070478A4900200C39086070478F
:100AD00000EB800086494000002208390A60854A00
:100AE000521E1070012008607047814900200839AB
:100AF000086070478049097848430A21B0FBF1F14A
:100B00007E48491E80F86010572181761121C176F8
:100B1000042280F860205B228276C1767047774895
:100B2000002180F860105B2181761121C176704729
:100B30006F4A10B5283214680123D10664B100242D
:100B4000146081F8350091F8420000BF91F84240EE
:100B50008442FBD0136010BD81F83500FAE700EB4A
:100B6000C00101EB00106FF0030101EB800010B534
:100B70006349644C0978B0FBF1F0401E80B2FF2855
:100B80000CD9010A2170494200EB01206070FF205E
:100B9000FFF7CEFF2078401E207010BD002121708D
:100BA0006170BDE81040C0B2C2E75148283001680A
:100BB000002909D000210160C10691F8420000BF60
:100BC00091F842208242FBD0704710B54D4C2178FD
:100BD000607851EA000207D051B1FF20FFF7A8FF6B
:100BE0002078401E207010BDBDE8104009F00ABCFE
:100BF000FFF79EFF0020607010BD3D4A10B53032F7
:100C000014680123590794B10024146081F8370057
:100C100091F8420091F842408442FBD0136091F871
:100C2000420000BF91F842208242FBD010BD81F803
:100C30003700F3E72E483030016800290AD0002140
:100C400001604FF0005191F8420000BF91F842203E
:100C50008242FBD0704700EB800040001921B0FBBE
:100C6000F1F028490004000C488001D01920E7E683
:100C7000704710B5234C0023608830B11920FFF76E
:100C8000DFFE6088401E608000E00123184610BD32
:100C900000F01F020121914040094FF0E02202EBD9
:100CA0008000C0F80011704700F01F020121914040
:100CB00040094FF0E02202EB8000C0F8801170473D
:100CC00000F01F020121914040094FF0E02202EBA9
:100CD0008000C0F8801270474907090E002803DA27
:100CE00000F00F00084A00E0084A815470470000F5
:100CF0001C0500223300002090011000001000208D
:100D00008F0110001401100014ED00E000E400E079
:100D100059480121016000210160704757480121B5
:100D2000016000210160704710B5002000F08BF8D1
:100D3000534800220260FFF7F1FFFFF7E9FF514837
:100D400002605149A0200870002000F088F8BDE83A
:100D50001040002000F06BB84A4801211C380160A7
:100D600000210160704710B50446002000F06BF8C8
:100D700043484149046001200860002000F06FF8FA
:100D8000BDE81040002000F052B830B53C4889B0B2
:100D90000468002C11D02021684612F094F93B48D9
:100DA00000783A4B00216A465B1C02E0CD5C55544A
:100DB000491C8142FADB1146A04709B030BD2E49DB
:100DC00001201C39086070473048203000782F49D6
:100DD00021310978401A00F03F0070472C49027811
:100DE0000A7042784A7082788A70C278CA70027932
:100DF0000A7142794A7182798A71C079C8717047E3
:100E000024480068417882784FF00050437A037498
:100E1000214B1B78437443891B0A83744389C37431
:100E200001754275C1798175017AC175704700F00D
:100E30001F020121914040094FF0E02202EB8000A7
:100E4000C0F80011704700F01F02012191404009D5
:100E50004FF0E02202EB8000C0F88011704700F0F4
:100E60001F020121914040094FF0E02202EB800077
:100E7000C0F88012704700005C840022A0000022AD
:100E8000180110007C04002200E400E000040020AF
:100E900000020020380110008401100010B5092064
:100EA00000F054F80A2000F051F8092000F05AF838
:100EB0000A2000F057F80521092000F05FF805210D
:100EC0000A2000F05BF833487F2141707C22827059
:100ED0000171002100F848192F490A684FF00101FB
:100EE00092F8C830DC070AD09C0708D590F84A4031
:100EF000C3F3820301FA03F39C4380F84A4092F85B
:100F00001131DC0721D0C3F34203012B03D0234B63
:100F10004FF480641C604830837802F21112147818
:100F2000C4F3420401FA04F4A343837003791478F0
:100F3000C4F3420401FA04F42343037103781278E2
:100F4000C2F3420291400B43037010BD00F01F0238
:100F50000121914040094FF0E02202EB8000C0F8EF
:100F60008011704700F01F020121914040094FF0AD
:100F7000E02202EB8000C0F8801270474907090E9A
:100F8000002803DA00F00F00054A00E0054A81540A
:100F900070470000480000203801100000E100E028
:100FA00014ED00E000E400E0704710B5044602468E
:100FB0002A21002000F060F9221D2B21002000F0E2
:100FC0005BF904F108022C21002000F055F920689B
:100FD000000E032825D104F110022D21002000F07D
:100FE0004BF904F10C022E21002000F045F904F128
:100FF00018022F21002000F03FF904F114023021E3
:10100000002000F039F904F120023121002000F025
:1010100033F904F11C023221BDE81040002000F039
:101020002BB910BD10B5BE4C072060700020207099
:1010300044F2C000608000BF00BF00BF4CF2C0009F
:10104000608000BF00BF00BF4CF2E000608009205C
:10105000FFF720F944F2E000608000BF00BF00BF4E
:101060004FF48040608010BDF0B500252E464FF053
:101070000054E02717E000BF883401F03F016070A2
:101080002170678000BF00BF00BFD4F808C043F8DC
:1010900025C06680883C00BF6D1C521E491C3F293C
:1010A00001D9401CC0B2002AE6DCF0BD2DE9F047B2
:1010B0009B4D0026AD1C04462E80DFF8689201216E
:1010C000C9F880104FF4C058A5F8008000BF00BFD9
:1010D00000BF00BF00BF4FF480572F803520FFF7BF
:1010E000D9F82E80FFF79EFF00F0DCF85C2000F0BE
:1010F000EAF82346012208210020FFF7B5FF231D4F
:10110000012209210020FFF7AFFF04F108030122AB
:101110000A210020FFF7A8FF04F10C0301220B2194
:101120000020FFF7A1FF04F1100301220C21002091
:10113000FFF79AFF04F1140301220D210020FFF7AD
:1011400093FF00F0AFF8FFF76DFF2F8000BF00BFE7
:1011500000BF00BF00BF00BF00BF00BF00BF00BF97
:10116000A5F8008000BF00BF00BF00BF00BF4FF464
:1011700040602880C9F88060BDE8F087F0B54FF086
:10118000000C059C0CB14FF0800CC5B200264FF04E
:101190000057644C28E000BF87F889504FEAC05ED2
:1011A000BEF1000F01F03F0E4EEA0C0E01DA4EF0D8
:1011B000400E87F888E053F826E0C7F88CE04FF03F
:1011C000010EC4F8B0E04FF0000EC4F8B0E0491CC6
:1011D000C9B2402902D36D1CEDB20021D4F8C0E0A1
:1011E000BEF1000FFAD1761C9642D5DBF0BD4FF070
:1011F000005282F88900002309B1802002E0C00576
:1012000003D5402082F8880001E082F88830454804
:101210000121C0F8AC10C0F8AC3000BFD0F8C0104D
:101220000029FBD17047F8B50C4605464FF4F4761B
:1012300000213046FFF7DBFF0020014600902B46DF
:1012400022463046FFF79AFFF8BDF8B50C46054632
:101250004FF4F87600213046FFF7C9FF00214FF424
:10126000FC70FFF7C4FF0020014600902B46224689
:101270003046FFF783FFF8BD294B587041F08000DE
:1012800003F8880927480021B4300160012140F8A3
:10129000B41900BFD0F8C0100029FBD1D3F89000DA
:1012A0001060704710B51E4C4FF48040A41C208085
:1012B0000420FEF7EFFF0020208000BF00BF00BF2A
:1012C00000BF00BF10BD70B5154C2126A41C2680A0
:1012D00000BF00BF00BF00BF00BF40F02105258058
:1012E00000BF00BF00BF00BF00BF44F221010843A0
:1012F00020800420FEF7CEFF258000BF00BF00BF86
:1013000000BF00BF268000BF00BF00BF00BF00BFFE
:101310000020208000BF00BF00BF00BF00BF70BD25
:101320008800002000100022F8B5FF4C002635464A
:101330002670E66026610120666100F0B8FD0C2091
:1013400000F0B5FD032000F0B2FD172000F0AFFD66
:10135000012000F0B8FD0C2000F0B5FD032000F0E6
:10136000B2FD172000F0AFFD00F05FFF6A460221DA
:10137000EE4801F097F9EE499DF8010008709DF8DC
:101380000000532800D004260521012000F0A7FD0D
:1013900005210C2000F0A3FD0621032000F09FFD95
:1013A0000621172000F09BFD012000F074FD0320B2
:1013B00000F071FD172000F06EFDA5706570E570FE
:1013C0003046F8BD70B5D84B1889C0F38001C0F322
:1013D0004016C0F300247140C0F3C0226140C0F346
:1013E000803551406940400840EAC130188170BDE5
:1013F00038B50D46009014460421684601F022FDE0
:10140000CC498978C90602D5062D00D1401C009927
:10141000216584F84E0038BD906570472DE9F0478E
:10142000C54D0646C34C286890F83404C00718D050
:10143000608840F080006080FFF7C4FF296800F0FA
:101440000700084490F8350484F83D00FFF7BAFF20
:101450002968C0F30210084490F83504800084F82D
:101460003C00002084F8470028684FF002084FF045
:10147000E90990F845176174B049042EC1F30E07CD
:1014800006D0032E1FD0022E41D0052E5CD082E064
:10149000A84A3146206BFFF7ABFF606BA065A4F84C
:1014A0004870A07880060028286890F8590703DA69
:1014B00020F0060040F0040084F84C0084F84D80D1
:1014C00084F84A9067E09B4A3146206BFFF790FF13
:1014D000606BA06597480421303001F0B3FC974958
:1014E00001EB8000C0F30E00A4F84800A07880064D
:1014F0000028286890F8590703DA20F0060040F029
:10150000040084F84C0084F84D80ED2019E0894AED
:101510003146206BFFF76CFF606BA065A4F8487044
:10152000A07880060028286890F8590703DA20F090
:10153000060040F0040084F84C00042084F84D00BC
:10154000E52084F84A0026E0A178890623D500F238
:10155000C93030340178A173C17821744178217584
:10156000807860750120E075724A31462068FFF787
:101570003FFF7248F830C0F30E002083286890F8CF
:10158000590720F0060040F00200207784F81D8003
:1015900084F81A90303C286890F80A17C907A17897
:1015A0004FEA81710BD000290BDB0121084602F0C4
:1015B000D9F914F84B0F40F0030020700AE000291D
:1015C00004DA90F86C0720F0030001E090F86C0753
:1015D00084F84B0054484670BDE8F047554800F089
:1015E0001FBF55480168534891F83627427791F854
:1015F0003727C2744288D20505D491F8382702F003
:101600000F02827402E000228274027401F23971C6
:101610000A7802F03F020275B1F801200283CA780D
:101620008276474A0979127801F0F00102F00F0240
:101630001143C176704740483E49006890F8002247
:101640004A7790F80122CA744A88D20504D490F8E7
:10165000022202F00F028A7400F20320027802F0E4
:101660003F020A75B0F801200A83C2788A76344AAC
:101670000079921D00F0F000127840EA1210C8764E
:1016800070472DE9F0472B4C0546002084F84700B1
:10169000DFF8A4A0E12084F84A00DAF80000DFF8BF
:1016A000A890214E90F84517617490F80A175FEAE8
:1016B000C1782449C1F30E072146B1F802C0CB7CA2
:1016C0000CF0FF024CF0010104D05FEA8C7C01D4E5
:1016D000012D08D0072D0ED0062D5DD0082D70D01D
:1016E000092D7CD03CE0337172710A22E274618072
:1016F000A4F848700DE0337172716180417D027D04
:10170000491C51430F4A02EB4101C1F30E01A4F8F9
:10171000481090F8531799F8002001F0F00102F0FA
:101720000F021143E17611E01C01100004100020AB
:1017300084011000A009100038011000A8870120C2
:10174000F0FF010000800120F6FF010090F855072E
:101750006077FE4A29460120FFF74AFEE068A0654F
:101760006088C10705D094F84A1041F0020184F85E
:101770004A10DAF800104FEA807091F80A27D20771
:101780004BD000284BDB062D37D0082D35D0092D46
:1017900033D0012D36D04BE0A4F8487090F85317A1
:1017A00099F8002001F0F00102F00F021143E176F8
:1017B00090F855076077E54A2946A068CCE700E035
:1017C0000DE0E348C0F30E00A4F84800FFF733FF34
:1017D000DE4A2946206AFFF70BFE606ABFE7DD4854
:1017E000C0F30E00A4F84800FFF7FBFED74A2946D5
:1017F000A06AFFF7FDFDE06AB1E714F84B0F20F097
:10180000030008E00021012002F0ACF814F84B0FAF
:1018100020F00300801C20700AE0002804DA91F810
:101820006C0720F0030001E091F86C0784F84B008E
:101830007570BDE8F047C54800F09ABD062810D085
:1018400008280ED001280CD007280AD0092808D073
:10185000042805D0032803D0052801D0022801D18F
:10186000DCE50EE770472DE9F84FBB4D82460129B4
:1018700001D10020A871AC79DFF8E49204F10104F1
:10188000B64EDFF8C882A9F12C0713E0306890F853
:101890000A07C00706D098F80200800702D459F85A
:1018A000242001E057F8242069465046904701283B
:1018B00005D0641C0A2CE9D90020BDE8F88FAC7172
:1018C0009DF80000F9E770B505460088002838D07B
:1018D0005C2229469D4801F04AFEFEF778FF9E4CA7
:1018E0009E4EA061306890F80A07C0070AD0A87819
:1018F000800707D49549088810F0760F02D040F091
:1019000080000880607800281BD101218F48FFF7F4
:10191000AAFF050015D0934901200870306890F89F
:10192000101149070ED590F8430780070AD400F03C
:1019300094FE0220A07000F094FE192000F0A9FE91
:10194000657070BD002020702846BDE8704075E7C6
:10195000002070478268120006D00088C00503D5B9
:10196000072008700120704700207047826812002D
:1019700006D00078C00703D0062008700120704709
:1019800000207047826A120006D00088800503D5C7
:10199000092008700120704700207047026A120079
:1019A00006D00078000703D5082008700120704792
:1019B000002070478268120005D00078000602D52A
:1019C00001200870704700207047026B120008D099
:1019D000426B32B10078800603D5022008700120E6
:1019E000704700207047026B120006D00078C006D6
:1019F00003D5052008700120704700207047026B56
:101A0000120006D00078800703D50420087001205A
:101A1000704700207047426B32B10078400703D511
:101A200003200870012070470020704700200870D4
:101A3000012070472DE9F04144480421303001F085
:101A400001FA044641480421343001F0FBF9424FC9
:101A50000546404E7878DFF8F4802836042801D017
:101A600002280DD198F80200800603D53949A2005A
:101A7000283102E0620006EB44013B4801F077FDAB
:101A80007878032801D0022811D198F80200800646
:101A900003D5AA0006EB840104E005EB44006A00CC
:101AA00006EB4001BDE8F041304801F060BDBDE803
:101AB000F08130B587B001208DF800002748234D14
:101AC000254C006890F80A07C0070AD0A87880075C
:101AD00007D46078012804D102208DF8000008F0B6
:101AE0009AFC00F06FFB224801901A4802902830BF
:101AF00003901748E17800EB410004900020E0706B
:101B000013488038059069686846884707B030BD3B
:101B10002DE9FE4FDFF844A001200090DAF8000024
:101B20000C4E0024B0F95614B0F95A24283611444A
:101B300001EBD17149100291B0F95814B0F95C244D
:101B4000114401EBD1714910019113E0A00910007B
:101B500020890120808701201C011000380110001D
:101B6000943201008D011000FC8E0120748F012041
:101B70000080012090F80017C9072BD0DD4991F8AB
:101B8000427007B90127DB49DB4D91F8411091FB09
:101B9000F7F10FFA81F86978042902D0032903D0FC
:101BA0000BE0407D440020E0D24840240421303046
:101BB00001F048F9D14901EB8006687802280AD083
:101BC00005280BD0042810D003280ED002280CD0F2
:101BD00005280AD0D1E07A24C84E06E0DAF80000E1
:101BE000C64E3A2490F80187F836E9688B4641459D
:101BF0007DDCBBF1000F04D14FF4F871C04811F047
:101C000062FABF490020894608E000BF51F8202051
:101C100036F910301A4449F82020401CA042F5DB68
:101C20000BF10100E86040457EDB0020E860687849
:101C3000DFF8D082042804D0032824D0022844D01E
:101C400083E0AC4890F8430038B1DAF80000407DFA
:101C50004100AB4801F01EFE2861002049462A6978
:101C60000EE000BF31F820307B43A3EB020C029B57
:101C7000634426F8103051F8203048F82030401CDA
:101C8000A042EFDB61E09B4890F8430038B1DAF8FE
:101C90000000007D41009A4801F0FCFD68610020D1
:101CA00049466A690EE000BF31F820307B43A3EB60
:101CB000020C019B634426F8103051F8203048F89C
:101CC0002030401CA042EFDB3FE08A4890F8430000
:101CD00098B1DAF80000407D4100894801F0DAFD52
:101CE0002861DAF80000017D427D490000E03EE015
:101CF00009EBC20001F0CEFD686100205246434668
:101D0000494620E0D2F800C09CF815C0B0EB4C0F5B
:101D100031F820C00CFB07FC07DAB5F81080ACEBFB
:101D20000808DDF808C006E022E0B5F81480ACEB46
:101D30000808DDF804C0C44426F810C051F820C0DB
:101D400043F820C0401CA042DCDB6878052814D191
:101D500000206D4A09E000BF31F8203026F810302D
:101D600051F8203042F82030401CA042F4DB04E05F
:101D70006878FFF763FD002000900098BDE8FE8FB3
:101D8000F0B587B0FFF756FE5A4DA878400603D449
:101D9000FFF7BEFE002819D05C4F574C386890F80A
:101DA0000A07C0070BD0A878800708D460780128FC
:101DB00005D12079E8746079688008F02CFB002157
:101DC0004C48FFF750FD18B1FFF738FD07B0F0BDE4
:101DD0004F48002666700670386890F80A07C007FA
:101DE00006D0A878800703D40021084601F0BAFD88
:101DF0004849A4200873386890F81001400702D5BC
:101E0000A67000F018FC2078012816D08DF800602C
:101E10004148019000F5F060029028300390E1788D
:101E200000F5BC7000EB410004903548E670943832
:101E30000590696868468847C8E703208DF8000068
:101E4000E6E770B53148324D4FF00004016891F873
:101E50001001420728480AD591F84317890706D48C
:101E60008178012908D002290FD0032903D1847079
:101E7000FFF71FFE2C7070BD0221817000F0F1FB96
:101E8000BDE87040322000F004BC0321817040782E
:101E9000BDE87040D2E400F01F02012191404009EA
:101EA0004FF0E02202EB8000C0F80011704700F014
:101EB0001F020121914040094FF0E02202EB800017
:101EC000C0F88011704700F01F02012191404009C5
:101ED0004FF0E02202EB8000C0F880127047490703
:101EE000090E002803DA00F00F000C4A00E00C4A4B
:101EF00081547047A00910001C011000A887012020
:101F000034890120248B0120148D01203801100018
:101F10008D011000001000200080012014ED00E071
:101F200000E400E0FE4801680029FCD17047F0B5EC
:101F300027260022FA4DFB484FF4F8315C270C4667
:101F40005FF0000303EB000E11F803C05B1C8EF87A
:101F500060C00C2BF6DB2B68002BFCD18276C77699
:101F600004F10C0103EB000E11F803C05B1C8EF8AA
:101F700060C00C2BF6DB29680029FCD1511C81764E
:101F8000C776921C04F13001B242D8DBF0BD2DE9D6
:101F9000F0479246089E5B1EC6F108010022E14C04
:101FA00001F0FF0C1546002189469A420BDA00EB3E
:101FB0000208875C98F8018027FA06F708FA0CF8FF
:101FC00047EA080703E007D1875C27FA06F701EB29
:101FD000040888F8607003E001EB040888F860905A
:101FE00001F1010102F101020C29DEDBCC490F688D
:101FF000002FFCD10AEB0501A1765C21E1766D1C76
:10200000022DD0DBBDE8F08718B5002411235C2237
:102010002146C5480094FFF7BAFFC348182362223F
:10202000002121300094FFF7B2FF18BD2DE9F047E1
:102030000024DFF8EC82BB498246254626464FF055
:102040005C0900209C4206DA00EB010C1AF80470CF
:102050008CF8607002E0471887F86060641C401CD0
:102060000C28EFDBD8F800000028FBD15019887647
:1020700081F81B906D1C032DE3DBC3E7AA4800B574
:1020800016235E2200216C38FFF7D0FFA6482023DC
:102090006422002140385DF804EBC7E770B50023E7
:1020A000A04C05E0CD5C1E195B1C86F860505BB24D
:1020B0009342F7DB9A490B68002BFCD1A07642F0E3
:1020C0001000E07670BD30B5984C072202202168E0
:1020D00001F24271FFF7E2FF2168022201F24A7128
:1020E0000920FFF7DBFF2168062201F24D710B206A
:1020F000FFF7D4FF20688E498E4D90F8530709787A
:1021000000F0F00001F00F01084328700122294679
:102110001120FFF7C3FF2168072201F2547112203A
:10212000FFF7BCFF82480122401E007800F00F013B
:10213000206890F85B0761F31F102870294619206A
:10214000FFF7ACFF2168042201F25C711A20FFF74F
:10215000A5FF77480222C01C2946007828707448E1
:10216000401C007868701E20FFF798FF2168062247
:1021700001F262712020FFF791FF6D480222001DDD
:102180002946007828706A48801C007868702620EC
:10219000FFF784FF2168022201F26A712820FFF70D
:1021A0007DFF2168072201F26C713C20FFF776FF6A
:1021B000206890F8C01760480170332141740B21EA
:1021C000817430BD5D48002202605C481C380260AA
:1021D0005B480261012101618260816002600160EF
:1021E00002604F49A0F574700B68002BFCD14D497B
:1021F0000B7B43F020030B730B7B23F040030B732B
:102200000B7B23F080030B730B7B23F020030B73FA
:10221000C0F8D823C0F8E0234A480270704740480D
:10222000183001680029FCD1704730B544480024BB
:10223000743004604248803004604148C460012129
:10224000C160C4600460016004603B4D2020AD1D8E
:10225000287068703349593D0873A42008733048CA
:10226000183001680029FCD1FFF7ACFFFFF72BFF06
:10227000FFF704FFFFF7C8FEFFF759FE324804607E
:1022800085F8344030BD38B50546264C006D0090C9
:102290006073010AA173010CE173000E2074042223
:1022A00069462A20FFF7FAFE012205F14E012E2091
:1022B000FFF7F4FE95F84E00A074A86D0090E0744E
:1022C000010A2175010C6175000EA0750422694692
:1022D0003420FFF7E3FE0098800F84F84000154992
:1022E000012208703820FFF7D9FE38BD00EBC0018D
:1022F00001EB00106FF0030101EB800010B51349F2
:10230000114A0978146890FBF1F0401EC1B2012314
:1023100058072CB30024146080F8341018E0000033
:10232000040B002200100020ACF80100380110005E
:10233000F6FF0100FC091000530000201C0C0022D5
:10234000D00300221D011000400500228F01100063
:1023500090F8421090F842408C42FBD0136010BDC0
:1023600080F83410FAE7FC4801680129FCD1704775
:1023700078B50446FFF787FFF848B4F848100180A5
:10238000217C00F8011C94F84A104173F44EA07CA3
:1023900086F83600F34D286890F842078DF8000063
:1023A0006188890503D520F012008DF80000012214
:1023B00069460220FFF772FE042204F11101052094
:1023C000FFF76CFE2968022201F24A710920FFF72B
:1023D00065FE022204F116010C20FFF75FFE0222C7
:1023E00004F118010E20FFF759FE2868052204F1B8
:1023F0001A0190F8540720771020FFF74FFE0122B2
:1024000004F14B013C20FFF749FED3480168012944
:10241000FCD194F84A0030732320FFF767FF78BDA2
:102420007EB50446FFF72FFFCC48B4F84810018072
:1024300094F83F1000F8011C94F84A104173C94DFC
:10244000286890F842078DF800006188890503D557
:1024500020F012008DF80000012269460220FFF7EB
:102460001DFE296891F80A07C00769D062889007A5
:1024700066D4B1F80D07ADF80400B1F87017ADF8E7
:102480000810120609D594F83D201144ADF8081043
:1024900094F83C100844ADF80400022202A9402040
:1024A000FFF7FCFD022201A90920FFF7F7FD022238
:1024B00004F138011A20FFF7F1FD022204F13A017C
:1024C0002220FFF7EBFD012204F13E010720FFF778
:1024D000E5FD012204F144010820FFF7DFFD0122A0
:1024E00004F145012020FFF7D9FD012204F1460146
:1024F0002820FFF7D3FD012204F14C011720FFF73C
:10250000CDFD012204F14D011820FFF7C7FD286819
:102510009549012290F8540720F0F000087012202D
:10252000FFF7BCFD94F847008D4EC0070CD028681B
:1025300000F2C67190F8C60786F8360001220AE05C
:10254000022201F24A71AFE794F8400086F83600A3
:10255000012204F140010620FFF7A0FD012204F151
:102560004B013C20FFF79AFD28680122694690F84C
:10257000430740F008008DF800000320FFF78EFDB0
:10258000754801680129FCD194F84A003073232072
:10259000FFF7ACFE7EBD7349744B0A6892F84D2775
:1025A00002700A68B2F85027428009681B7801F26D
:1025B000547103F00F0311F8012C02F0F0021A43DA
:1025C00002714A89C2804A8A0281CA7B8272CA7DAC
:1025D000C27249780173704710B504460146012262
:1025E0000B20FFF75BFD0222A11C0E20FFF756FD1A
:1025F0000122211D1120FFF751FD0222A11D1C20E7
:10260000FFF74CFD022204F108012420FFF746FDEC
:10261000012204F10A012120FFF740FD012204F10B
:102620000B012920FFF73AFD04F10C010122BDE85E
:102630001040132032E54A4908B504200873494880
:1026400001226946006890F8430720F008008DF8E1
:1026500000000320FFF722FD08BD41492020087338
:1026600070473F49C0200873704741490020086007
:1026700070473F4840300168002909D000210160BF
:102680004FF0005191F8420091F842208242FBD075
:102690007047374900220A60304A273A10700120FB
:1026A0000860704770B52C4C1C342368002BFCD19B
:1026B0001D4603E0C6185B1C86F880508B42F9D398
:1026C0002368002BFCD102E0C45CD4545B1C8B4219
:1026D000FAD370BD10B501F022F8FFF7CAFF254804
:1026E000007878B11C48001D01680029FCD11C4805
:1026F000C078400602D5204901200870BDE810408E
:10270000FFF73EBB1D490020087010BD10B501F059
:1027100006F8174900200860BDE81040FFF791BB9C
:1027200010B500F0FCFFFFF7A4FFBDE81040FFF775
:1027300088BB0B4B10B59876DA760748001D046805
:10274000002CFCD1012083F8E00003481C30046811
:10275000002CFCD1002019E0000B002254000020C6
:102760000010002038011000FC091000F6FF0100E5
:10277000000500221D0110001C0110008D01100039
:10278000C41894F860400C54401C40B29042F7DBEF
:1027900010BD0000FEE70446012007F078FF00218D
:1027A0000F20226807F08BFF01210F20626807F0DD
:1027B00086FF02210F20A26807F081FF03210F206E
:1027C000E26807F07CFF0C210F20226907F077FFF9
:1027D0000E210F20626907F072FF0F210846A269DF
:1027E00007F06DFF20210F20E26907F068FF3B48EA
:1027F000026821210F2007F062FF38481038026874
:1028000022210F2007F05BFF34480C380268232197
:102810000F2007F054FF31480838026824210F20A8
:1028200007F04DFF2D48001D026825210F2007F0FD
:1028300046FF2A483438026826210F2007F03FFF60
:1028400026481438026827210F2007F038FFFDF7CB
:10285000BEFF024630210F2007F031FFFEE710B522
:10286000012807D002280ED0032805D0042805D05F
:10287000042109E0012107E0032105E000210320F4
:1028800007F005FFFEE70221BDE81040032007F036
:10289000FEBE10B504460146042007F0F8FE012CE8
:1028A00000D1FEE710BD0146082007F0F0BE01464A
:1028B000062007F0ECBE10B504460146072007F0DD
:1028C000E6FE012C04D0022C03D0032C02D1FEE73B
:1028D000FEE7FEE710BD0320EDE7000038ED00E065
:1028E00000F01DBF70477047384810B5016821F0EF
:1028F0000401016000F013FFBDE81040FEF745BA87
:102900007047334810B5007801280DD0032811D145
:10291000FEF7A3F80EF049FEFEF7ABF9002809D048
:10292000BDE8104007F0F3BFFEF797F8BDE8104090
:102930000EF03BBE10BD00F0F2BE10B500F0EFFE91
:10294000BDE8104008F003B910B500F0E8FEBDE89E
:1029500010404FF0005001F099B87047704710B523
:1029600000F0DDFE1B480078012803D0BDE81040D0
:1029700007F063BDBDE8104001F0CCBD704710B555
:1029800000F0CDFEBDE810404FF0805001F07EB861
:10299000704770477047704770477047704770477F
:1029A00010B500F0BCFEBDE81040FEF70EB910B542
:1029B00000F0B5FE07480078012803D1BDE81040BB
:1029C00001F084BD10BD70477047000010ED00E0BD
:1029D000A20110008C01100010B556219E4810F085
:1029E00050FB9D489D499E4A018082809D494180BF
:1029F0009D4BC3809D4C04819D4C44819D4C8481A2
:102A00009D4CC4819D4C04829D4C44829D4C84828B
:102A10009D4CC4829D4C04839D4C44869D4C848671
:102A20009D4CC4869D4C0487C387418782879C49FF
:102A3000A0F84E109B49A0F850109B49A0F85210E6
:102A40009A49A0F854109A49A0F840109949096889
:102A5000B1F86220A0F84220B1F8C621A0F84420C5
:102A6000B1F8A120A0F84620B1F8F021A0F8482044
:102A7000B1F85421A0F84A20B1F85221A0F84C2016
:102A80008B48B1F84E274280B1F85C27C280B1F87C
:102A90006417018110BD884813228949037887484B
:102AA000552B02D0027019200CE0824B1B6893F862
:102AB0001131DB0702D0804A521C127802707E4826
:102AC000801C0078087070472DE9F0418AB0FF2221
:102AD0002421684610F0CDFA6846FEF766FA01999F
:102AE0000E240126072545F2AA50814202D0029900
:102AF000814237D1009980460F0E0299414508D195
:102B0000032F02D10098C0F301360098C0F30325CB
:102B100002E00120FFF7CBFE0199414503D1009867
:102B200000F01F0402E00220FFF7C1FE032F1FD1B7
:102B3000049A40466349824201D1039A00E0624A06
:102B40000A60069A6149824201D1059A00E0604A12
:102B50000A60089A5F49424501D1079800E05E4843
:102B6000086005E00120FFF7A2FE0220FFF79FFEAC
:102B70005A4906F0030040EA051081F86000012080
:102B800088761120C8765648017864F304010170F4
:102B90000AB0BDE8F08170B5FDF799FEFEF7C4F804
:102BA000444C20680078A52802D00120FFF771FE70
:102BB0004FF008500125C0F898532068494A90F812
:102BC000281101F00101116090F82801111DC0F3D6
:102BD00040000860FEF7E8F9FDF790FEFEF7A4FB61
:102BE000042801D1FFF73BFEFEF70AF9FEF756F97C
:102BF0003A48802180F86010042181761121C17645
:102C0000FFF762FFFFF747FF36480C38056070BDDD
:102C100041F2902010B541064881FFF7BCFFFFF755
:102C2000DBFE31495F2008603049002008603148F0
:102C30002F49016001F508602F4908602F4800F016
:102C40002AFBFDF721FB00F05BF8FDF71BFBFDF70E
:102C50009FFB012010BD000000000120008001202A
:102C600048A70120C89F012056000120A887012005
:102C7000462E0120822E0120A82F0120E42F0120C2
:102C80009C340120D8340120E22901201E2A012091
:102C90003A2E0120F0970120FC970120D62901202F
:102CA000C82E0120F02E0120402F0120182F0120D6
:102CB000A423100038011000F2FF01009001100061
:102CC0008F0110009401100040A5AE029801100081
:102CD000008793039C01100000366E010010002055
:102CE0002000002088040022C42E01208001100052
:102CF0008C11100064011000680110008C2210007B
:102D00007FB5FDF71DFB1F4D002400BF05EB4410F0
:102D100000F11002017F4CCACDE90261CDE9002328
:102D20000FC8FDF7F1FC10B10220FFF7C4FD641CD1
:102D3000082CEBDB144D002404EB440005EB800170
:102D4000091D55F8200006C9FDF75EFC10B10220F0
:102D5000FFF7B1FD641C082CEEDB0B4D0024603541
:102D600005EBC400416855F83400FDF767FB10B16E
:102D70000220FFF7A0FD641C072CF1DB7FBD40683B
:102D8000FFF7A9BDC0320100C03301002DE9F047B3
:102D90009246012547F6F87256429946AC46002401
:102DA000089F16E030F8143031F81480A8EB0303C4
:102DB0001BB29A4200DD1A469E4200DA1E46002BE4
:102DC00002DA4FF0000502E001DD4FF0000C04F1E3
:102DD0000104BC42E6DB55EA0C0306D0012D01D00C
:102DE0002DB108E0BCF1010F05D1002203E0BCF1D8
:102DF000010F00D1324600252C462B4611E000BFC2
:102E000030F8136031F813C01644ACEB060636B246
:102E10004E4505DAC9F1000C664501DD3544641CF8
:102E20005B1CBB42ECDB95FBF4F10A44002105E09E
:102E300030F8113013442AF81130491CB942F7DB3D
:102E4000BDE8F08770B5034600200246FE4C09E05D
:102E50009D5C521C05F00F0604EB1515A65D2D7840
:102E6000304428448A42F3DB70BD884200D30846D0
:102E70007047884200D808467047884200D3084609
:102E8000904200D3104670472DE9F047D0F810C0AB
:102E90000568046A85FB0C12A1FB041242694368B1
:102EA000914683FB02628269E246A6FB02677618BE
:102EB000D0E9021781FB07C8C069ACFB00C81CEB56
:102EC000060682FB0A2CA2FB011280FB0902A0FB72
:102ED0000502401884FB0712A1FB03120818301AE0
:102EE0004FEAE071ACE72DE9F04389B00446006891
:102EF00000906068019020690290606803902069EA
:102F00000490A069059020690690A0690790E06987
:102F100008900D466846FFF7B7FF8046A06801900D
:102F2000E06804906069079089466846FFF7ACFF47
:102F3000064660680190A068029020690490E068ED
:102F40000590A0690790606908900F466846FFF7F2
:102F50009BFFC5E90401C5E90267C5E9008909B01D
:102F6000BDE8F0832DE9FF4F4FF0000A89B09B4682
:102F70005746D146D04656465546544620216846C7
:102F800010F0A1F80B9810E00999824431F9102053
:102F900000FB00F102FB01668844414302FB0099FB
:102FA00001FB004417440D44401C5845ECDD0B99CF
:102FB000ABEB0100401CCDE9000ACDE90654CDE998
:102FC0000486CDE9027968460A99FFF78CFF0DB0B7
:102FD000BDE8F08F9D480068017B427B41EA0221F9
:102FE000827BC07B41EA024141EA006040007047B9
:102FF000964800680179427941EA02218279C079D4
:1030000041EA024141EA00607047904800210068AF
:1030100000F21270027841EA02214278807841EA97
:10302000024141EA00604000704788480021006882
:1030300090F8102790F8110741EA024141EA006038
:10304000704700B5FFF7C6FF4008400000BDF8B567
:103050000E460446FFF7F5FF0090FFF7BBFF05465D
:1030600004216846FFF7EEFE04EB400700240099B8
:10307000204623464FF0010C0CFA03F20A4207D017
:103080002A4204D037F8102026F81420641C401C73
:103090005B1C1E2BF0DBF8BDAAE7FCB50E4607460D
:1030A000FFF7CFFF0190FFF7A3FF0090FFF7A0FF0E
:1030B0000546042101A8FFF7C5FE04460421684621
:1030C000FFF7C0FE00EB440007EB4007002000992B
:1030D000044603464FF0010C0CFA03F20A4207D0F3
:1030E0002A4204D037F8142026F81020401C641C13
:1030F0005B1C202BF0DBFCBD70B554490020096837
:1031000001F5F57491F8E8518DB191F8E6214FF091
:103110000103D2070DD0002203FA02F6354203D094
:10312000A65C03FA06F10843521C062AF4DB4000B1
:1031300070BD91F8E91103FA01F0F8E770B5434961
:103140000020096801F5F57491F8E851002D09D0C7
:1031500091F8E6214FF00103D20704D091F8E9116C
:1031600003FA01F070BD03FA02F6354203D0A65C03
:1031700003FA06F10843521C062AF4DB70BD70B551
:103180000022324C012303FA02F6256895F8E85133
:10319000354203D030F8125021F81250521C062A42
:1031A000F1DB70BD00B5FFF715FF40F0010000BD79
:1031B0001EE7274A520102EB810101F10851086024
:1031C000704701EB8010801001EB4101490018228B
:1031D00091FBF2F300EB400000F5F83002FB131115
:1031E000006820F07F40C84000F03F00704701EBCE
:1031F0008010801010B501EB41014900182391FBAC
:10320000F3F403FB141300EB400000F5F8303F2407
:1032100001689C40A1439A400A430270110A417020
:10322000110C817010BD821002EB4202114400EBC0
:1032300040004000182290FBF2F301F5F83102FB48
:103240001302086806E0000058340100380110003D
:10325000C42E012020F07F40D04000F03F00704796
:10326000831003EB43031A4410B500EB4000400009
:10327000182390FBF3F403FB140302F5F8323F2408
:1032800010689C40A043994001431170080A507097
:10329000080C907010BD2DE9F14F782100980FF0C7
:1032A00012FFFFF77FFF4FEA5008FFF7A1FE4FF034
:1032B000000C814666464FF0010A00BF0AFA06F18B
:1032C00011EA090F1ED00024012725460AFA0CFB3B
:1032D0000AFA05F010EA080F0FD031462846FFF72A
:1032E00070FFA04207D00099009A51F8271041EAD8
:1032F0000B0142F8271004467F1C6D1C272DE7DBCD
:103300000CF1010C761C202ED8DBBDE8F88F2DE9DE
:10331000F04F8346F84800242246D0F800A001214F
:103320009AF81450A5F1010621E003200123DFF8EB
:10333000CCE303FA01F99AF8157015E05EF820C0A5
:103340001CEA090F0FD0A0F1010300FB051C03FBD1
:1033500005183BF91CC03BF91830BCEB030300D542
:103360005B421C44521C401C8742E7DC491C8E42D5
:10337000DBDC02B9012294FBF2F029E62DE9FF4FD4
:1033800085B000210391029101910091DA49012B4E
:103390000C6894F8775005F00F0700D10027667D80
:1033A00094F87A30C7F1100BB34200D21E460023C6
:1033B0000493012381E000BF4FF00009C8460324B5
:1033C0001FE0CE4951F824C0012199401CEA010FA9
:1033D00004FB053130F911C0A4F1010101FB0531F5
:1033E00030F91110ACEB010106D0002900DA494296
:1033F000DDF818C0A1EB0C01002900DA494289442C
:10340000641CB442DDDB31469EF815A01FE0BB4CC6
:1034100054F821C001249C401CEA040F01FB053430
:1034200030F914C0A1F1010404FB053430F9144053
:10343000ACEB040406D0002C00DA6442DDF818C0BE
:10344000A4EB0C04002C00DA6442A044491C8A4519
:10345000DDDC0499012910D10199B1EB090101D5F5
:10346000C1F10001039C214403910099B1EB0801D3
:1034700000D54942029C21440291CDE900899EF881
:103480007B10994216D11168039D79430BFB0511FE
:10349000CC1701EB1471091111609168029D7943F9
:1034A0000BFB0511CC1701EB147109119160002180
:1034B0000391029101215B1C04918F49D1F800E036
:1034C0009EF81450691E99423FF776AF50680399F1
:1034D00078430BFB0100C11700EB11700011506025
:1034E000D068029B78430BFB0300C11700EB1170FF
:1034F0000011D06009B06BE52DE9F04F7E49002442
:1035000020460D6801222B7DB5F865B4B5F867A497
:10351000A3F1010923E003214FF0010EDFF8E08160
:103520006E7D18E0754F57F821C00EFA02F71CEABD
:10353000070F0ED101FB032738F917C0A1F10107CE
:1035400007FB032738F91770BCEB070700D57F424C
:103550003C44491CC9B28E42E4D8521CD2B29145B7
:10356000D9DCA34502D2544500D2012030E503E066
:1035700011F8013B00F8013B521EF9D270477CB5AF
:103580000D460446FFF75DFD0090FFF731FD019009
:1035900000980421400800906846FFF753FC064657
:1035A000042101A8FFF74EFC304482002146284642
:1035B000FFF7DDFF7CBD0B464F4909684A7D097D59
:1035C000521C4A43014652001846D0E72DE9F0410B
:1035D00004465C210FF077FD0025474E258065806D
:1035E000306890F8C50700F0010045EA401060809F
:1035F000316891F84517C90940EA0110608065609B
:10360000FFF7D0FDA060FFF7F3FC3E4FE060788845
:10361000E082306800F24670C27A817A02F03F029E
:1036200041EA022121834178E17490F87A102174F3
:103630000178A17481782175017BA1763249407BA4
:10364000097800F0F00001F00F010843E076FFF781
:1036500053FD2062FFF772FD6062FFF7D6FCA062A7
:10366000FFF7E3FCE062FFF7ECFC2063FFF7C0FC30
:103670006063F88820876087306800F2C170017845
:1036800084F83E10817884F83F10C17884F84010A7
:1036900010F8BF1C84F84110012184F8421084F80E
:1036A0004350417884F8441010F85F1C84F84510AA
:1036B00010F8571C84F8461010F86B1CA17710F80E
:1036C000550C84F84B0084F83D5084F83C50BDE81C
:1036D000F08110B50446FCF7D7FD012C16D1064841
:1036E000006890F81001800710D5FDF7F8F890B148
:1036F000FDF7F1F80FE00000380110008C221000F7
:103700000C0A1000A4231000F6FF0100FDF7E7F8F3
:1037100008B9FDF7DCF8BDE81040FCF7B3BD0020A8
:10372000D7E7E24B10B51A68947E640704D5D28AB5
:103730000468A2EB040202601A68947EA40703D511
:10374000128B0C68121B0A600268002A00DA002241
:1037500002601C68E48AA24200DD224602600A6818
:10376000002A00DA00220A601C68248BA24200DDD5
:1037700022460A601B689B7EDB0702D003680B6051
:10378000026010BDF0B500252C4608E031F9146048
:1037900030F91470F61B964200DD6D1C641C9C42CF
:1037A000F4DB012D01D90120F0BD0020F0BD2DE991
:1037B000F04F9246DDE909B7012547F6F872564207
:1037C0009946AC46002416E030F8143031F81480E5
:1037D000A8EB03031BB29A4200DD1A469E4200DAB0
:1037E0001E46002B02DA4FF0000502E001DD4FF02B
:1037F000000C04F10104BC42E6DB55EA0C0306D0E0
:10380000012D01D02DB108E0BCF1010F05D100223E
:1038100003E0BCF1010F00D1324600252C462B46B7
:1038200011E000BF30F8136031F813C01644ACEB60
:10383000060636B24E4505DACBF1000C664501DDD1
:103840003544641C5B1CBB42ECDB95FBF4F10A4481
:10385000002105E030F8113013442AF81130491CDA
:10386000B942F7DB89E5F0B5064600200446054677
:10387000521C059F0AE000BF36F911C09C4504DDCB
:10388000A44502DD64460D460120491C9142F3DB4C
:103890003D60F0BD30B50268002513460AE000BF68
:1038A00050F82540944201DD224602E09C4200DAB5
:1038B00023466D1C8D42F3DBD01800EBD070401016
:1038C00030BDF0B4794C23685D7D1B7D6D1C5D437C
:1038D000002307E032F8136030F81370F61B21F86C
:1038E00013605B1CAB42F5DB2068427D007DF0BCC1
:1038F000424301EB420142006D4838E66D49012028
:10390000086081026C480FF0BCBB2DE9F04106460F
:1039100015460F46302801D1FFF7F0FF654C2068AF
:103920002844401CB0F5806F01D2206801E00120DE
:103930002060614908700E542DB10844401C2A468D
:103940003946FFF714FE20682844401C2060BEE67C
:103950005A48002101220170427081707047574817
:103960000078704730B5514A126892F80A27D30799
:103970000BD0D506524A4FF000034FF0010407D593
:10398000151F2860012901D1136030BD146030BDBE
:103990004B4D083D28600129F8D0F5E72DE9F84F97
:1039A000424C00264FF00057206890F80A0745095E
:1039B00097F8510000D101250720FCF750FEFCF7D5
:1039C00006FFDFF8F880C8F8040020684FF0010413
:1039D00090F80A07C00603D5062087F8510001E0D9
:1039E00087F8514000210120FFF7BCFF4FF416700B
:1039F000FCF750FC4FF0E02A4FF480594FF0000BD9
:103A0000CAF880924FF040514446D8F80400FCF7C1
:103A100064FDDFF8B080012088F80000E8B2FDF70F
:103A200045F8CAF800916B4600224FF0405160689B
:103A3000FCF774FD4FF040516068FCF74EFD0098B4
:103A4000C00000D501262078B04202D1607801285C
:103A50000BD197F851009EB140EA0522DD20616844
:103A600006F02DFE84F801B0267000210846FFF70D
:103A700079FF88F800B00720FCF70CFE207844E4BA
:103A800040EA0521092006F002FEEBE710B50446E6
:103A90000D484FF480510160FDF715F807482146A5
:103AA0004068BDE81040FCF7E9BC00003801100098
:103AB000682F01203C011000D6250120C80110000C
:103AC000280A00228D01100080E100E010B50146B7
:103AD0001822F748FFF74BFDBDE810404FF4006196
:103AE0000120FCF7CBBC2DE9F04198B080460D4693
:103AF00014466846FFF76AFDE0074FF0010701D062
:103B0000ADF80070A00705D5BDF8000040F0080032
:103B1000ADF80000A00603D54FF40070ADF800002A
:103B2000600735D5E34E306890F80A07C00712D019
:103B3000FFF734FF01280CD0BDF8020040F002006E
:103B4000ADF802005FF02000ADF80000A00707D03C
:103B500018E00620F8E7BDF8000040F02000F3E789
:103B6000BDF8000040F00100ADF80000306800F240
:103B7000211041788DF8131001788DF81A10807893
:103B80008DF81E00CC480078800601D58DF8437072
:103B9000ADF83A50ADF81680ADF83850AFF2D3001A
:103BA000C34D03244FF4006601906846FDF78BFE79
:103BB00017AB002231460120FCF7B0FC3146012052
:103BC000FCF78BFC2878002804D0FEF748FE641E22
:103BD000002CEADC18B0BDE8F0812DE9F041B549D0
:103BE00001260024096810F4D17F91F82110C1F357
:103BF000011106FA01F600D0042410F0050F01D0DF
:103C000044F00104C00601D544F00204002CE2D0C7
:103C10000025AA4F05E0F98878882246FFF763FF60
:103C20006D1CB542F7DBD6E72DE9F35FA1488B4663
:103C300001260068447D017D90F82100641C4C43FE
:103C400000F00707BE404FF488519D480FF03BFA43
:103C50000025DFF86C82DFF86492DFF854A21AE0E6
:103C6000B9F8061001220098FFF73DFF9549DAF8F0
:103C7000040005F00AFE934A0020414608E000BF18
:103C800051F8203032F910C0634441F82030401C14
:103C9000A042F5DB6D1CB542E2DB0020414605E0A9
:103CA00051F820203A412BF81020401CA042F7DBAD
:103CB000BDE8FC9F2DE9F35F7E488B460126006836
:103CC00090F8164790F8151790F821004C4300F033
:103CD0000707BE40A1007A480FF0F5F90025DFF88C
:103CE000E081DFF8D891DFF8C8A11AE0B9F8061032
:103CF00020220098FFF7F7FE7349DAF8080005F074
:103D0000D4FC714A0020414608E000BF51F8203041
:103D100032F910C0634441F82030401CA042F5DB6A
:103D20006D1CB542E2DB0020414605E051F8202041
:103D30003A412BF81020401CA042F7DBB8E72DE9F0
:103D4000F34FDFF8709187B00124D9F800001821F3
:103D500090F8210000F0070704FA07F668460FF014
:103D6000B2F90025DFF854B1DFF860A1E84618E0A9
:103D7000BBF8061002220798FFF7B5FE4C485349DE
:103D80000069FFF7FCF900205246414632F910C0A5
:103D900051F82030634441F82030401C0628F5DB00
:103DA0006D1CB542E4DB0020494643460A6804FA2C
:103DB00000F592F8E8212A4205D053F82020089D0A
:103DC0003A4125F81020401C0628EFDB09B0BDE879
:103DD000F08F2DE9F74FDFF8DC9084B09346D9F8E7
:103DE00000004E4630F83B1F039140880290FFF7D9
:103DF00028F90090FFF750F9019004216846FFF779
:103E000021F88246042101A8FFF71CF85044450020
:103E10003068012490F8210000F00707BC40A90099
:103E200027480FF050F9316891F8F002C20706D028
:103E3000800704D491F8F102044405F049FA002601
:103E400031E01E48042205994088FFF74CFED9F85E
:103E50000010174891F8C517D0F80C80C90704D096
:103E600041694246404605F0DBFAD9F8000090F877
:103E7000F002C10708D0800706D41549404605F076
:103E80003EFA78B1DFF8488000200D4908E000BF15
:103E900051F8203038F910201A4441F82020401CF5
:103EA000A842F5DB761CA642CBDB054C00212FE0B7
:103EB000A03E10003801100048011000A42310009B
:103EC0008C1110000C0A1000C82E01203A2E01207F
:103ED000048E0120FE48D9F8003050F8210093F8F4
:103EE000F02240FA07F0D60708D0920706D593F8DB
:103EF000F122521C4243B3F8F202101AB1EB4A0FFE
:103F000001DA039A00E0029A104424F81100491CD7
:103F1000A942DFDB049810F0220F09D02046DBF81D
:103F20000010FFF794F82046DBF80410FFF7B5F80F
:103F300007B04CE72DE9F0479A46E64B8946002149
:103F40000125E54E1C681AE032F8113030F8117086
:103F5000DB1B1FB200230AE0C3EB031C06EB8C0C37
:103F60005B1C3CF811801BB2B8442CF8118094F80B
:103F700080C305EB9C1C9C45EEDC491C09B2637DAB
:103F80008B42E1DC0020D54A19E000BF3AF810303E
:103F900039F81010591A0BB2002108E002EB811613
:103FA000491C36F8107009B21F4426F8107094F8B6
:103FB000806305EB96168E42F0DC401C00B2217D3A
:103FC0008142E3DCBDE8F08770B5C24DC44E0024E9
:103FD0002868C4EB041100EB440006EBC111B0F8F3
:103FE000EF00FFF721FE641C042CF1DB70BD2DE90E
:103FF000FE4F00258246B74C2F46DFF8DC82DFF803
:10400000DC92012612E000BF00EB4500C5EB051273
:10401000B0F8B21308EB8200009009EB8510CDE9EF
:1040200001076A465046FFF7D4FE6D1C206890F8E1
:10403000801306EB9111A942E6DC90F85011C907F4
:1040400010D090F8911109060CD5407DA24942008C
:10405000A448FFF78CFA2068A049007D4200A248DE
:10406000FFF785FABDE8FE8FFEB59A4A9F49002406
:104070001268012300F4907592F88063C98803EBFD
:10408000961306E002EB4406B6F8B263B14202D0E2
:10409000641CA342F6DCA34219DDC5B192F85001BD
:1040A000C00703D192F8B001C0070FD08A49C4EB12
:1040B000041001EB80013C228D48FFF758FA874835
:1040C000402200EB84118B48FFF751FAFEBD00221D
:1040D0000292874A0092874A01926A46FFF779FE68
:1040E000FEBD2DE9F04104460020FCF7B8FA03209C
:1040F000FCF7B5FA774D286890F82010490701D4ED
:1041000024F4006490F85011C90705D190F8B0115B
:10411000C90701D124F0620490F88013490701D443
:1041200024F4B07490F8D010490701D424F00404AA
:1041300090F8E81109B924F0100490F8040308B9C4
:1041400024F4C07460060AD53C2269496A48FFF726
:104150000EFA6948402267493C30FFF708FA674980
:104160000020401C8842FCD3200502D52046FFF7E2
:1041700034FD600701D5FFF727FF14F4907F02D0CC
:104180002046FFF734FF594EDFF87481E0074FF007
:10419000010720D070885B49FFF746FD70885A49B7
:1041A000FFF788FD286890F8200000070AD55548D9
:1041B000FFF7ADF855490123554A086001465148BB
:1041C000FFF7DCF8286890F84904C0070BD02046B8
:1041D00002F0FEFB07E0E00405D570884A49FFF7CE
:1041E00069FD88F80070E00603D570884949FFF73B
:1041F000A6FD14F0820F0AD02046FFF735FF28688D
:1042000090F84904800702D5204602F099FC600628
:1042100006D53949374B364A3C313748FFF78AFED5
:104220003D4807703D4888F80070077006F0E1F8D7
:104230000020FCF72FFABDE8F0410320FCF72ABA72
:10424000F0B424490022264C0B68B3F8EF108142E9
:1042500013D2B3F8F510814201D803220DE00121F9
:1042600003EB4105B5F8EF50A84201D10A4602E040
:104270000DD2A1F101028A420DD1C2EB021004EB72
:10428000C011F0BC4FF4F0621E48FFF770B9491C32
:104290000429E5DBF1E703EB41031A4D33F8ED2F79
:1042A000C1EB01115B88801A00029A1A90FBF2F3AD
:1042B00000204FF4707604EBC11100BF01EB400207
:1042C000A2F5F06231F91040B2F90020A41A27E0FB
:1042D0008C11100038011000562B0120822C012077
:1042E000D6070120462C0120822D0120A423100096
:1042F000E22901201E2A0120243E100020A10700EF
:104300006101100056000120182F01206C011000DF
:1043100004231000D62901204E011000780110005E
:104320005C4302EB242225F81020401CB042C5DB80
:10433000F0BC70472DE9F0419E4900259E4A09686E
:104340009E4EB1F8B233834219D291F880339C0962
:1043500001EB4407B7F8B273874209D9012404EB93
:10436000931312E001EB4407B7F8B273B84201D1DE
:10437000254602E008D2A4F10105A5421CD191F81E
:104380005001C00708D103E0641CA342EADCF6E751
:1043900091F8B001C0074CD0C5EB051002EB8001CD
:1043A0003C228748FFF7E3F806EB8511BDE8F041B2
:1043B00040228448FFF7DBB801EB4405B5F8B03381
:1043C000B5F8B253C01A0002EB1A90FBF3F391F860
:1043D0005001C00703D191F8B001C00729D0784D32
:1043E000C4EB0411002002EB810100BF01EB40028D
:1043F00031F9107032F93C2CBF1A5F4302EB2722CF
:1044000025F81020401C1E28F0DB6E4D002006EB26
:10441000841100BF01EB400231F9104032F9402C09
:10442000A41A5C4302EB242225F81020401C20280B
:10443000F0DBBDE8F0812DE9F04163480124634ED3
:10444000047000253560192000F0A8F8192000F04C
:104450008DF85F4F052038724FF41670FBF71AFF86
:104460005A4844380560FF21397034600460E0E741
:1044700070B55548574C01250570207F40F0040069
:1044800020774C48006890F81101C00705D00A2039
:1044900000F084F80A2000F069F8002184F8601028
:1044A0005B22A2761120E07684F860505723A37631
:1044B000E076464B443B1960454EFF2131700421A4
:1044C00084F86010A276E0761D6070BD70B53F483C
:1044D0000024443804603E4D08352E79192000F040
:1044E00051F8C6F1FB002978C0B2491CB0FBF1F0CD
:1044F00039490870344804702E48006890F811015A
:10450000C00702D0BDE87040B2E733495520891E8C
:10451000087070BD10B52F4C207F40F0040020774C
:104520002448006890F81101C00702D00A2000F06A
:1045300029F827490A7B254B0020443B186084F862
:1045400060005B23A3761123E3760978891A89B288
:104550004FF4FA42B2FBF1F11F4A0909521E1170E1
:104560005521521E11701849087010BD00F01F022D
:104570000121914040094FF0E02202EB8000C0F899
:104580000011704700F01F020121914040094FF0D7
:10459000E02202EB8000C0F88011704700F01F029B
:1045A0000121914040094FF0E02202EB8000C0F869
:1045B0008012704738011000562B0120822C0120F8
:1045C000E22901201E2A01208C011000480500224A
:1045D0002E00002000100020F4FF010010B501465D
:1045E0001822FD48FEF7C3FF8021BDE810400120DE
:1045F000FBF744BF30B599B004466846FEF7E6FFC6
:104600000020012C04D0022C04D0032C0AD00DE091
:10461000012100E008218DF81200ADF800108DF89E
:10462000100003E04FF40070ADF80000BDF8020088
:10463000AFF2570140F4A670E74D0191ADF80200CA
:1046400003246846FDF73FF917AB002280210120C3
:10465000FBF764FF80210120FBF73FFF287800284B
:1046600004D0FEF7FCF8641E002CEADC19B030BD63
:104670002DE9F84F4FF0000BFEF7C7FC0446FEF79C
:10468000D4FC80464FEA54092821D4480EF0F9FCA6
:104690002821D3480EF0F5FC00274FF0010A032033
:1046A000FFF7A8FFCC48002426468068CDF800001C
:1046B0000AFA06F010EA090F2FD000250AFA05F0D1
:1046C00010EA080F26D029463046FEF77AFDC54984
:1046D000DFF808C309683CF91430B1F83427991A97
:1046E000009B33F91430A3EB020200D54942002AA3
:1046F00000DA5242914204DBB9492CF8143021F817
:1047000014003F2805D2401CC2B229463046FEF7AD
:104710006EFD641C6D1C202DD0DB761C272EC7DBA4
:10472000FDF705FC7F1C402FB9DB01200090032022
:10473000FFF760FF00273E464FEA0A0404FA06F03E
:1047400010EA090F17D0002504FA05F010EA080F47
:104750000ED0A348294610F817008246024630467C
:10476000FEF745FDBAF13F0F01D3002000907F1CFA
:104770006D1C202DE8DB761C272EDFDB009810B99E
:104780000520FEF790F8FDF7D2FB0320FFF732FF7C
:104790009449914809688368002091F8E82100BF96
:1047A00004FA00F52A421CD033F91050002D02DC27
:1047B0004BF4007005E040F6FF76B54203DB4BF4A6
:1047C0008070834610E0B1F83477B1F8BE6107EB32
:1047D000060CAC4505DABF1BAF4202DD0EB14BF44F
:1047E000806B401C0628DBDB5846BDE8F88F2DE9BE
:1047F000F0477C4E306890F831177B480A0604D4A5
:1048000001F00F010170BDE8F0870021724F0170C7
:104810000C460D4681460320FFF7ECFE326800206F
:10482000BB6892F8151792F816C701FB0CF106E069
:1048300033F910C0B2F83287C445E4DB401C814232
:10484000F6DC0F2C06D2641CE4B26D1C89F8004023
:10485000102DE0DBBDE8F0470620FEF724B82DE977
:10486000FC5F4FF0000BFEF747FC0446FEF766FCCA
:104870005E49074600200860486088605C494FEA4E
:10488000540980460860486088604FF0010A0220A1
:10489000FFF7B0FE5048002426460069CDF800001E
:1048A0000AFA06F010EA090F38D000250AFA05F1D5
:1048B000394230D04B490AFA04F0096891F8E811FE
:1048C000014228D029463046FEF77BFC4549474A3D
:1048D000096832F91430B1F80AC2B3EB0C01009B3D
:1048E00033F91430A3EB0C0C00D54942BCF1000F96
:1048F00001DACCF1000C614504DB3D4922F81430AB
:1049000021F814003F2805D2401CC2B22946304687
:10491000FEF76DFC641C6D1C202DC7DB761C272E5A
:10492000BEDBFDF704FB08F10108B8F1400FAEDB78
:10493000012000900220FFF75DFED0460026DFF840
:10494000A4A0354608FA05F010EA090F1ED000248D
:1049500008FA04F1394216D0DAF8001008FA06F025
:1049600091F8E81101420ED02148214610F81600B6
:10497000019002462846FEF73AFC01983F2801D3F1
:1049800000200090761C641C202CE1DB6D1C272D80
:10499000D8DB009810B90520FDF785FFFDF7C7FAB1
:1049A0000220FFF727FE0C4812490069FEF7E7FBDB
:1049B000DAF800400F4D002094F8E831424600BF7D
:1049C00002FA00F10B422DD035F91010002913DC4A
:1049D0004BF0020016E00000B83E1000F02E01205F
:1049E000402F012038011000F0FF0100F097012056
:1049F000FC9701203A2E012040F6FF76B14203DBFE
:104A00004BF00100834610E0B4F80A72B4F8BE61BE
:104A100007EB060C8C4505DABF1B8F4202DD0EB199
:104A20004BF0040B401C0628CADB5846BDE8FC9F2F
:104A30002DE9F05FE2490A6892F830010506E14885
:104A4000037803F00F0407D492F83E1121F00F0110
:104A500021430170BDE8F09F0025DFF86CA3834679
:104A600004702E46012789460220FFF7C3FDD7496F
:104A7000DAF81000FEF783FBD9F80020D34B0020B2
:104A800092F8E81107FA00FC11EA0C0F05D033F98F
:104A900010C0B2F80882C445DCDB401C0628F1DBFC
:104AA0000F2D08D26D1CEDB244EA0510761C8BF870
:104AB0000000102ED8DBBDE8F05F0420FDF7F3BE48
:104AC000F0B5C14900204D68BD490A68537D117D8C
:104AD0005B1C01FB03F41CE035F91130002B02DCF8
:104AE00040F0200014E040F6FF76B34202DB40F0D5
:104AF00010000DE0B2F83471B2F8BE6107EB060C9D
:104B00009C4505DABF1B9F4202DD0EB140F040001C
:104B1000491C8C42E0DCF0BD024618215FF0010028
:104B200000FA01F3134201D1491EF9D5491C88400E
:104B3000104370472DE9FE4FFEF734FB0446FEF7A5
:104B400037FB9F4D0746286890F84507000603D5B8
:104B50002046FFF7E1FF04464FEA540B4FF4F061A3
:104B60009B480EF08EFA98484FF0270980211830A4
:104B70000EF0A9FA002001900120FFF73BFD9248BA
:104B8000D0F804A08E480068057D01200024029022
:104B90005FE0012000FA04F111EA0B0F58D0002663
:104BA000012000FA06F818EA070F46D086481830A8
:104BB00050F8240010EA080F3ED131462046FEF797
:104BC00000FB00907E483AF915100068B0F83401F7
:104BD000814225DC7E4B33F91520121AA1EB00002F
:104BE00000D55242002800DA4042824209DC009897
:104BF0003146401EC0B2024600902046FEF7F7FA4A
:104C000001E023F815107349009821F815006E484B
:104C1000183050F8241041EA080140F824100BE045
:104C200000983146401CC2B22046FEF7E0FA6848C0
:104C30003AF8151020F815106D1C761C202EAFDBED
:104C40006148183050F82400B84201D0002002908A
:104C5000641C4C459DDB029830B9FDF768F901985A
:104C6000401C0190402887DB55484FF0010A002581
:104C70000068067D1DE0012202FA05F010EA0B0F24
:104C800016D000240120A04038420ED051482146C1
:104C900010F81600804602462846FEF7A8FAB8F13A
:104CA0003F0F01D34FF0000A761C641C202CE9DB77
:104CB0006D1C4D45DFDBBAF1000F02D10320FDF77B
:104CC000F2FDFDF734F90120FFF794FCBDE8FE4F3B
:104CD000F6E62DE9F05F3A4A116891F83001C40711
:104CE0003848037803F0F00514D0057000264B7D9A
:104CF0000C7DDFF8D4A05B1CB046914604FB03F7A3
:104D000083460120FFF776FC2046DAF80420D9F824
:104D100000100EE091F83E1101F00F0129430170DF
:104D200098E600BF32F91030B1F832C16345F7DBC5
:104D3000401C8742F6DC0F2E0AD2761CF6B245EAFA
:104D4000060108F101088BF80010B8F1100FD8DB4C
:104D5000BDE8F05F0220FDF7A6BD70B501244FF459
:104D600004614FF4F8300EF0AEF9FDF7E0F8FFF70C
:104D7000B0FFFFF7DFFE124D44EA0064286890F8A8
:104D8000E80128B1FFF754FEFFF769FD44EA00444B
:104D9000FFF72DFDFFF76CFC0A482A68401D0178DB
:104DA00092F8FB2701F0F00102F00F0211430170AD
:104DB0000948FEF770FA2046BDE8704005F041BD95
:104DC00038011000F6FF0100B83E10003A2E012015
:104DD000C89F012048A701208C2210002DE9F04F28
:104DE0000020FF4D04460246012140F6FF7BFD4BAB
:104DF000D5F814906E681B6801FA02F737421CD090
:104E000039F914A0BAF1000F02DC40F0200013E0E1
:104E1000DA4502DB40F010000EE0B3F836C1B3F81B
:104E20004171E6460CEB0708D04503DBAEEB070CFF
:104E3000D44501DD40F04000641C521C202ADBD325
:104E40000024AF69AE68224601FA02F535421AD055
:104E500037F91450002D02DC40F0200012E05D45CF
:104E600002DB40F010000DE0B3F83A81B3F8439153
:104E700008EB090CAC4503DBA8EB090CAC4501DDE4
:104E800040F04000641C521C202ADDD3BDE8F08FA6
:104E900010B501461822D448FEF769FB8021BDE811
:104EA00010400120FBF7EABA30B599B06846FEF72A
:104EB0008DFBCC484FF02004006890F80A07C0072B
:104EC00009D0FEF76BFD012834D0BDF8020040F098
:104ED0000200ADF80200ADF8004000208DF840005F
:104EE0008DF83F00BE48416849000C9180680D90E4
:104EF000BDF80200AFF2670140F4A670BA4D01910F
:104F0000ADF8020003246846FCF7DDFC17AB002275
:104F100080210120FBF702FB80210120FBF7DDFA55
:104F20002878002804D0FDF79AFC641E002CEADCE7
:104F300019B030BD0620ADF80000CEE72DE9F84FDE
:104F40002121AA480EF0BFF8A848302121300EF0E8
:104F500098F8FDF7B8F8FDF757F8042003254FF04F
:104F600000084FF001099E4CDFF878A2CDF8000050
:104F7000FFF79AFFE8072BD04FF0000B5F465E4625
:104F8000616809FA06F008421AD040F6AC013046D2
:104F9000FEF749F9616931F91720DAF80010B1F824
:104FA00045118A420BDA3F2809D200994FF0010BD4
:104FB0000844C1B240F6AC023046FEF751F97F1CFE
:104FC000761C202EDCD3BBF1000F01D125F00105AA
:104FD000A8072BD54FF0000B5F465E46A16809FA83
:104FE00006F008421AD040F6CD013046FEF71BF914
:104FF000A16931F91720DAF80010B1F847118A4297
:105000000BDA3F2809D200994FF0010B0844C1B2D6
:1050100040F6CD023046FEF723F97F1C761C202E89
:10502000DCD3BBF1000F01D125F0020545B1FDF73E
:105030004AF8FCF7E9FF08F10108B8F1640F97DBC3
:1050400003254FF0000800BFFFF72EFFE80729D027
:105050004FF0000B5F465E46616809FA06F00842B1
:1050600018D040F6AC013046FEF7DDF8616931F941
:105070001720DAF80010B1F845118A4209DD40B175
:10508000401EC1B24FF0010B40F6AC023046FEF7B5
:10509000E7F87F1C761C202EDED3BBF1000F01D178
:1050A00025F00105A80729D54FF0000B5F465E46A5
:1050B000A16809FA06F0084218D040F6CD01304642
:1050C000FEF7B1F8A16931F91720DAF80010B1F84C
:1050D00047118A4209DD40B1401EC1B24FF0010BB9
:1050E00040F6CD023046FEF7BBF87F1C761C202E22
:1050F000DED3BBF1000F01D125F00205002D08D051
:10510000FCF7E1FFFCF780FF08F10108B8F1640F3C
:105110009ADBBDE8F88F2DE9F041354D00202121C3
:10512000287032480DF0CFFF3048302121300DF08B
:10513000A8FFFCF769FFFCF7C6FF294E002700BF58
:10514000FFF7B2FED6E904320024204606E000BF95
:1051500032F91010A14200DD0C46401C9842F7DBEA
:105160000020F368B26905E032F91010A14200DDB9
:105170000C46401C9842F7DB002C09DC28780F28ED
:1051800003D8401C2870FCF79EFF7F1C202FD7DB24
:1051900040F6FE70844206DD2878401E2870BDE887
:1051A000F041FCF790BFBDE8F0812DE9F05F0C4EB7
:1051B00000240E4FD6F804306C3F254621460120CE
:1051C00000FA01F21A4203D07A5CA24200D91446D6
:1051D000491C2029F4D3054FB268403F002109E063
:1051E000D001100038011000503F1000ACF8010051
:1051F000F5FF010000FA01F3134203D07B5CAB42E0
:1052000000D91D46491C2029E9D3DFF804A40AF17E
:10521000010B8AF800408BF80050FE4F386890F878
:105220000A07C10705D0800703D5FEF798FB0128C0
:1052300011D0F748F649801E491E007809782044AD
:105240002944FF2288427AD2081A2044FF2877D8BE
:105250008AF8000099E0EF48006800F2597002797E
:10526000C17802F03F0201EB02268279417902F017
:105270003F0201EB0228027BC17A02F03F0201EB00
:105280000227827B417B007802F03F0201EB02297A
:1052900040060FD5DE48801E017806EB080004EBBF
:1052A00040000844DA49491E0A7807EB090105EB7A
:1052B000410110E006EB0800400000EB4401D44837
:1052C000801E0078084407EB0901490001EB450204
:1052D000CF49491E09781144FDF7CBFDCD49096836
:1052E00001F20B72B1F80B37834201D2A1F80B0720
:1052F00091F80A07400720D591F85907400620D5B4
:1053000070004342C8F1000091F80B1703EB400016
:105310000144BF48801E0078091A8AF800107800FE
:105320004142C9F1000001EB400011780144B84846
:10533000401E0078081A8BF80000BDE8F09F27E0B7
:105340001DE0B348B1F80B17801E037806EB080088
:105350001844404201EB4000C0F34701AC488AF8D2
:105360000010401E017807EB0900084411884042F4
:1053700001EB4000C0F347018BF80010DDE78AF82D
:105380000020306840F0800030608BF80050D4E797
:1053900081420FD2401A2844FF2802D88BF800001F
:1053A00005E08BF80020306840F0800030608AF81B
:1053B0000040C2E78AF80040E7E72DE9F04100200D
:1053C000954C964B934A01214FEA00055F6801FA1C
:1053D00000F63E4209D01768265C97F84A71BE4233
:1053E00002D9F61B265400E02554401C2028EDD39A
:1053F000894C2C345FF000009F6801FA00F63E42B1
:1054000009D01768265C97F84A71BE4202D9F61B8C
:10541000265400E02554401C2028EDD3FFF7C5FE9C
:10542000BDE8F041FCF72ABE2DE9F84F7A487A4DE5
:1054300006462C352C210DF046FE402128460DF065
:1054400042FEFFF7B2FEFCF73EFEFCF717FE04201B
:10545000032400274FF00109DFF8C0A1DFF8B4B141
:10546000CDF80000FFF720FDE00728D04FF0000C3A
:10547000624660464FEA0A0309FA00F1D3F8048055
:1054800011EA080F13D0596931F91280DBF80010C6
:10549000B1F83811884509DA315CDDF800804FF049
:1054A000010C4144FF2900DDFF213154521C401CF6
:1054B0002028E1D3BCF1000F01D124F00104A007A2
:1054C00027D54FF0000C62466046534609FA00F1BA
:1054D000D3F8088011EA080F13D0996931F91280C6
:1054E000DBF80010B1F83C11884509DA295CDDF8D9
:1054F00000804FF0010C4144FF2900DDFF212954B9
:10550000521C401C2028E1D3BCF1000F01D124F033
:10551000020444B1FFF749FEFCF7D5FDFCF7AEFDF0
:105520007F1C642F9EDB03245FF00007FFF7BCFCA9
:10553000E00724D04FF0000E714670465246DC461C
:10554000D2F8048009FA00F313EA080F0FD0536968
:10555000DCF8008033F91130B8F83881434505DDB7
:10556000335C1BB15B1E4FF0010E3354491C401CD1
:105570002028E5D3BEF1000F01D124F00104A007DB
:1055800025D54FF0000E7146704652464FEA0B0C7F
:10559000D2F8088009FA00F313EA080F0FD09369D4
:1055A000DCF8008033F91130B8F83C81434505DD63
:1055B0002B5C1BB15B1E4FF0010E2B54491C401C91
:1055C0002028E5D3BEF1000F01D124F00204002C05
:1055D00008D0FFF7EAFDFCF776FDFCF74FFD7F1CD6
:1055E000642FA3DB95E50B4930B40968002003461E
:1055F00091F83021920714D5054A91F84941921E3D
:1056000001201578A5420BD9A5EB0404147008E01D
:10561000F9FF01003801100040F80100D00110002E
:10562000137091F8302152070BD58D4A91F849112A
:1056300040F0020014788C4202D9611A117000E027
:105640001370002801D030BCAFE530BC70472DE9A5
:10565000F04784490024844D0868274690F830219B
:10566000920702D501242F7002E090F83F212A70A2
:10567000894690F830117A4E490703D544F0020468
:10568000377002E090F840013070002C74D02C216B
:1056900076480DF018FD754840212C300DF013FDB3
:1056A00071482121801E077070486C300DF00BFD91
:1056B0006E4830218D300DF0E4FC6949FF20891CD3
:1056C0000870491E0870FCF7D9FCFCF79DFCFCF73C
:1056D000FAFC4FF0100A0027DFF89481FFF7E4FB93
:1056E000E00723D0D8E9043C0020014606E000BFD3
:1056F0003CF91120824200DD1046491C9942F7DB3B
:10570000D9F80010B1F83621824202DA2878401E1A
:1057100008E0B1F84B11814206DB28785044FF289D
:1057200000DDFF20287001E024F00104A00726D549
:1057300000200146D8F80CC0D8F8183006E000BFA9
:1057400033F91120824200DD1046491C6145F7DB28
:10575000D9F80010B1F83A21824202DA3078401EBE
:1057600008E0B1F84B11814207DB30785044FF2844
:1057700000DDFF20307002E00AE024F00204002C7B
:1057800006D0FFF712FDFCF79EFC7F1C202FA5DB47
:10579000BDE8F08770B5364C00202060FDF751FC65
:1057A0006060FDF779FCA0606068042140086060DB
:1057B000201DFDF747FB2061042104F10800FDF7DF
:1057C00041FBE060FFF770FB2A4E2169F06800EBB7
:1057D00041026261E26802EB410100EB4100A0611D
:1057E000FFF735FFFFF7FFFE1E4D286890F83001E8
:1057F000800603D5FFF718FEFFF7DFFD286890F855
:105800003001000701D5FFF786FC286890F83001C9
:10581000C00601D5FFF792FBFCF755FCFFF744FBF0
:10582000F068216900EB41026261E26802EB41012C
:1058300000EB4100A061FFF7D1FA2168014308485D
:1058400021602A68C01C037892F8FB2763F30302E7
:105850000270BDE8704041F0020004F0F2BF0000A9
:10586000F8FF010038011000F7FF010040F80100C7
:10587000D0011000503F100010B501461822944886
:10588000FDF775FE8021BDE810400120FAF7F6BD56
:10589000F0B5904D06460C4628684FF0FF3199B0A0
:1058A00090F8B10000F00F00401C8140CF436846E3
:1058B000FDF78CFE0120ADF80000ADF8024028682D
:1058C00010F8F91F8DF8131044F00501ADF802101F
:1058D0000297ADF81660AFF25F01019141788DF843
:1058E000141080787A4D8DF81A0003246846FBF76F
:1058F000EAFF17AB002280210120FAF70FFE80217A
:105900000120FAF7EAFD2878002804D0FCF7A7FF69
:10591000641E002CEADC19B0F0BD2DE9F0476D4D96
:105920004FF00009DFF8A881286800F5707004784E
:10593000467887781AE049462046FFF7A9FFD8F84D
:10594000040009F043F80146286890F8F82012F0A6
:105950000F0000D1012012094A43B2FBF0F082B2DD
:105960002146302004F0B0FFE01984B2B442E2DDF9
:10597000BDE8F0872DE9FF5F4FF6FF764FF0000A94
:1059800093460F46804634465546DFF848911BE063
:1059900038F815005146FFF77BFF4D48406809F085
:1059A00015F8D9F8001091F8F82012F00F0100D185
:1059B000012112094243B2FBF1F080B2A04202D2AF
:1059C00038F8156004466D1CBD42E1DBABF80060A1
:1059D00003980480BDE8FF9F2DE9F0413D4E054648
:1059E0008846306888B090F8D12002F00F01C2F3E9
:1059F0000214491C641C0A2900DD0A21022C00DD66
:105A00000224D23006AB05AAFFF7B4FF326892F841
:105A1000D00080071BD5BDF814600121E632ADF837
:105A2000006000204FF4803C6F4607E0135633447B
:105A3000634502D227F81130491C401CA042F5DB17
:105A4000002904DD06AB05AA3846FFF793FFBDF831
:105A500014002880BDF81810A8F8001008B0BDE8A0
:105A6000F0817CB50020FAF7FAFD1B4C01A96846CD
:105A70006588FFF7B1FF174E3068B0F8E810BDF841
:105A80000400814201D9218000E02080BDF800009F
:105A900060800020FAF7FEFDBDF80000854207D0C7
:105AA000306890F8D000400702D56088FEF7C8FB48
:105AB0000A49012008700A4908700A4908700A4911
:105AC0000870BDF800202946092004F0E0FE7CBDE6
:105AD000683F100038011000A42310004E01100090
