:100000005555AAAA6501000000000000000000008C
:10001000248100000000000000000000024A742556
:1000200000011000E9070000790200008F020000C3
:10003000A5020000BB020000D10200000000000089
:10004000000000000000000000000000312400005B
:100050003524000000000000E70200003724000003
:100060003924000063220000912400009D2200003A
:100070005324000055240000592400006724000088
:10008000F902000083240000852400008924000078
:100090008B240000932400000000000000000000FA
:1000A00095240000972400000000000000000000DC
:1000B00000000000992400009B240000B1220000F1
:1000C0009D240000AB240000AD240000C5240000E6
:1000D000C724000000000000000000000000000035
:1000E0006501000000F002F800F05AF80AA090E85C
:1000F000000C82448344AAF10107DA4501D100F0E3
:100100004FF8AFF2090EBAE80F0013F0010F18BF55
:10011000FB1A43F0010318470CEE00002CEE000020
:100120000A444FF0000C10F8013B13F0070408BF1D
:1001300010F8014B1D1108BF10F8015B641E05D0BB
:1001400010F8016B641E01F8016BF9D113F0080F70
:100150001EBF10F8014BAD1C0C1B09D16D1E58BF02
:1001600001F801CBFAD505E014F8016B01F8016B39
:100170006D1EF9D59142D6D37047000000230024AC
:1001800000250026103A28BF78C1FBD8520728BFA7
:1001900030C148BF0B6070471FB51FBD10B510BD03
:1001A000DFF80CD0FFF7F8FF02F08FFA0EF0D2FC68
:1001B0000001100003B4FFF7F1FF03BC0EF0D2FC06
:1001C0000A484FF0FF0101704FF0000080F31188E2
:1001D0004FF0000080F3098805484FF002010170DC
:1001E00062B604484FF080510160704722ED00E094
:1001F0000001100004ED00E002484FF08051016062
:100200007047000004ED00E04FF0200080F31188FB
:10021000EFF3098058B10E49096820E9F00F8860B2
:1002200000B50B48006800F0F2F85DF804EB0848F0
:1002300008490A68026000688168B1E8F00F81F33C
:1002400009884EF0040E4FF0000080F311887047CB
:100250000401100008011000EFF311804FF020019D
:1002600081F31188704700004FF0000080F311887F
:100270007047000062B6704772B6704740BA704768
:10028000C0BA7047401E0028FCDC704700BE7047B3
:1002900040BA7047C0BA70471EF0040F0CBFEFF3AE
:1002A0000880EFF309804FF0010102F032B81EF030
:1002B000040F0CBFEFF30880EFF309804FF0020149
:1002C00002F027B81EF0040F0CBFEFF30880EFF325
:1002D00009804FF0030102F01CB81EF0040F0CBFA0
:1002E000EFF30880EFF309804FF0040102F011B83A
:1002F0001EF0040F0CBFEFF30880EFF309804FF0FE
:10030000050102F006B84FF0000000B502F0D3FE80
:100310005DF804EBFFF778BF1EF0040F0CBFEFF39E
:100320000880EFF309804FF0000101F0F2BF0000F8
:10033000194910B5012008701849002008601849B3
:100340000860184908601849086000F0B3F900F027
:1003500045F900F063F8002010BD10B5114800F019
:1003600024F90E490968884209D00D4908600A48F5
:100370000078022803D1BDE81040FFF73DBF10BD53
:1003800010B5FFF7EAFF044902200870FFF718FFD5
:100390004FF0FF3010BD00000001100004011000FC
:1003A000080110000C0110001001100070B50D467E
:1003B0000446C1698068CC220EF0CFFAE169A068DA
:1003C000084440384FF08071C163216A8163002185
:1003D00041630163C1628162C0E908514FF00B3192
:1003E000C1614FF00A3181614FF0093141614FF035
:1003F000083101614FF00731C1604FF00631816073
:100400004FF0053141604FF00431016070BD8269E9
:100410008168914201D802F0FCB9704710B54FF4E1
:10042000B4714C480EF0C3FA002010BD70B50546FB
:1004300000EBC501474800EB8104FFF70DFF0646BE
:10044000207828B13046FFF70FFF6FF0010070BD34
:100450000320207000206560206204F11C0000F081
:100460007DF83046FFF700FF002070BD2DE9F04118
:100470000F46384900EBC000012501EB800400263F
:10048000FFF7EAFE8046206A3843206204F11C0030
:10049000074600F08AF80BE0216A026C114202D094
:1004A00000F060F901262946384600F074F86D1C0A
:1004B0000028F1D1012E01D1FFF74FFF4046FFF791
:1004C000D3FE0020BDE8F08170B50D46214900EB58
:1004D000C00001EB8004FFF7BFFE216AA94321623F
:1004E000FFF7C2FE002070BD70B50C46194900EB45
:1004F000C00001EB800500202060FFF7ADFE296AF7
:100500002160FFF7B1FE002070BD2DE9F0410D46DE
:10051000104900EBC0001F46904601EB8004FFF736
:100520009BFE06460C4800680564216A294203D1F7
:1005300004F11C0100F028F9206A28403860B8F165
:10054000010F02D1206AA84320623046FFF78CFEDB
:100550000020B7E7540310000401100000210160DF
:100560000846704730B50A6812B10B46C46B09E003
:1005700000220860C0E903210BE000BF02F10C0378
:10058000D26812B1D56BA542F8DC1A68C0E9032124
:100590001860002030BD0068002201E0C068521CD5
:1005A0008A4201DA0028F9D1704700687047026971
:1005B0000AB1116831B96FF00400704701F10C0203
:1005C000C96839B18142F9D1C9681160002101615E
:1005D000084670476FF003007047000010B54FF4F5
:1005E000C87132480EF0E3F9002010BD2DE9F0414A
:1005F000884605462D4900EB8500174601EBC004EF
:10060000FFF72AFE0646207830B13046FFF72CFE71
:100610006FF00100BDE8F08102202070E761142234
:10062000414604F1080065600EF052F90020206296
:1006300004F12400FFF792FF3046FFF715FE00207B
:10064000E8E770B5194900EB800001EBC004FFF743
:1006500003FE0546D4E90701814205DB144804F195
:100660002401006800F090F8206A401C20622846AF
:10067000FFF7FAFD002070BD70B50C4900EB80005B
:1006800001EBC004FFF7E8FD0546206A08B1401EF3
:10069000206204F12400FFF788FF10B1606A00F0C7
:1006A00011F82846FFF7E0FD002070BDBC041000E3
:1006B0000401100010B54FF42A7140480EF077F98C
:1006C000002010BD10B5044690F8380002280BD069
:1006D0002046FFF76CFF022084F838003849204696
:1006E000FFF740FFFFF739FE002010BD2DE9F05F56
:1006F0008B460646314900EB06109046DDE90AA913
:1007000011F820201D461AB16FF00100BDE8F09FDE
:1007100001EB8004FFF7A0FD074601202070C4E92B
:100720000165C4E90585C4E907A91422594604F105
:1007300024000EF0CDF8002084F8370084F838004B
:100740006169E0602061C4E90F1020460C99FFF751
:100750002DFEA0602046FFF7B5FF3846FFF784FD69
:100760000020D3E710B5044690F83800022809D0DD
:100770002046FFF71CFF022084F83800104920466D
:10078000FFF7F0FE002010BD70B5044690F8380069
:100790000D4602280BD12046FFF709FF032084F8FD
:1007A000380029462046FFF7DDFEFFF7D6FD002082
:1007B00070BD044800684068704700004C06100097
:1007C0000C01100004011000F0B58446002004461E
:1007D0000C4F14E05CF824600323DD0046FA05F2B8
:1007E00080EA02600825002802DA87EA400000E07B
:1007F00040006D1E002DF6DC5B1EEED5641C8C42A5
:10080000E8DBF0BD1B00008012488047124800471B
:10081000FEE7FEE7FEE7FEE7FEE7FEE7FEE7FEE7B0
:10082000FEE7FEE7FEE7FEE7FEE7FEE7FEE7FEE7A0
:10083000FEE7FEE7FEE7FEE7FEE7FEE7FEE7FEE790
:10084000FEE7FEE7FEE7FEE7FEE7FEE7FEE7FEE780
:10085000FEE7000095080000C50000001F48006882
:100860004FF00051002891F8210000F01C000DD03D
:10087000042805D0082805D00C2805D096200CE0C7
:1008800011200AE0252008E04B2006E004280BD0C8
:1008900008280BD00C280BD07020401E01F82C0F1C
:1008A00008700120C87170470C20F6E71B20F4E7A0
:1008B0003720F2E770470A4993200870CEE70849CD
:1008C0000B200870CAE70548006818B9044800788A
:1008D000932801D000207047012070473404002283
:1008E0002100002010B5042000F094F9052000F04C
:1008F00091F9062000F08EF9072000F08BF908200E
:1009000000F088F9182000F085F9192000F082F92C
:100910001A2000F07FF9D14A00201060CF4B4033FD
:100920001860CE4918390860CC4908310860CC49B4
:100930000870CA4C143C2060C84C0C3420604870CD
:10094000C64C103C2060C54C103420608870C34CED
:100950000C3C2060C14C14342060C870BF4C083C73
:100960002060BE4C183420600871BC4C28342060D4
:10097000C871241D20600872241D20604872012067
:1009800010601860B7480078552803D0B549192081
:10099000491C08700621042000F054F906210520A6
:1009A00000F050F90621084600F04CF90621072016
:1009B00000F048F90421082000F044F9062118202D
:1009C00000F040F90621192000F03CF906211A2018
:1009D00000F038F9042000F029F9052000F026F98C
:1009E000062000F023F9072000F020F9082000F08D
:1009F0001DF9182000F01AF9192000F017F91A2033
:100A000000F014F9042000F0F9F8052000F0F6F8E1
:100A1000062000F0F3F8072000F0F0F8082000F0BE
:100A2000EDF8182000F0EAF8192000F0E7F8BDE82A
:100A300010401A2000F0E2B800EB80008749400027
:100A4000002218390A60864A0C3A107001200860AA
:100A500070478249002018390860704700EB800019
:100A60007E494000002214390A607D4A0B3A10701A
:100A700001200860704779490020143908607047E8
:100A800000EB800075494000002210390A60744A6A
:100A90000A3A107001200860704770490020103930
:100AA0000860704700EB80006C49400000220C3960
:100AB0000A606B4A093A1070012008607047674964
:100AC00000200C390860704700EB8000634940004B
:100AD000002208390A60624A083A10700120086052
:100AE00070475E4900200839086070475B49002262
:100AF00028310A605A4A521F10700120086070475E
:100B000000EBC00101EB00106FF00A0101EB800067
:100B1000544900B5491C544B0978B0FBF1F0401E14
:100B200080B2FF280CD9010A1970494200EB01205C
:100B30005870FF20FFF7DAFF1878401E187000BDCC
:100B4000002119705970C0B25DF804EBCEE743493B
:100B50000020283108607047434B10B51978587849
:100B600051EA000207D051B1FF20FFF7BFFF18780C
:100B7000401E187010BDBDE8104008F0E4B8FFF743
:100B8000B5FF0020587010BD00EBC00101EB001054
:100B90006FF00A0101EB800032490022491C0978FC
:100BA00090FBF1F02D492C310A602D4A401E121F96
:100BB0001070012008607047284900202C3108601F
:100BC000704700EBC00101EB00106FF00A0101EB70
:100BD000800024490022491C097890FBF1F01F494C
:100BE00030310A601E4A401ED21E1070012008607B
:100BF00070471A49002030310860704700F01F022A
:100C00000121914040094FF0E02202EB8000C0F842
:100C10000011704700F01F020121914040094FF080
:100C2000E02202EB8000C0F88011704700F01F0244
:100C30000121914040094FF0E02202EB8000C0F812
:100C4000801270474907090E002803DA00F00F00F0
:100C5000064A00E0064A8154704700001C05002245
:100C60003A000020F3FF01001401100014ED00E031
:100C700000E400E059480121016000210160704753
:100C800057480121016000210160704710B5002024
:100C900000F08BF8534800220260FFF7F1FFFFF7E6
:100CA000E9FF514802605149A0200870002000F07F
:100CB00088F8BDE81040002000F06BB84A480121D8
:100CC0001C38016000210160704710B50446002007
:100CD00000F06BF84348414904600120086000209F
:100CE00000F06FF8BDE81040002000F052B830B5B9
:100CF0003C4889B00468002C11D0202168460DF0D2
:100D000056FE3B4800783A4B00216A465B1C02E0E5
:100D1000CD5C5554491C8142FADB1146A04709B00D
:100D200030BD2E4901201C39086070473048203002
:100D300000782F4921310978401A00F03F007047B0
:100D40002C4902780A7042784A7082788A70C27898
:100D5000CA7002790A7142794A7182798A71C079BE
:100D6000C871704724480068417882784FF000507D
:100D7000437A0374214B1B78437443891B0A8374A1
:100D80004389C37401754275C1798175017AC17552
:100D9000704700F01F020121914040094FF0E0220E
:100DA00002EB8000C0F80011704700F01F02012123
:100DB000914040094FF0E02202EB8000C0F8801122
:100DC000704700F01F020121914040094FF0E022DE
:100DD00002EB8000C0F88012704700005C840022A3
:100DE000A0000022180110007C04002200E400E0B2
:100DF00000040020000200202801100074011000EF
:100E000010B5092000F02AF80A2000F027F8092080
:100E100000F030F80A2000F02DF80521092000F03C
:100E200035F805210A2000F031F81E487F21417075
:100E300081700171002100F848191B49096891F877
:100E4000C810CA0709D08A0707D510F84A2FC1F37E
:100E50008203012199408A43027010BD00F01F02F5
:100E60000121914040094FF0E02202EB8000C0F8E0
:100E70008011704700F01F020121914040094FF09E
:100E8000E02202EB8000C0F8801270474907090E8B
:100E9000002803DA00F00F00044A00E0044A8154FD
:100EA00070470000480000202801100014ED00E009
:100EB00000E400E07047D4484FF48051018000BF47
:100EC00000BF00BF00BF00BF00BF00BF00BF00BF2A
:100ED00000BF4FF4C051018000BF00BF00BF00BF82
:100EE00000BF4FF440610180704710B5C64C072029
:100EF000A41E60700020207044F2C000608000BF1B
:100F000000BF00BF4CF2C000608000BF00BF00BF48
:100F10004CF2E00060800920FFF7B4F944F2E000F1
:100F2000608000BF00BF00BF4FF48040608010BDF4
:100F3000F0B500252E464FF00054E02717E000BF23
:100F4000883401F03F0160702170678000BF00BFEE
:100F500000BFD4F808C043F825C06680883C00BFB5
:100F60006D1C521E491C3F2901D9401CC0B2002AE9
:100F7000E6DCF0BD70B5A44C2126268000BF00BF82
:100F800000BF00BF00BF40F02105258000BF00BFAB
:100F900000BF00BF00BF44F22101084320800420AD
:100FA000FFF770F9258000BF00BF00BF00BF00BF82
:100FB000268000BF00BF00BF00BF00BF0020208010
:100FC00000BF00BF00BF00BF00BF70BD70B50446CA
:100FD0008D48002505808D4E0120306000F000F91D
:100FE000FFF783FF00F0ECF85C20FFF7C3FF234618
:100FF000012202210720FFF79BFF231D012203216D
:101000000620FFF795FF04F10803012204210520C3
:10101000FFF78EFF04F10C03012203210720FFF7E5
:1010200087FF04F11003012204210720FFF780FF4E
:1010300000F0C6F8FFF759FFFFF73DFF356070BDC0
:1010400070B50446704800250580704E0120306060
:1010500000F0C6F8FFF749FF00F0B2F85C20FFF798
:1010600089FF2346012208210020FFF761FF231D8D
:10107000012209210020FFF75BFF04F10803012290
:101080000A210020FFF754FF04F10C0301220B2179
:101090000020FFF74DFF04F1100301220C21002076
:1010A000FFF746FF04F1140301220D210020FFF792
:1010B0003FFF00F085F8FFF718FFFFF7FCFE3560F3
:1010C00070BDF0B54FF0000C059C0CB14FF0800CDA
:1010D0004E4C0026C5B24FF00057803C28E000BFC0
:1010E00087F889504FEAC05EBEF1000F01F03F0E55
:1010F0004EEA0C0E01DA4EF0400E87F888E053F805
:1011000026E0C7F88CE04FF0010EC4F8B0E04FF0D5
:10111000000EC4F8B0E0491CC9B2402902D36D1CCE
:10112000EDB20021D4F8C0E0BEF1000FFAD1761C78
:101130009642D5DBF0BD4FF0005282F889000023C3
:1011400009B1802002E0C00503D5402082F8880064
:1011500001E082F888302D4801218038C0F8AC10B9
:10116000C0F8AC30D0F8C0100029FBD17047F8B5FA
:101170000C4605464FF4F47600213046FFF7DBFFBE
:101180000020014600902B4622463046FFF799FF8B
:10119000F8BDF8B50C4605464FF4F8760021304608
:1011A000FFF7C9FF00214FF4FC70FFF7C4FF0020D8
:1011B000014600902B4622463046FFF782FFF8BDDD
:1011C00010B5114C4FF4804020800420FFF75AF8EE
:1011D0000020208000BF00BF00BF00BF00BF10BDC7
:1011E00010B5094C4FF4C050208000BF00BF00BFB5
:1011F00000BF00BF4FF4805020803520FFF742F839
:101200000020208010BD00008A00002080100022F5
:10121000F8B5FC4C0026354626700120A66000F08B
:1012200083FC0C2000F080FC032000F07DFC1720E4
:1012300000F07AFC012000F083FC0C2000F080FC20
:10124000032000F07DFC172000F07AFC00F025FE62
:101250006A460221EC4800F0FCFFEC499DF80100D1
:1012600008709DF80000532800D0032605210120B6
:1012700000F072FC05210C2000F06EFC062103201A
:1012800000F06AFC0621172000F066FC012000F047
:101290003FFC032000F03CFC172000F039FCA57057
:1012A0006570E5703046F8BD38B50D4600901446BF
:1012B0000421684601F010FBD5498978C90602D59A
:1012C000062D00D1401C0099A16484F8440038BD6B
:1012D000106570472DE9F047CD4C0646CD4D0020F6
:1012E00084F83C0029684FF002084FF0E90991F8B2
:1012F00045076074C8484FF0010AC0F30E07204646
:10130000042E806A06D0032E1DD0022E3DD0052E5D
:1013100056D07CE0BE4A3146FFF7C6FFE06A206542
:10132000E787A07880060028286890F8590703DA34
:1013300020F0060040F0040084F8420084F8438066
:1013400084F8409063E0B24A3146FFF7ADFFE06AAF
:101350002065AF480421283001F0BEFAAE4901EB08
:101360008000C0F30E00E087A0788006002828687F
:1013700090F8590703DA20F0060040F0040084F8E2
:10138000420084F84380ED2017E0A14A3146FFF780
:101390008BFFE06A2065E787A07880060028286830
:1013A00090F8590703DA20F0060040F0040084F8B2
:1013B0004200042084F84300E52084F8400026E041
:1013C000A278920623D501F2C9310A7804F8342FA5
:1013D000CA78A2704A7862718978A17184F808A0ED
:1013E0008B4A3146FFF760FF8B48F830C0F30E00A0
:1013F0006081286890F8590720F0060040F002004C
:10140000A07384F80F8084F80C90A4F13404286849
:1014100090F80A17C90708D08049C1F800A014F84D
:10142000410F40F00300207008E0A17890F86C07AD
:10143000890701D520F0030084F841007148467007
:10144000BDE8F047724800F002BE2DE9F047704C4D
:101450004FF00009DFF8BC8184F83C90E127054695
:1014600084F84070D8F800006E4A664E90F8451730
:10147000617490F80A175FEAC17C6949C1F30E03F1
:101480002146498801D0012D04D0062D20D0072DFA
:1014900038D04DE0E77C377171710A27E77441F06D
:1014A00001016180E38790F85337127803F0F0036D
:1014B00002F00F021343E37690F855076077C806F1
:1014C00002D5F12084F84000514A2946012015E058
:1014D000E38790F85337127803F0F00302F00F021D
:1014E0001343E37690F855076077C80603D547F0B5
:1014F000100084F84000464A2946A068FFF7D4FE51
:10150000E06814E04849C1F30E01E18790F85317F1
:10151000127801F0F00141EA1211E17690F8000230
:1015200060773B4A2946206AFFF7BEFE606A206565
:101530006188C80705D094F8400040F0020084F8A4
:101540004000D8F8000090F80A27D20716D0062DE0
:1015500004D0072D02D0012D05D017E014F8410F5B
:1015600020F0030008E02D49C1F8009014F8410F65
:1015700020F0030000F10200207007E090F86C07F3
:10158000890701D520F0030084F841007570BDE89B
:10159000F0471F4800F015BD06280CD007280AD0D8
:1015A000012808D0042805D0032803D0052801D03D
:1015B000022801D18EE648E770472DE9F843114D26
:1015C0008146012901D10020A871AC79174F641C14
:1015D000104EA7F124080FE0306890F80A07C00702
:1015E00002D057F8242001E058F8242069464846E4
:1015F000904701281CD0641C082CEDD90020BDE8C0
:10160000F88300001C011000041000207401100079
:10161000F40810002801100080870120280A002209
:1016200000800120F6FF0100F088012074EB00002B
:10163000AC719DF80000E2E72DE9F0410178002946
:1016400032D001465422F74801F082FCF64E306851
:1016500090F80A07C0070AD0F248017811F0760F17
:1016600005D08278920702D441F080010170EF4CDE
:101670006078002818D10121EA48FFF79EFF050095
:1016800012D0EB4801270770306890F8181149070D
:101690000CD590F84307800708D400F0C0FDA77070
:1016A0000A2000F0CDFD6570BDE8F08100202070BB
:1016B0002846BDE8F0416FE7DB48DA49006890F85A
:1016C00000224A7790F80122CA744A88D20504D4CD
:1016D00090F8022202F00F028A7400F203200278CE
:1016E00002F03F020A75B0F801200A83C2788A76B8
:1016F000D04A0079127800F0F00040EA1210C87663
:101700007047002070478268120005D000780006FC
:1017100002D50120087070470020704782681200CF
:1017200006D00078C00703D006200870012070475B
:1017300000207047026A120006D00078000703D527
:10174000072008700120704700207047826A12004D
:1017500008D0C26A32B10078800603D50220087032
:101760000120704700207047826A120006D000787E
:10177000C00603D50520087001207047002070477F
:10178000826A120006D00078800703D50420087012
:101790000120704700207047C26A32B100784007CC
:1017A00003D50320087001207047002070470020F7
:1017B00008700120704770B59C4D9B4C9E4E687818
:1017C000042807D12068407D420006EB40019B4879
:1017D00001F0BEFB687803280CD12168087D497DA3
:1017E000420000EB410106EB4101BDE87040944826
:1017F00001F0AEBB70BD00B585B000F01BFB012051
:101800008DF800008F4801908B48029000F5B87168
:101810008648C27801EB420103910021C1708648DD
:10182000F83004907F4841686846884705B000BD9D
:101830002DE9F05FDFF8F0A17F4D0024DAF8000019
:101840004FF0010B90F80007C00729D075483730DA
:1018500001784678B1FBF6F706B90126DFF8CC81AE
:1018600098F80100042802D0032802D00AE03A24A4
:1018700021E06C4840240421283001F02DF86E4905
:1018800001EB800598F8010002280AD005280BD04A
:10189000042810D003280ED002280CD005280AD026
:1018A00098E07A24644D06E0DAF80000624D3A24AC
:1018B00090F80177F835D8F808108946B94277DCF6
:1018C000B9F1000F04D14FF4F8715F480DF06FF8D3
:1018D00098F801005C494346042803D0032801D04E
:1018E00002280BD1002207E051F822C035F91280FE
:1018F000C44441F822C0521CA242F5DB05280BD19A
:10190000002207E051F822C035F91280C44441F8A2
:1019100022C0521CA242F5DB09F101029A60BA42D0
:1019200054DB00229A60042803D0032801D0022847
:1019300038D1DAF800005246D0F8047700202FE0C2
:10194000D2F800C09CF851815FEAC86819D5DFF869
:10195000FC8098F80080B8F1010F12D193F8018053
:10196000B8F1040F0DD19CF815C0844509DD8444FD
:1019700031F8208031F82CC0C444DFF8D48028F836
:1019800010C031F820C0DFF8CC800CFB06FCACEBBB
:10199000070C25F810C051F820C048F820C0401CA2
:1019A000A042CDDB5878052814D100202A4A0AE04D
:1019B00010E000BF31F8203025F8103051F8203009
:1019C00042F82030401CA042F4DB03E0FFF7E4FDC6
:1019D0004FF0000B5846BDE8F09FF0B585B0FFF71B
:1019E000EAFE104EB078400603D4FFF721FF00282E
:1019F00016D00D4F0D4C386890F80A07C00708D074
:101A00006078012805D12079F0746079708007F042
:101A1000B3F900210348FFF7D0FDF8B1FFF7BCFD93
:101A200005B0F0BDF4081000280110001C011000E2
:101A30007D011000F6FF010080870120CC8E01207F
:101A4000088F012000800120048901203F0110003F
:101A5000EC2B0120F48A0120E48C0120444800256D
:101A600065700570386890F80A17C90701D04149B8
:101A70000D60414AA421117390F81801400702D566
:101A8000A57000F0C8FB2078012813D08DF8005015
:101A90003A48019000F5F0600290E17800F5B870E6
:101AA00000EB41000390E57035480490716868468A
:101AB0008847B5E702208DF80000E9E770B53148A6
:101AC0002B4D4FF00004016891F8180142072E4891
:101AD0000AD591F84317890706D48178012908D0DF
:101AE00002290FD0032903D18470FFF784FE2C70E4
:101AF00070BD0221817000F096FBBDE8704032207D
:101B000000F09EBB032181704078BDE8704043E542
:101B100000F01F020121914040094FF0E02202EB4A
:101B20008000C0F80011704700F01F0201219140B1
:101B300040094FF0E02202EB8000C0F880117047AE
:101B400000F01F020121914040094FF0E02202EB1A
:101B50008000C0F8801270474907090E002803DA98
:101B600000F00F00094A00E0094A81547047000064
:101B70007D011000280A00220010002000800120B2
:101B800078880120280110001C01100014ED00E0ED
:101B900000E400E0FD4801680029FCD17047F0B581
:101BA00027260022F94DFA484FF4F8315C270C46FD
:101BB0005FF0000303EB000E11F803C05B1C8EF80E
:101BC00060C00C2BF6DB2B68002BFCD18276C7762D
:101BD00004F10C0103EB000E11F803C05B1C8EF83E
:101BE00060C00C2BF6DB29680029FCD1511C8176E2
:101BF000C776921C04F13001B242D8DBF0BD2DE96A
:101C0000F0479246089E5B1EC6F108010022E04C98
:101C100001F0FF0C1546002189469A420BDA00EBD1
:101C20000208875C98F8018027FA06F708FA0CF892
:101C300047EA080703E007D1875C27FA06F701EBBC
:101C4000040888F8607003E001EB040888F86090ED
:101C500001F1010102F101020C29DEDBCB490F6821
:101C6000002FFCD10AEB0501A1765C21E1766D1C09
:101C7000022DD0DBBDE8F08718B5002411235C22CB
:101C80002146C4480094FFF7BAFFC24818236222D5
:101C9000002121300094FFF7B2FF18BD2DE9F04775
:101CA0000024DFF8E882BA498246254626464FF0EE
:101CB0005C0900209C4206DA00EB010C1AF8047063
:101CC0008CF8607002E0471887F86060641C401C64
:101CD0000C28EFDBD8F800000028FBD150198876DB
:101CE00081F81B906D1C032DE3DBC3E7A94800B509
:101CF00016235E2200216C38FFF7D0FFA548202371
:101D00006422002140385DF804EBC7E770B500237A
:101D10009F4C05E0CD5C1E195B1C86F860505BB2E1
:101D20009342F7DB99490B68002BFCD1A07642F077
:101D30001000E07670BD30B5974C07220220216874
:101D400001F24271FFF7E2FF2168022201F24A71BB
:101D50000920FFF7DBFF2168062201F24D710B20FD
:101D6000FFF7D4FF20688D498D4D90F8530709780F
:101D700000F0F00001F00F0108432870012229460D
:101D80001120FFF7C3FF2168072201F254711220CE
:101D9000FFF7BCFF81480122401E007800F00F01D0
:101DA000206890F85B0761F31F10287029461920FE
:101DB000FFF7ACFF2168042201F25C711A20FFF7E3
:101DC000A5FF76480222C01C294600782870734877
:101DD000401C007868701E20FFF798FF21680622DB
:101DE00001F262712020FFF791FF6C480222001D72
:101DF0002946007828706948801C00786870262081
:101E0000FFF784FF2168022201F26A712820FFF7A0
:101E10007DFF2168072201F26C713C20FFF776FFFD
:101E2000206890F8C0175F480170332141740B217E
:101E3000817430BD5C48002202605B481C3802603F
:101E40005A48026101210161826081600260016083
:101E500002604E49A0F574700B68002BFCD14C4910
:101E60000B7B43F020030B730B7B23F040030B73BE
:101E70000B7B23F080030B730B7B23F020030B738E
:101E8000C0F8D823C0F8E0234948027070473F48A3
:101E9000183001680029FCD1704730B54348002450
:101EA000743004604148803004604048C4600121BF
:101EB000C160C4600460016004603A4D2020AD1D23
:101EC000287068703249593D0873A42008732F4860
:101ED000183001680029FCD1FFF7ACFFFFF72BFF9A
:101EE000FFF704FFFFF7C8FEFFF759FE3148046013
:101EF00085F8344030BD38B50546254C806C0090DF
:101F00006073010AA173010CE173000E20740422B6
:101F100069462A20FFF7FAFE012205F144012E202E
:101F2000FFF7F4FE95F84400A074286D0090E0746B
:101F3000010A2175010C6175000EA0750422694625
:101F40003420FFF7E3FE0098800F84F84000144926
:101F5000012208703820FFF7D9FE38BD00EBC00120
:101F600001EB00106FF00A0101EB80000B49891EA4
:101F70000022097890FBF1F00E490A60094A401EE0
:101F80001F3A10700120086070470000040B002207
:101F900000100020ACF8010028011000F6FF01003D
:101FA00048091000530000201C0C0022D00300221E
:101FB0001D01100040050022CB4801680129FCD119
:101FC000E2E770B50446FFF796FFC848E18F01804D
:101FD000217C00F8011C94F840104173C44DA07C92
:101FE00085F83600042204F111010520FFF78EFE6A
:101FF000C04E02220920316801F24A71FFF786FEC5
:10200000022204F116010C20FFF780FE022204F1E7
:1020100018010E20FFF77AFE3068052204F11A013C
:1020200090F8540720771020FFF770FE012204F18A
:1020300041013C20FFF76AFEAB4801680129FCD151
:1020400094F840002873BDE87040322086E77CB5E4
:102050000446FFF750FFA548E18F018094F8351042
:1020600000F8011C94F840104173A24D296891F8C2
:102070000A07C00715D0B1F80D67B1F870078DF8E1
:102080000400000A8DF80500022201A94020FFF794
:102090003DFE300A8DF800608DF80100022269468D
:1020A00002E0022201F24A710920FFF72FFE02220C
:1020B00004F130011A20FFF729FE022204F1320157
:1020C0002220FFF723FE012204F134010720FFF74D
:1020D0001DFE012204F139010820FFF717FE01223D
:1020E00004F13A012020FFF711FE012204F13B0127
:1020F0002820FFF70BFE012204F142011720FFF711
:1021000005FE012204F143011820FFF7FFFD2868B6
:102110007949012290F8540720F0F000087012204D
:10212000FFF7F4FD94F83C00714EC00708D0286812
:1021300000F2C67190F8C60786F83600012206E064
:1021400094F8360086F83600012204F136010620A4
:10215000FFF7DCFD012204F141013C20FFF7D6FD31
:10216000614801680129FCD194F840003073BDE852
:102170007C403220F2E65F49604B0A6892F84D27B6
:1021800002700A68B2F85027428009681B7801F291
:10219000547103F00F0311F8012C02F0F0021A43FE
:1021A00002714A89C2804A8A0281CA7B8272CA7DD0
:1021B000C27249780173E7E610B504460146012270
:1021C0000B20FFF7A3FD0222A11C0E20FFF79EFDAE
:1021D0000122211D1120FFF799FD0222A11D1C20C3
:1021E000FFF794FD022204F108012420FFF78EFD81
:1021F000012204F10A012120FFF788FD012204F1E8
:102200000B012920FFF782FD04F10C010122BDE83A
:10221000104013207AE5364904200873B4E63449A7
:1022200020200873B0E63249C0200873ACE6344978
:1022300000200860A8E63249002040310860A3E68B
:102240002F4900220A60294A273A107001200860AD
:102250009AE670B5244C1C342368002BFCD11D4633
:1022600003E0C6185B1C86F880508B42F9D32368C4
:10227000002BFCD102E0C45CD4545B1C8B42FAD32B
:1022800070BD10B500F032FF1D49002040310860DC
:102290001C49097879B11448001D01680029FCD156
:1022A0001348C078400602D5174901200870BDE8E0
:1022B0001040FFF792BB1549087010BD10B500F033
:1022C00015FF0F4900200860BDE81040FFF7F6BB7E
:1022D00010B500F00BFF0A49002040310860BDE84E
:1022E0001040FFF7EBBB0000000B00225400002061
:1022F000001000202801100048091000F6FF01001E
:10230000000500221D0110001C0110007D011000BD
:10231000FEE70446012006F054FE00210F2022684B
:1023200006F064FE01210F20626806F05FFE0221C4
:102330000F20A26806F05AFE03210F20E26806F083
:1023400055FE0C210F20226906F050FE0E210F20B1
:10235000626906F04BFE0F210846A26906F046FEB0
:1023600020210F20E26906F041FE38480268212151
:102370000F2006F03BFE35481038026822210F205E
:1023800006F034FE31480C38026823210F2006F095
:102390002DFE2E480838026824210F2006F026FE64
:1023A0002A48001D026825210F2006F01FFE27483D
:1023B0003438026826210F2006F018FE234814380E
:1023C000026827210F2006F011FEFEF7F2F90246FF
:1023D00030210F2006F00AFEFEE710B5012805D0D7
:1023E000022805D0032809D0032102E0012100E0E2
:1023F0000221BDE81040032006F0E3BD00210320C8
:1024000006F0DFFDFEE710B504460146042006F0A5
:10241000D8FD012C00D1FEE710BD0146082006F0D2
:10242000D0BD0146062006F0CCBD10B504460146DD
:10243000072006F0C6FD24B1012C03D0022C02D1E6
:10244000FEE7FEE7FEE710BD0220EEE738ED00E014
:1024500000F04CBE70477047234810B5016821F06A
:102460000401016000F042FEBDE81040FEF73FBCF1
:102470007047704700F03ABE10B500F037FEBDE877
:10248000104006F0F5BF10B500F030FE17480068A8
:1024900090F82901800703D5BDE8104006F061BC23
:1024A00010BD704700F022BE7047704770477047FC
:1024B00070477047704770477047704710B500F01D
:1024C00015FEBDE81040FEF747BB704710B500F0A1
:1024D0000DFE07480078012803D1BDE8104001F047
:1024E00043BB10BD7047704710ED00E0280110009D
:1024F0007C01100010B5422186480CF036FA854860
:102500008549864A0180428085498180854BC38008
:10251000854C0481854C4481854C8481854CC481E3
:10252000854C0482854C4482854C8482854CC482CF
:10253000854C0483854C4486854C8486854CC486B2
:10254000854C0487C387428781878449A0F840105F
:1025500083480168814801F24E710A884280CA8925
:10256000C280C98A018110BDF0B585B0FF22142157
:1025700068460CF0F2F96846FEF728FD03980E2530
:102580000127072645F2AA54A04202D00498A0428F
:102590003BD1DDE90001884206D00299884203D090
:1025A0000198884208D100900498A04210D1009868
:1025B000000E012805D007E05FF00000FFF731FFB3
:1025C0000FE00098C0F301370098C0F3032602E043
:1025D0000120FFF726FF0398A04214D1009800F0D5
:1025E0000705604907F0030040EA061081F8600023
:1025F000012088761120C8765B48017865F30401D4
:10260000017005B0F0BD0220D8E70120FFF709FFF7
:10261000F9E770B5FEF74FF9FEF738FB504D286823
:102620000078A52802D00120FFF7EDFE28684FF0C2
:1026300000064FF0010490F829118A074FF0085165
:1026400004D5C1F89863C1F8804301E0C1F898430C
:1026500090F82811454A01F00101116090F8281105
:10266000121DC1F34001116041490C60091F0C604B
:10267000091F0C6090F8C800C1070BD0810709D56D
:10268000C0F38200012805D137483130017821F0AC
:1026900007010170FEF70EFCFEF724F9FEF7B8FD06
:1026A000032801D1FFF799FEFEF75CFBFEF7A8FBBC
:1026B000FFF75AFF286890F8290181072D4801D5B6
:1026C000046000E00660046070BD10B54FF000517A
:1026D00040F265104881FFF79CFFFFF70BFF26498A
:1026E0003F200860254900200860264824490160F1
:1026F00001F5086024490860244800F0F9FAFDF764
:10270000BBFD00F045F8FDF7B5FDFDF739FE0120F2
:1027100010BD00000000012000800120A09E0120CB
:1027200020A601204200012080870120BA29012033
:10273000F62901203C2A0120782A0120A03001201E
:10274000DC300120CE2501200A260120AE290120FF
:10275000C8960120D4960120C2250120EC22100049
:102760002801100000100020200000208804002212
:10277000280A00227C040022382A0120700110005F
:10278000D81010005401100058011000D82110007A
:102790007FB5FDF7CDFD204D002400BF05EB4410B3
:1027A00000F11002017F4CCACDE90261CDE900239E
:1027B0000FC8FDF79BFF10B10120FFF736FE641C28
:1027C000072CEBDB144D002415F1E00504EB44006D
:1027D00005EB8001091D55F8200006C9FDF706FF2D
:1027E00010B10120FFF721FE641C072CEEDB0B4D1E
:1027F000002400BF05EBC400416855F83400FDF724
:1028000015FE10B10120FFF710FE641C062CF1DB51
:102810007FBD4068FFF718BE98EB0000CCEC0000CD
:102820002DE9F0479246012547F6F872564299463F
:10283000AC460024089F16E030F8143031F81480BC
:10284000A8EB03031BB29A4200DD1A469E4200DA4F
:102850001E46002B02DA4FF0000502E001DD4FF0CA
:10286000000C04F10104BC42E6DB55EA0C0306D07F
:10287000012D01D02DB108E0BCF1010F05D10022DE
:1028800003E0BCF1010F00D1324600252C462B4657
:1028900011E000BF30F8136031F813C01644ACEB00
:1028A000060636B24E4505DAC9F1000C664501DD73
:1028B0003544641C5B1CBB42ECDB95FBF4F10A4421
:1028C000002105E030F8113013442AF81130491C7A
:1028D000B942F7DBBDE8F08770B503460020024639
:1028E000FE4C09E09D5C521C05F00F0604EB15152B
:1028F000A65D2D78304428448A42F3DB70BD8842BF
:1029000000D308467047884200D80846704788427E
:1029100000D30846904200D3104670472DE9F04797
:10292000D0F810C00568046A85FB0C12A1FB0412E4
:1029300042694368914683FB02628269E246A6FBD4
:1029400002677618D0E9021781FB07C8C069ACFBA3
:1029500000C81CEB060682FB0A2CA2FB011280FBBE
:102960000902A0FB0502401884FB0712A1FB031219
:102970000818301A4FEAE071ACE72DE9F04389B04E
:1029800004460068009060680190206902906068C9
:10299000039020690490A069059020690690A069C1
:1029A0000790E06908900D466846FFF7B7FF80463C
:1029B000A0680190E06804906069079089466846C5
:1029C000FFF7ACFF064660680190A068029020699E
:1029D0000490E0680590A0690790606908900F4630
:1029E0006846FFF79BFFC5E90401C5E90267C5E931
:1029F000008909B0BDE8F0832DE9FF4F4FF0000AD0
:102A000089B09B465746D146D04656465546544611
:102A1000202168460BF0CBFF0B9810E00999824407
:102A200031F9102000FB00F102FB016688444143AC
:102A300002FB009901FB004417440D44401C58451B
:102A4000ECDD0B99ABEB0100401CCDE9000ACDE9B0
:102A50000654CDE90486CDE9027968460A99FFF764
:102A60008CFF0DB0BDE8F08F9D480068017B427B74
:102A700041EA0221827BC07B41EA024141EA0060D7
:102A800040007047964800680179427941EA022186
:102A90008279C07941EA024141EA0060704700B59D
:102AA000FFF7E2FF4008400000BDF8B50E460446BF
:102AB000FFF7F5FF0090FFF7D7FF054604216846B2
:102AC000FFF70AFF04EB4007002400992046234645
:102AD0004FF0010C0CFA03F20A4207D02A4204D04C
:102AE00037F8102026F81420641C401C5B1C1E2B99
:102AF000F0DBF8BDC6E7FCB50E460746FFF7CFFF93
:102B00000190FFF7BFFF0090FFF7BCFF05460421CF
:102B100001A8FFF7E1FE044604216846FFF7DCFE4A
:102B200000EB440007EB40070020009904460346F1
:102B30004FF0010C0CFA03F20A4207D02A4204D0EB
:102B400037F8142026F81020401C641C5B1C202B36
:102B5000F0DBFCBD70B562490020096801F5F57431
:102B600091F8E8518DB191F8E6214FF00103D207B9
:102B70000DD0002203FA02F6354203D0A65C03FA18
:102B800006F10843521C062AF4DB400070BD91F8A0
:102B9000E91103FA01F0F8E770B55149002009681E
:102BA00001F5F57491F8E851002D09D091F8E6216E
:102BB0004FF00103D20704D091F8E91103FA01F0B4
:102BC00070BD03FA02F6354203D0A65C03FA06F1A3
:102BD0000843521C062AF4DB70BD70B50022404C3D
:102BE000012303FA02F6256895F8E851354203D02F
:102BF00030F8125021F81250521C062AF1DB70BD39
:102C000000B5FFF731FF40F0010000BD3AE7354A5B
:102C1000520102EB810101F108510860704701EB9C
:102C20008010801001EB41014900182291FBF2F362
:102C300000EB400000F5F83002FB1311006820F0B3
:102C40007F40C84000F03F00704701EB80108010CB
:102C500010B501EB41014900182391FBF3F403FB8C
:102C6000141300EB400000F5F8303F2401689C404D
:102C7000A1439A400A430270110A4170110C8170FD
:102C800010BD821002EB4202114400EB40004000F4
:102C9000182290FBF2F301F5F83102FB13020868E9
:102CA00020F07F40D04000F03F007047831003EBDE
:102CB00043031A4410B500EB40004000182390FB7A
:102CC000F3F403FB140302F5F8323F2410689C4030
:102CD000A043994001431170080A05E0FCEC000094
:102CE00028011000382A01205070080C907010BD87
:102CF0002DE9F14F782100980BF059FEFFF780FF86
:102D00004FEA5008FFF7BEFE4FF0000C81466646C2
:102D10004FF0010A0AFA06F111EA090F1ED0002449
:102D2000012725460AFA0CFB0AFA05F010EA080FFB
:102D30000FD031462846FFF772FFA04207D0009916
:102D4000009A51F8271041EA0B0142F82710044677
:102D50007F1C6D1C272DE7DB0CF1010C761C202E4F
:102D6000D8DBBDE8F88F2DE9F04F8346F948002401
:102D70002246D0F800A001219AF81450A5F10106CE
:102D800021E003200123DFF8D0E303FA01F99AF8E8
:102D9000157015E05EF820C01CEA090F0FD0A0F1F5
:102DA000010300FB051C03FB05183BF91CC03BF9A4
:102DB0001830BCEB030300D55B421C44521C401C82
:102DC0008742E7DC491C8E42DBDC02B9012294FB1E
:102DD000F2F047E62DE9FF4F85B000210391029103
:102DE00001910091DB49012B0C6894F8775005F0B4
:102DF0000F0700D10027667D94F87A30C7F1100BD9
:102E0000B34200D21E4600230493012381E000BF99
:102E10004FF00009C84603241FE0CF4951F824C0F1
:102E2000012199401CEA010F04FB053130F911C062
:102E3000A4F1010101FB053130F91110ACEB0101E6
:102E400006D0002900DA4942DDF818C0A1EB0C01D8
:102E5000002900DA49428944641CB442DDDB314672
:102E60009EF815A01FE0BC4C54F821C001249C40E2
:102E70001CEA040F01FB053430F914C0A1F1010470
:102E800004FB053430F91440ACEB040406D0002CEC
:102E900000DA6442DDF818C0A4EB0C04002C00DA60
:102EA0006442A044491C8A45DDDC0499012910D103
:102EB0000199B1EB090101D5C1F10001039C214445
:102EC00003910099B1EB080100D54942029C2144CD
:102ED0000291CDE900899EF87B10994216D11168C4
:102EE000039D79430BFB0511CC1701EB14710911FC
:102EF00011609168029D79430BFB0511CC1701EB22
:102F000014710911916000210391029101215B1C50
:102F100004919049D1F800E09EF81450691E99423E
:102F20003FF776AF5068039978430BFB0100C11758
:102F300000EB117000115060D068029B78430BFBCE
:102F40000300C11700EB11700011D06009B089E5D2
:102F500004E000BF11F8013B00F8013B521EF9D21A
:102F600070477CB50D460446FFF799FD0090FFF7CA
:102F700089FD019000980421400800906846FFF701
:102F8000ABFC0646042101A8FFF7A6FC30448200F2
:102F900021462846FFF7DCFF7CBD0B466D490968DA
:102FA0004A7D097D521C4A43014652001846CFE72C
:102FB00070B5044654210BF0FAFC0020654D2070DA
:102FC0006080296891F8C51701F0010140EA4111BC
:102FD00061802A6892F84527D20941EA021161808E
:102FE0006060FFF70DFEA060FFF74CFD5B4EE060F8
:102FF0007088E082286800F24670C27A817A02F016
:103000003F0241EA022121834178E17490F87A106D
:1030100021740178A17481782175017BA1765049D2
:10302000407B097800F0F00001F00F010843E076E2
:10303000FFF790FD2062FFF7AFFD6062FFF72FFD05
:10304000A062FFF71FFDE062F08820866086286896
:1030500000F2C170017884F83410817884F835105A
:10306000C17884F8361010F8BF1C84F8371001219D
:1030700084F83810417884F8391010F85F1C84F80F
:103080003A1010F8571C84F83B1010F86B1CA1770D
:1030900010F8550C84F8410070BD3F21B0FBF1F1F0
:1030A0003F314908B0FBF1F211444908B0FBF1F09F
:1030B00008444008704710B50446FDF7DDF8012CC0
:1030C0000BD12448006890F81801800705D5FDF75A
:1030D000FAFB38B1FDF7F3FB04E0FDF7F4FB08B9A8
:1030E000FDF7E9FBBDE81040FDF7C4B80020E2E7BA
:1030F000184B10B51A68947E640704D5D28A046808
:10310000A2EB040202601A68947EA40703D5128B16
:103110000C68121B0A600268002A00DA00220260B2
:103120001C68E48AA24200DD224602600A68002A86
:1031300000DA00220A601C68248BA24200DD2246CD
:103140000A601B689B7EDB0702D003680B6002608D
:1031500010BD000028011000D8211000EC22100042
:10316000F6FF0100F0B500252C4608E031F91460A7
:1031700030F91470F61B964200DD6D1C641C9C42F5
:10318000F4DB022D01D90120F0BD0020F0BD2DE9B6
:10319000F04F9246DDE909B7012547F6F87256422D
:1031A0009946AC46002416E030F8143031F814800B
:1031B000A8EB03031BB29A4200DD1A469E4200DAD6
:1031C0001E46002B02DA4FF0000502E001DD4FF051
:1031D000000C04F10104BC42E6DB55EA0C0306D006
:1031E000012D01D02DB108E0BCF1010F05D1002265
:1031F00003E0BCF1010F00D1324600252C462B46DE
:1032000011E000BF30F8136031F813C01644ACEB86
:10321000060636B24E4505DACBF1000C664501DDF7
:103220003544641C5B1CBB42ECDB95FBF4F10A44A7
:10323000002105E030F8113013442AF81130491C00
:10324000B942F7DB0EE4F0B5064600200446054619
:10325000521C059F0AE000BF36F911C09C4504DDF1
:10326000A44502DD64460D460120491C9142F3DB72
:103270003D60F0BD70B50A4B1B685C7D1B7D641C16
:103280005C43002308E000BF32F8135030F81360AD
:10329000AD1B21F813505B1CA342F5DB70BD000091
:1032A0002801100010B501461422FD48FFF750FE1A
:1032B000BDE810404FF400610120FDF7D7B870B5AC
:1032C00096B006460D4614466846FFF771FE14F0A8
:1032D000050F02D001208DF80000F248E10609D563
:1032E000016891F8E81129B19DF8001041F008013A
:1032F0008DF8001014F4F17F2CD0036893F850017E
:10330000C00706D193F8040318B993F8B001C007B9
:1033100020D093F80A07C0079DF8000002D040F0C3
:10332000060001E040F020008DF8000014F0050FC9
:1033300010D19DF8000003F2211340F001008DF838
:10334000000058788DF8130018788DF81A009878D6
:103350008DF81E00ADF83250ADF81660ADF8305063
:10336000AFF2BF00CE4E03244FF4006501906846D3
:10337000FEF762F915AB002229460120FDF7C5F8DA
:1033800029460120FDF7A0F83078002804D0FFF787
:1033900024F8641E002CEADC16B070BD10B504469B
:1033A000C0070ED04FF4F061BF480BF0DEFABF4803
:1033B00000210160416081604FF4F051BC480BF086
:1033C000D4FA14F0420F07D03C21BA480BF0CDFAE2
:1033D0004021B9480BF0C9FAA0060AD5F021B74838
:1033E0000BF0C3FABDE810404FF48071B4480BF005
:1033F000BCBA10BD2DE9F0410746AA48006890F814
:103400002010490710D590F821000125C0F30110C4
:1034100085400024AB4E05E0F18870883A46FFF7FE
:103420004EFF641CAC42F7DBBDE8F0812DE9FF4F95
:1034300089B00446FFF7EAFB0790FFF7E1FB06902F
:10344000042106A8FFF748FA0546042107A8FFF75C
:1034500043FADFF850B245434FF0010ADBF80000B1
:103460004FF4885190F8210000F007070AFA07F995
:1034700095480BF09CFA182168460BF098FA002644
:103480003AE090482246C1880A98FFF718FF14F0E6
:10349000050F13D082488D49406804F0F2FF8B4A33
:1034A0000020894908E000BF51F8203032F910C0EF
:1034B000634441F82030401CA842F5DBE0061AD5F1
:1034C00077488349C068FFF788FBDBF80010804B22
:1034D000002091F8E82169460AFA00FC12EA0C0F74
:1034E00006D051F820C033F91080C44441F820C000
:1034F000401C0628F0DB761C4E45C2DB14F0050F9D
:103500000BD00020704A06E052F820100B9B394186
:1035100023F81010401CA842F6DBE00613D500206B
:103520005A4651466C46136801FA00F593F8E831A3
:103530002B4205D054F820300C9D3B4125F810302B
:10354000401C0628EFDB0DB0BDE8F08F2DE9F74FEA
:10355000544D82B09246286890F85011C90706D1A0
:1035600090F8041319B990F8B001C0076AD0FFF7BA
:1035700096FA0090FFF7BEFA019004216846FFF723
:10358000ABF90446042101A8FFF7A6F92044440042
:1035900028680126A94690F8210000F00707BE40E0
:1035A000A10049480BF003FA0025DFF81CB122E026
:1035B0004448DDE902214088FFF781FED9F8001078
:1035C000374891F8C517D0F80880C90704D00169B9
:1035D0004246404604F06AFE0020594608E000BF1B
:1035E00051F8203038F910201A4441F82020401CAE
:1035F000A042F5DB6D1CB542DADB334D00215A46A3
:1036000006E000BF52F82100384125F81100491C9E
:10361000A142F7DBD9F8000090F85011C90703D197
:1036200090F8B001C0070DD0029810F0220F09D019
:103630002846DAF80010FFF738FA2846DAF80410BE
:10364000FFF759FA05B07FE72DE9F0479A46154B89
:10365000894600210125194E1C681AE032F8113004
:1036600030F81170DB1B1FB200230AE0C3EB031C10
:1036700006EB8C0C5B1C3CF811801BB2B8442CF898
:10368000118094F880C305EB9C1C9C45EEDC491C22
:1036900009B2637D8B42E1DC0020094A33E000007F
:1036A000183B10002801100042000120C225012013
:1036B000C2070120CE2501200A2601204227012031
:1036C0006E280120EC221000D810100058091000BC
:1036D000AE2901203AF8103039F81010591A0BB2FF
:1036E000002108E002EB8116491C36F8107009B27F
:1036F0001F4426F8107094F8806305EB96168E42EE
:10370000F0DC401C00B2217D8142E3DCBDE8F087A3
:103710002DE9F041FE4DFF4E0746002428680023A6
:1037200000EB4400B0F80211C4EB041006EBC01229
:103730003846FFF77BFE641C042CEFDB74E62DE9B2
:10374000FE4FF34C824600F49070216891F880138C
:10375000490737D5002835D000252F46DFF8B88334
:10376000DFF8B893012611E000EB4500C5EB051228
:10377000B0F8B21308EB8200009009EB8510CDE998
:1037800001076A465046FFF7E1FE6D1C206890F87D
:10379000801306EB9111A942E6DC90F85011C9079D
:1037A00010D090F8911109060CD5407DDA494200FD
:1037B000DB48FFF7CDFB2068D849007D4200D9489F
:1037C000FFF7C6FBBDE8FE8FFEB5014610F0820094
:1037D00032D0CF4A01F49076D349126800240123F5
:1037E00092F88053C98803EB951306E002EB440777
:1037F000B7F8B273B94202D0641CA342F6DCA3420C
:103800001BDD6B0719D5C6B192F85001C00703D173
:1038100092F8B001C0070FD0BF49C4EB041001EB10
:1038200080013C22C148FFF793FBBC48402200EBDB
:103830008411BF48FFF78CFBFEBD00220292BB4AF9
:103840000092BB4A01926A46FFF780FEFEBD2DE959
:10385000F04104460020FCF7F4FE0320FCF7F1FEE3
:1038600014F040050AD03C22B049B248FFF770FB83
:10387000B0484022AE493C30FFF76AFB2046FFF7D4
:103880008DFDAD490020401C8842FCD3AB48017837
:10389000012904D1002101702046FFF7ABFD9C4EA9
:1038A00004F00400316891F8D010490703D510B135
:1038B0002046FFF72DFF316804F4907091F88013D3
:1038C000490703D510B12046FFF739FF14F011075F
:1038D00006D095489A4B9B4A41883846FFF7A6FD8B
:1038E000F8070FD0306890F8200000070AD59548F7
:1038F000FFF739FA94490123944A08600146914838
:10390000FFF768FA14F0820F02D02046FFF75CFF41
:103910005DB1306890F88003400706D58549844B37
:10392000824A3C318348FFF78FFE894901200870A5
:103930008849087005F0FEF90020FCF79DFEBDE8FF
:10394000F0410320FCF798BEF0B471490022714C9D
:103950000B68B3F80211814213D2B3F80811814207
:1039600001D803220DE0012103EB4105B5F8025116
:10397000A84201D10A4602E00DD2A1F101028A4219
:103980000DD1C2EB021004EBC011F0BC4FF4F06299
:103990006C48FFF7DDBA491C0429E5DBF1E703EBCE
:1039A0004103684DB3F80021B3F80231801A0002D8
:1039B0009A1A90FBF2F3C1EB011100204FF47076DC
:1039C00004EBC11101EB4002A2F5F06231F91040A5
:1039D000B2F90020A41A5C4302EB242225F810203F
:1039E000401CB042EEDBF0BC70472DE9F041484985
:1039F0000025494A0968494EB1F8B23383421AD2C8
:103A000091F880339C0901EB4407B7F8B273874201
:103A10000AD9012404EB931313E000BF01EB440720
:103A2000B7F8B273B84201D1254602E008D2A4F13A
:103A30000105A5421CD191F85001C00708D103E04F
:103A4000641CA342EADCF6E791F8B001C0074CD051
:103A5000C5EB051002EB80013C223448FFF778FAF1
:103A600006EB8511BDE8F04140223148FFF770BAFE
:103A700001EB4405B5F8B033B5F8B253C01A0002F3
:103A8000EB1A90FBF3F391F85001C00703D191F8C2
:103A9000B001C00729D0254DC4EB0411002002EB72
:103AA000810100BF01EB400231F9107032F93C2C6A
:103AB000BF1A5F4302EB272225F81020401C1E2866
:103AC000F0DB1B4D002006EB841100BF01EB400230
:103AD00031F9104032F9402CA41A5C4302EB242245
:103AE00025F81020401C2028F0DB9DE410B51A4971
:103AF00001201A4A087000241460194948710623ED
:103B00004B72164B483B1C60FF240C70106029E080
:103B100028011000C2070120422701206E28012041
:103B2000322801206E290120EC221000CE25012030
:103B30000A2601209C3A100020A107003001100045
:103B4000C2250120420001205C011000502210001B
:103B50003E011000670110007C0110004C0500229E
:103B60002E000020186010BD0B49002008600B4992
:103B7000CA78094B48331860C2F1F4020978D2B20E
:103B8000491CB2FBF1F1064A11705521521E117009
:103B90000449087070470000040500223700002027
:103BA000F4FF01007C01100010B501461422FE480C
:103BB000FFF7CEF98021BDE810400120FCF756BC8C
:103BC00030B597B004466846FFF7F2F90021012CA2
:103BD00004D0032C04D0022C0AD01EE0012000E007
:103BE00008208DF812108DF800008DF8101014E0E8
:103BF000EE48006890F80A07C00701D0062000E0F0
:103C000020208DF80000EA488DF836108DF8351028
:103C1000416849000A9180680B90BDF80200AFF23C
:103C2000770140F4A670E04D0191ADF80200032445
:103C30006846FDF701FD15AB002280210120FCF74D
:103C400064FC80210120FCF73FFC2878002804D088
:103C5000FEF7C3FB641E002CEADC17B030BD2DE973
:103C6000FC5F4FF0000BFEF775FF0446FEF794FF74
:103C7000D04907460020086048608860CE494FEA76
:103C8000540980460860486088604FF0010A0320AC
:103C9000FFF796FFC44800242646C068CDF8000010
:103CA0000AFA06F010EA090F38D000250AFA05F1E1
:103CB000394230D0BD490AFA04F0096891F8E81198
:103CC000014228D029463046FEF7A9FFB749B94A34
:103CD000096832F91430B1F834C1B3EB0C01009B20
:103CE00033F91430A3EB0C0C00D54942BCF1000FA2
:103CF00001DACCF1000C614504DBAF4922F8143045
:103D000021F814003F2805D2401CC2B22946304693
:103D1000FEF79BFF641C6D1C202DC7DB761C272E35
:103D2000BEDBFDF73CFF08F10108B8F1400FAEDB48
:103D3000012000900320FFF743FFD0460026DFF864
:103D40006CA2354608FA05F010EA090F1ED00024CF
:103D500008FA04F1394216D0DAF8001008FA06F031
:103D600091F8E81101420ED09348214610F8160050
:103D7000019002462846FEF768FF01983F2801D3CC
:103D800000200090761C641C202CE1DB6D1C272D8C
:103D9000D8DB009810B90520FEF73FFBFDF7FFFECA
:103DA0000320FFF70DFF80488449C068FEF715FF28
:103DB000DAF80040814D002094F8E831424600BF17
:103DC00002FA00F10B421CD035F91010002902DC78
:103DD0004BF0020005E040F6FF76B14203DB4BF00A
:103DE0000100834610E0B4F83471B4F8BE6107EB0B
:103DF000060C8C4505DABF1B8F4202DD0EB14BF07D
:103E0000040B401C0628DBDB5846BDE8FC9F2DE96F
:103E1000F05F66490A6892F8300105066848037841
:103E200003F00F0407D492F83E1121F00F01214353
:103E30000170BDE8F09F0025DFF86CA18346047097
:103E40002E46012789460320FFF7BAFE5B49DAF8C0
:103E50000C00FEF7C2FED9F80020584B002092F863
:103E6000E81100BF07FA00FC11EA0C0F05D033F986
:103E700010C0B2F84D81C445DBDB401C0628F1DBE5
:103E80000F2D08D26D1CEDB244EA0510761C8BF89C
:103E90000000102ED7DBBDE8F05F0420FEF7BDBAAE
:103EA0002DE9F04100240120FFF78AFE3E484568D5
:103EB0003E4801684A7D087D521C00FB02F61CE06A
:103EC00035F91020002A02DC44F0200414E040F60A
:103ED000FF739A4202DB44F010040DE0B1F8347134
:103EE000B1F8BE3107EB030C944505DAFF1A97428F
:103EF00002DD0BB144F04004401C8642E0DC204669
:103F0000BDE8F081024618215FF0010000FA01F3DC
:103F1000134201D1491EF9D5491C8840104370470E
:103F20002DE9F05FFEF76CFE0546FEF76FFE1F4CB5
:103F30000746206890F84507000603D52846FFF796
:103F4000E1FF05464FEA55094FF4F0611D480AF0BC
:103F50000CFD4FF027084FF0000A0120FFF730FE5C
:103F600011480026D0F804B010480068047D46E0EF
:103F7000012000FA06F111EA090F3FD000250120C7
:103F8000A840384237D029463046FEF748FE074958
:103F9000DFF830C009683CF91430B1F83421991ABF
:103FA0003BF9143010E000002C3B100028011000F9
:103FB00080011000C8960120D4960120AE2901206E
:103FC000F6FF0100A09E0120A3EB020200D54942AA
:103FD000002A00DA5242914204DBFF492CF81430E7
:103FE00021F814003F2805D2401CC2B229463046B1
:103FF000FEF72BFE641C6D1C202DC0DB761C464595
:10400000B6DBFDF7CCFD0AF1010ABAF1400FA4DBE3
:10401000F2484FF0010B00250068067D012101FAEE
:1040200005F010EA090F16D000240120A040384204
:104030000ED0E948214610F816008246024628466E
:10404000FEF703FEBAF13F0F01D34FF0000B761CD1
:10405000641C202CE9DB6D1C4545DFDBBBF1000F48
:1040600002D10320FEF7D9F9FDF799FD0120FFF7F2
:10407000A7FDBDE8F05F13E72DE9F05FD74A1168AF
:1040800091F83001C407D648037803F0F00514D046
:10409000057000264B7D0C7DDFF848A35B1CB04605
:1040A000914604FB03F783460120FFF789FD204674
:1040B000DAF80420D9F800100DE091F83E1101F073
:1040C0000F0129430170B4E632F91030B1F832C162
:1040D0006345F8DB401C8742F6DC0F2E0AD2761CC3
:1040E000F6B245EA060108F101088BF80010B8F1B4
:1040F000100FD9DBBDE8F05F0220FEF78EB970B576
:1041000001244FF404614FF4F8300AF050FCFDF73D
:1041100046FDFFF7B1FFFFF703FFB04D44EA00642F
:10412000286890F8E80128B1FFF771FEFFF797FDC6
:1041300044EA0044AA482A68401D017892F8FB2707
:1041400001F0F00102F00F0211430170A648FEF7E2
:10415000CFFD2046BDE8704005F00AB82DE9F04FCC
:10416000A24D9E4B0020D5F814906E681B68044643
:104170000246012140F6FF7B01FA02F737421CD0CC
:1041800039F914A0BAF1000F02DC40F0200013E06E
:10419000DA4502DB40F010000EE0B3F836C1B3F8A8
:1041A0004171E6460CEB0708D04503DBAEEB070C8C
:1041B000D44501DD40F04000641C521C202ADBD3B2
:1041C0000024AF69AE68224601FA02F535421AD0E2
:1041D00037F91450002D02DC40F0200012E05D455C
:1041E00002DB40F010000DE0B3F83A81B3F84391E0
:1041F00008EB090CAC4503DBA8EB090CAC4501DD71
:1042000040F04000641C521C202ADDD3BDE8F08F32
:104210002DE9F84F212176480AF0C9FB7448302176
:1042200021300AF0A2FBFDF786FDFDF725FD0420F5
:104230006E4CDFF8A8A103254FF000084FF00109EC
:1042400000900220FFF7BCFCE8072BD04FF0000BDA
:104250005F465E46616809FA06F008421AD040F6E9
:10426000AC013046FEF70DFD616931F91720DAF82F
:104270000010B1F845118A420BDA3F2809D20099A3
:104280004FF0010B0844C1B240F6AC023046FEF7D5
:104290000DFD7F1C761C202EDCD3BBF1000F01D15D
:1042A00025F00105A8072BD54FF0000B5F465E46B1
:1042B000A16809FA06F008421AD040F6CD0130464E
:1042C000FEF7DFFCA16931F91720DAF80010B1F828
:1042D00047118A420BDA3F2809D200994FF0010BAF
:1042E0000844C1B240F6CD023046FEF7DFFC7F1C29
:1042F000761C202EDCD3BBF1000F01D125F0020586
:1043000045B1FDF718FDFDF7B7FC08F10108B8F15C
:10431000640F96DB03254FF000080220FFF750FCE6
:10432000E80729D04FF0000B5F465E46616809FA46
:1043300006F0084218D040F6AC013046FEF7A1FC6A
:10434000616931F91720DAF80010B1F845118A4295
:1043500009DD40B1401EC1B24FF0010B40F6AC0286
:104360003046FEF7A3FC7F1C761C202EDED3BBF16B
:10437000000F01D125F00105A80729D54FF0000B4A
:104380005F465E46A16809FA06F0084218D040F67A
:10439000CD013046FEF775FCA16931F91720DAF836
:1043A0000010B1F847118A4209DD40B1401EC1B288
:1043B0004FF0010B40F6CD023046FEF777FC7F1C34
:1043C000761C202EDED3BBF1000F01D125F00205B3
:1043D000002D18D00EE0000020A6012028011000BA
:1043E000F6FF01002C3B1000D821100080011000C6
:1043F000ACF80100FDF79FFCFDF73EFC08F1010859
:10440000B8F1640F89DBBDE8F88F2DE9F041FF4D6D
:10441000002021212870FE480AF0C9FAFC4830210A
:1044200021300AF0A2FAFDF727FCFDF784FCF94ED3
:1044300000270220FFF7C4FBD6E9043200242046FF
:1044400006E000BF32F91010A14200DD0C46401C0E
:104450009842F7DB0020F368B26905E032F91010EA
:10446000A14200DD0C46401C9842F7DB002C09DC21
:1044700028780F2803D8401C2870FDF75CFC7F1CAF
:10448000202FD6DB40F6FE70844206DD2878401EE1
:104490002870BDE8F041FDF74EBC31E52DE9F05F35
:1044A000DC4C0020DA4F66686C3F0146034601226F
:1044B00002FA03F5354203D0FD5C854200D9284657
:1044C0005B1C202BF4D3D24DD4F80860403D002370
:1044D00002FA03F7374203D0EF5C8F4200D9394626
:1044E0005B1C202BF4D3DFF82483CB4D08F10408A8
:1044F00008F1010988F8000089F800102A68A8F17D
:10450000020AA8F1010B92F80A37DE077FD09B0759
:104510007DD502F259721479D37804F03F0403EB8D
:1045200004249579537905F03F0503EB0525167BA7
:10453000D37A06F03F0603EB0626977B537B12786F
:1045400007F03F0703EB072752060BD5631900EB73
:1045500043009AF80020F31910449BF8002001EB67
:1045600043010CE06219520002EB40029AF800008D
:104570001044F219520002EB41029BF80010114462
:10458000FEF7C1F9A449096801F20B72B1F80B37C3
:10459000834201D2A1F80B0791F80A07400734D5EE
:1045A00091F85907400617D5600040426B4291F8D8
:1045B0000B1700EB430001449AF80000081A88F832
:1045C000000070004042794200EB41001178014444
:1045D0009BF80000081A37E09AF8000063191844A5
:1045E000B1F80B17404201EB4000C0F3470188F8D7
:1045F00000109BF80000F11908441188404201EBBB
:104600004000C0F3470189F8001012E4FFE7814D34
:104610009AF800209BF800302D6802440B44FF26D6
:1046200045F080059A4209D2991A0844FF2802D819
:1046300088F8000047E588F800600AE09342F9D264
:10464000D01A0844FF2802D889F800003BE589F811
:104650000060256037E52DE9F0416D4C00206C3C91
:104660006C4B6D4A012105465F6801FA00F63E4237
:1046700009D01768265C97F84A71BE4202D9F61B2A
:10468000265400E02554401C2028EDD3604C403CCB
:104690005FF000009F6801FA00F63E4209D01768FB
:1046A000265C97F84A71BE4202D9F61B265400E0F8
:1046B0002554401C2028EDD3FFF7F0FEBDE8F04163
:1046C000FDF714BB2DE9F84F5148514D6C380646A3
:1046D000403D2C210AF06BF9402128460AF067F989
:1046E000FFF7DCFEFDF727FBFDF700FB04200324AA
:1046F000DFF820A1DFF820B100274FF0010900907A
:104700000220FFF75DFAE00727D04FF0000C624669
:104710006046534609FA00F1D3F8048011EA080F05
:1047200013D0596931F91280DBF80010B1F8381153
:10473000884509DA315CDDF800804FF0010C414416
:10474000FF2900DDFF213154521C401C2028E1D3F9
:10475000BCF1000F01D124F00104A00727D54FF0D0
:10476000000C62466046534609FA00F1D3F808800F
:1047700011EA080F13D0996931F91280DBF80010A3
:10478000B1F83C11884509DA295CDDF800804FF06A
:10479000010C4144FF2900DDFF212954521C401C1B
:1047A0002028E1D3BCF1000F01D124F0020444B170
:1047B000FFF774FEFDF7BFFAFDF798FA7F1C642F30
:1047C0009EDB032400270220FFF7FAF9E0072DD033
:1047D0004FF0000E714670465246DC46D2F8048017
:1047E00009FA00F313EA080F0FD05369DCF80080D0
:1047F00033F91130B8F83881434505DD335C1BB11E
:104800005B1E4FF0010E3354491C07E0F5FF010019
:10481000ACF801008001100028011000401C202885
:10482000DCD3BEF1000F01D124F00104A00724D590
:104830004FF0000E714670465246DC46D2F80880B2
:1048400009FA00F313EA080F0FD09369DCF800802F
:1048500033F91130B8F83C81434505DD2B5C1BB1C1
:104860005B1E4FF0010E2B54491C401C2028E5D341
:10487000BEF1000F01D124F00204002C08D0FFF794
:104880000DFEFDF758FAFDF731FA7F1C642F9ADB15
:10489000B9E59B4930B409680020034691F83021FE
:1048A00092070BD5974A91F8494101201578A54206
:1048B00003D9A5EB0404147000E0137091F83021C3
:1048C00052070CD58F4A91F84911521C40F0020052
:1048D00014788C4202D9611A117000E0137000281C
:1048E00001D030BCDAE530BC70472DE9F04784498F
:1048F0000024844D0868274690F83021920702D59D
:1049000001242F7002E090F83F212A70894690F828
:1049100030117D4E490703D544F00204377002E0A0
:1049200090F840013070002C74D02C2177480AF0A8
:104930003EF8764840212C300AF039F871482121A0
:10494000801E077071486C300AF031F86F483021D2
:104950008D300AF00AF86C49FF20891C0870491E46
:104960000870FDF7C3F9FDF787F9FDF7E4F9DFF803
:10497000A0814FF0100A00270220FFF721F9E0077D
:1049800022D0D8E9043C0020014605E03CF9112082
:10499000824200DD1046491C9942F7DBD9F800102D
:1049A000B1F83621824202DA2878401E08E0B1F8D8
:1049B0004B11814206DB28785044FF2800DDFF20A0
:1049C000287001E024F00104A00726D5002001464C
:1049D000D8F80CC0D8F8183006E000BF33F9112021
:1049E000824200DD1046491C6145F7DBD9F8001012
:1049F000B1F83A21824202DA3078401E08E0B1F87C
:104A00004B11814207DB30785044FF2800DDFF2046
:104A1000307002E00AE024F00204002C06D0FFF718
:104A20003DFDFDF788F97F1C202FA5DBBDE8F08751
:104A300070B5374C00202060FEF731F86060FEF75B
:104A400059F8A0606068042140086060201DFDF7EF
:104A500043FF2061042104F10800FDF73DFFE06001
:104A60000220FFF7ADF82B4E2169B06800EB410240
:104A70006261E26802EB410100EB4100A061FFF7D7
:104A800034FFFFF706FF1E4D286890F830018006BE
:104A900003D5FFF717FEFFF7DEFD286890F8300119
:104AA000000701D5FFF7B1FC286890F83001C00677
:104AB00001D5FFF7ADFBFDF73EF90220FFF780F8C7
:104AC000B068216900EB41026261E26802EB4101DA
:104AD00000EB4100A061FFF741FB216801430A4858
:104AE00021602A68C01C037892F8FB2763F3030255
:104AF0000270BDE8704041F0020004F039BB70471D
:104B000028011000F7FF0100F8FF010040F8010044
:104B1000800110002C3B100010B50146142294486F
:104B2000FEF716FA8021BDE810400120FBF79EBC7D
:104B3000F0B5904D06460C4628684FF0FF3197B00F
:104B400090F8B10000F00F00401C8140CF43684650
:104B5000FEF72EFA01208DF80000ADF8024028681B
:104B600000F5867001788DF8131044F00501ADF85A
:104B700002100297ADF81660AFF26301019141781F
:104B80008DF8141080787A4D8DF81A000324684649
:104B9000FCF752FD15AB002280210120FBF7B5FC8C
:104BA00080210120FBF790FC2878002804D0FDF735
:104BB00014FC641E002CEADC17B0F0BD2DE9F047B0
:104BC0006C4D4FF00009DFF8A881286800F570707F
:104BD0000478467887781AE049462046FFF7A8FF10
:104BE000D8F8040007F084FD0146286890F80B21EE
:104BF00012F00F0000D1012012094A43B2FBF0F07D
:104C000082B22146302004F0F6FAE01984B2B442B0
:104C1000E2DDBDE8F0872DE9FF5F4FF6FF764FF04C
:104C2000000A93460F46804634465546DFF84491C5
:104C30001CE000BF38F815005146FFF779FF4C48DB
:104C4000406807F055FDD9F8001091F80B2112F0DB
:104C50000F0100D1012112094243B2FBF1F080B2F1
:104C6000A04202D238F8156004466D1CBD42E1DB5B
:104C7000ABF8006003980480BDE8FF9F2DE9F04188
:104C80003C4E05468846306888B090F8D12002F046
:104C90000F01C2F30214491C641C0A2900DD0A2119
:104CA000022C00DD0224D23006AB05AAFFF7B3FFC9
:104CB000326892F8D00080071BD5BDF8146001213E
:104CC000E632ADF8006000204FF4803C6F4607E00C
:104CD00013563344634502D227F81130491C401C57
:104CE000A042F5DB002904DD06AB05AA3846FFF734
:104CF00092FFBDF814002880BDF81810A8F8001025
:104D000008B0BDE8F0817CB50020FBF79AFC1A4C96
:104D100001A968466588FFF7B1FF164E3068B0F804
:104D2000FA10BDF80400814201D9218000E0208002
:104D3000BDF8000060800020FBF79EFCBDF800007D
:104D4000854207D0306890F8D000400702D56088CF
:104D5000FEF7FAFD09490120087009490870094960
:104D60000870BDF800202946092004F027FA7CBD10
:104D7000403B100028011000EC2210003E01100002
:104D800067011000760110002DE9F0410178CE4C4A
:104D900001B1217001461422CC48FEF7D9F8CC4865
:104DA000016891F8C527D307C84A01D0136900E00C
:104DB00093684A7D6168C74D4A43002106E000BF01
:104DC00033F811605718491C25F817600668767D7E
:104DD0008E42F5DC6268521C62600168497D01FB0D
:104DE00002F6002207E08F1806EB020C33F817706A
:104DF00025F81C70521C07687F7D9742F3DC6168C0
:104E00000123491C6160006890F8B12003EB121285
:104E100091421DDA90F80A27D20713D090F8BA030E
:104E200089B200F00F00B1FBF0F200FB1211A748AD
:104E300054380029418802D041F0020101E021F0FC
:104E400002014180BDE8F041A0485438FCF7F4BBB2
:104E5000BDE8F04180210120FBF708BB2DE9FF4FA1
:104E6000DFF868B24FF6FF74002581B08A46A0468D
:104E7000ABF1540BA946944E5CE094485438FEF7CD
:104E800097F8934A116891F8C507C00701D010231D
:104E900000E002238BF80030019830F81530ABF8B1
:104EA0003030BBF8023043F00403ABF80230AFF20D
:104EB000271301F2C931CBF804300A788BF834207B
:104EC000CA788BF836204A788BF8392089788BF8A5
:104ED0003A100327C6F804907C4886F800905438AE
:104EE000FCF7AAFB6B46002280210120FBF70DFB9B
:104EF00080210120FBF7E8FA307820B1FDF76DFA48
:104F00007F1E002FE8DC734802F011FC704909682D
:104F100091F8C82312F00F0100D101211209424378
:104F200090B2B0FBF1F0A04203D20199044631F8EF
:104F300015806D1C5545A0DB0399A1F800800498ED
:104F4000048005B0BDE8F08F2DE9F041604D0646C4
:104F5000884628688CB000F2823C00F2963790F8C0
:104F6000810300F00F01C0F30214491C641C0A29DC
:104F700000DD0A21022C00DD02240AAB09AA6046EA
:104F8000FFF76CFF286890F8800380071AD5BDF8FA
:104F900024300121ADF8003000204FF4803C6D46F4
:104FA00007E03A561A44624502D225F81120491CFE
:104FB000401CA042F5DB012904DD0AAB09AA284602
:104FC000FFF74CFFBDF824003080BDF82810A8F88A
:104FD00000100CB0BDE8F0817CB50020FBF731FB80
:104FE0003D4C01A96846E588FFF7AEFF38480168E7
:104FF000BDF80400B1F8AC23824201D9A28000E0E0
:10500000A080BDF80000E0802081854205D091F8A5
:105010008013490701D5FEF7E8FC304901200870EC
:105020002F4908700020FBF727FBBDF80020294618
:105030000A2004F0C3F87CBD2DE9F843244DDFF8C5
:105040008C802868A8F1540800F2C3300488468890
:10505000077934E01D485438FDF7AAFF286890F816
:10506000C507C00701D0102100E0022188F8001018
:10507000A8F83040B8F8021041F00401A8F8021076
:10508000AFF2FB21C8F804100F49002048600F4818
:105090005438FCF7D1FA6B46002280210120FBF73F
:1050A00034FA80210120FBF70FFA0A4802F03FFB97
:1050B00002462146312004F09EF8E01984B2B44241
:1050C000C8DDBDE8F88300009C011000A83B10007B
:1050D00028011000488F0120EC2210003E01100032
:1050E000670110002DE9F041174604460D460026E1
:1050F00009E0E00703D03146384603F097FF761CFD
:105100006D084FEA340454EA0500F2D1BDE8F0819D
:1051100030B5034600204FF0FF32012505FA00F4B8
:105120000C4202D0521C9A4203D0401C2028F5D3D6
:10513000002030BDF0B50E46F94C07460125D4E9F4
:10514000151005FA06F20F2F65D2DFE807F0644369
:105150004B08106464192129323A54585C003046D7
:10516000FFF7D6FF8540A06A0543A56253E00146DC
:105170003046FFF7CDFF8540206C054325644AE0AB
:105180003046FFF7C5FF8540E06A0543E56242E02F
:105190003046FFF7BDFF8540206B054325633AE0AD
:1051A00001463046FFF7B4FF8540A06C0543A56477
:1051B00031E03046FFF7ACFF8540606B0543656327
:1051C00029E001463046FFF7A3FF8540E06C054328
:1051D000E56420E03046FFF79BFF8540606A0543A9
:1051E000656218E001463046FFF792FF8540E06BAC
:1051F0000543E5630FE0A06B0243A2630BE0206D63
:105200000243226507E001463046FFF781FF8540F3
:10521000606C054365642068401C2060F0BD10B5DB
:1052200001461422BF48FDF793FE8021BDE81040DF
:105230000120FBF71BB910B5FDF724FC0446FDF770
:10524000ABFC204310BD10B5FDF70EFC4408FDF784
:1052500081FC44EA5000400010BD2DE9F04789462A
:1052600005464FF0FF34FFF7E6FFAD4F0246002042
:105270007B6801464FF0010C0CFA01F6164200D093
:10528000641CAC4206D1B9F1010F09D022EA060034
:105290000B462021491C2029EED37B60BDE8F08716
:1052A0003046F5E72DE9F047894605464FF0FF34D3
:1052B000FFF7C9FF9A4F02460020D7F80430014695
:1052C0004FF0010C0CFA01F6164200D0641CAC42FF
:1052D00006D1B9F1010F08D022EA06000B461E21C3
:1052E000491C1E29EED37B60D8E73046F6E72DE94E
:1052F000F34F9BB004466846FDF75AFE15A8FCF72D
:105300003AFFFFF7A0FF864E40087065FFF793FF56
:10531000854D4FF00C084FF01F094FF0400A4FF039
:10532000910BB065012C0DD02027022C23D0032C2B
:1053300027D0042C2AD0052C31D0062C4FD0082C95
:1053400065D073E0FDF75CFC0290FDF75FFC039015
:1053500001208DF800008DF81AB03C20ADF818003F
:105360000298ADF816808DF814908DF813A04008BF
:105370007065039859E0FFF766FF0A90FFF75BFF3F
:1053800014E0FFF758FF01210B9003E0FFF753FFF4
:1053900000210B901C98FFF785FF0A9007E0FFF7AC
:1053A00052FF0A9001211C98FFF757FF0B908DF8D0
:1053B0000070286800F55A7081788DF83410C17833
:1053C0008DF8391001788DF83A1041788DF83B103E
:1053D0008188ADF830100089ADF8320026E0FFF783
:1053E00032FF0A90FFF727FF0B908DF800702868B6
:1053F00000F2613081788DF83410C1788DF8391061
:1054000001788DF83A1040788DF83B000EE00820C6
:105410008DF80000ADF816808DF814908DF813A06B
:105420008DF81AB0089870650998B0650020BDF82D
:1054300002108DF8360021F030018DF8100041F097
:105440004A018DF835008DF81200ADF80210AFF268
:10545000312103260191012C13D0092C24D00A2CD0
:1054600022D000BF8DF85E008DF860008DF85F00DF
:10547000022C10D0032C0ED0042C0CD0052C0AD0FA
:1054800012E0296891F84D178DF8580041F003019A
:105490008DF85410E6E72868B0F86E13ADF85A108E
:1054A000B0F87203ADF85C0015A8FCF785FE1D4C42
:1054B0006846FCF7C1F819AB002280210120FBF7F8
:1054C00024F880210120FAF7FFFF2078002804D07B
:1054D000FCF783FF761E002EEADC1DB0BDE8F08FDE
:1054E0002DE9FC5F00210120FFF701FF0D4847680F
:1054F000FDF786FB0190FDF789FB0090042101A8D0
:10550000FDF7EAF9064604216846FDF7E5F9844609
:1055100000200546DFF808B0DFF80CA0009059E045
:10552000A4011000BC3B1000280110004FF000083F
:10553000C1465C462846DBF85810FFF7E9FD0146F6
:1055400001208840A16C084243D1012432E000BF11
:1055500004FB0C51DAF8000037F9112090F86703CA
:10556000B2EB001F25DA08F10108B9F1000F00D1F4
:10557000A146721E94421CD1B8F1010F19D1ACF1B1
:105580000102954204D1611E0120FFF7D3FD0EE018
:1055900007EB4101B1F90220B2EB001F05DB35B189
:1055A00031F9021CB1EB001F01DA002000E00220FB
:1055B0008046641CB442CBDBA6EB0901414508D808
:1055C00029460220FFF7B6FD01200099A8400843B4
:1055D00000906D1C6545A9DB01253AE04FF00008FD
:1055E00044462CE0DBF84030DBF8482000201A432A
:1055F00011D0D9462046DBF85810FFF789FD014647
:1056000001208840D9F84810084203D1D9F8401049
:10561000084000D0012005FB0C4137F91120DAF8D1
:10562000001091F86713B2EB011F07DA30B90120BF
:105630000099A040084201D108F10108641C6445AA
:10564000D0DBB8F1000F03D0691E0120FFF772FD17
:105650006D1CB542C2DBBDE8FC9F2DE9F041FF4C5B
:1056600000200546FE4FDFF8FC83A0611EE02946BE
:105670000520FFF73CFE21690120BE6800EB410CCC
:1056800036F91C10D8F8000090F87703B1EB001F32
:1056900003D929460E20FFF74DFD36F91C00A169FC
:1056A000884202DD36F91C00A0616D1C60698542EC
:1056B000DDD32BE52DE9F04700263746314608209B
:1056C000FFF715FEE648E74D0021D0F80CC028682A
:1056D000012400F5F57990F8E82100BF04FA01F300
:1056E0001A4208D03CF9113090F87D83B3EB081FC3
:1056F00000DA761C7F1C491C0629EFDBBE420BD169
:1057000090F8E611C90790F8E91101D00D2000E0EA
:105710000C20BDE8F0470DE5002E1CD000262868BF
:1057200004FA06F290F8E811114211D03CF9161073
:1057300090F87D23B1EB021F0ADA90F8E60119F820
:105740000610C00701D00C2000E00D20FFF7F2FC8E
:10575000761C062EE3DBA1E52DE9F04100210620B1
:10576000FFF7C5FDBE480025BE4EBC4C87680EE065
:10577000E0683168284437F9100091F86513B0EB00
:10578000011F03DD29460A20FFF7D4FC6D1C2069A8
:105790008542EDDB00250EE0A0683168284437F92A
:1057A000100091F86613B0EB011F03DD29460B20B2
:1057B000FFF7C0FC6D1C60698542EDDBA6E42DE9B6
:1057C000F041A64C00200646206237E03146042016
:1057D000FFF78DFDA248002587682BE0FFF72BFD22
:1057E00001462846FFF794FC014601208840216CC1
:1057F00008421ED19B49A0682844096807EB400075
:1058000030F9040C91F87813B0EB011F07D9314639
:105810000820FFF78FFC29460920FFF78BFCA068C2
:10582000216A284407EB400030F9040C884200DD6F
:1058300020626D1C60698542D0D3761C2069864247
:10584000C4D363E42DE9F041844C00200546844F25
:10585000DFF81082E0611AE029460320FFF747FDD8
:10586000BE68B6F90210D8F8000090F87603B1EBE4
:10587000001F03D929460720FFF75CFCB6F9020098
:10588000E169884202DDB6F90200E0616D1C206921
:105890008542E1D33AE42DE9F04100210220FFF7EF
:1058A00026FD6F486F4D6D4C8768286890F860033F
:1058B000000713D500260EE0E0682968304437F968
:1058C000100091F87413B0EB011F03D93146032087
:1058D000FFF730FC761C20698642EDDB286890F8E3
:1058E0006003C00613D500260EE0A0682968304486
:1058F00037F9100091F87513B0EB011F03D9314649
:105900000420FFF717FC761C60698642EDDBD0E6C9
:105910002DE9FC410020FAF794FE4FF4F83040F6F0
:10592000FD0109F022F8FCF706FAFCF7DFF9FCF7B5
:1059300036F94A4C00202060FFF785FC0090FFF705
:105940007AFC019004216846FCF7C6FF0546042155
:1059500001A8FCF7C1FF014600EB4500C4E90205C0
:10596000C4E904513F4D286890F86003010701D451
:10597000C00601D5FFF78FFF286890F86003800606
:1059800001D5FFF75FFF286890F86003000601D596
:10599000FFF715FF286890F86003C00701D0FFF7F4
:1059A000DBFE286890F86013490704D590F8E801F9
:1059B00008B1FFF77FFE286890F86003400601D524
:1059C000FFF74BFE286890F86003800701D5FFF7CA
:1059D00087FD2068002862D0D4E90A359D43E5623E
:1059E000606AD4E90F179843A8436062666CB943B4
:1059F000B143E163A26B216D9A43AA43256BB9437E
:105A0000AA43A263A26CB1439143AB43A362216555
:105A100001220021FFF766FB02220021E06BFFF765
:105A200061FB03220021A06AFFF75CFB0422002136
:105A3000206CFFF757FB07220021E06AFFF752FBBB
:105A400008220021206BFFF74DFB09220021A06CEA
:105A5000FFF748FB0A220021606B05E0A40110005B
:105A6000BC3B100028011000FFF73CFB0B2200217B
:105A7000E06CFFF737FB0C220021A06BFFF732FB35
:105A80000D220021206DFFF72DFB0E220021606CFE
:105A9000FFF728FB0020FAF7EFFDBDE8FC810021AD
:105AA000084603F0C3FAF5E708B55A4D5A4E0024EC
:105AB000287880B10128FBD16B46002242F27D712B
:105AC000FAF723FD0098C1071ED001210846FAF716
:105AD000FBFC2C70ECE701210020FDF798F86B46E9
