:100000005555AAAA850300000209092014000A0018
:100010008AF1000000000000000000004748B6C35D
:1000200000021000E1070000890200009F020000AA
:10003000B5020000CB020000E10200000000000059
:10004000000000000000000000000000292A00005D
:100050002D2A000000000000F70200002F2A0000F7
:10006000312A000057280000E12A00008F280000F4
:10007000492A00007D2A00008B2A0000992A0000EE
:10008000AB2A0000AD2A0000AF2A0000CD2A0000F4
:10009000CF2A0000E32A000000000000000000005A
:1000A000E52A0000E72A0000000000000000000030
:1000B00000000000E92A0000EB2A0000A52800004B
:1000C000ED2A0000FB2A000009030000132B0000AA
:1000D000152B0000000000000000000000000000E0
:1000E0008503000000F002F800F05AF80AA090E83A
:1000F000000C82448344AAF10107DA4501D100F0E3
:100100004FF8AFF2090EBAE80F0013F0010F18BF55
:10011000FB1A43F001031847903E0100B03E010076
:100120000A444FF0000C10F8013B13F0070408BF1D
:1001300010F8014B1D1108BF10F8015B641E05D0BB
:1001400010F8016B641E01F8016BF9D113F0080F70
:100150001EBF10F8014BAD1C0C1B09D16D1E58BF02
:1001600001F801CBFAD505E014F8016B01F8016B39
:100170006D1EF9D59142D6D37047000000230024AC
:1001800000250026103A28BF78C1FBD8520728BFA7
:1001900030C148BF0B6070471FB51FBD10B510BD03
:1001A000DFF80CD0FFF7F8FF02F0DCFD13F056FC8F
:1001B0000002100003B4FFF7F1FF03BC13F056FC7C
:1001C0000A484FF0FF0101704FF0000080F31188E2
:1001D0004FF0000080F3098805484FF002010170DC
:1001E00062B604484FF080510160704722ED00E094
:1001F0000002100004ED00E002484FF08051016061
:100200007047000004ED00E04FF0200080F31188FB
:10021000EFF3098098B112480068124909688842D2
:1002200017D0EFF309800E49096820E9F00F8860C4
:1002300000B50B48006800F0F2F85DF804EB0848E0
:1002400008490A68026000688168B1E8F00F81F32C
:1002500009884EF0040E4FF0000080F311887047BB
:100260000402100008021000EFF311804FF020018B
:1002700081F31188704700004FF0000080F311886F
:100280007047000062B6704772B6704740BA704758
:10029000C0BA7047401E0028FCDC704700BE7047A3
:1002A00040BA7047C0BA70471EF0040F0CBFEFF39E
:1002B0000880EFF309804FF0010102F021BB1EF02E
:1002C000040F0CBFEFF30880EFF309804FF0020139
:1002D00002F016BB1EF0040F0CBFEFF30880EFF323
:1002E00009804FF0030102F00BBB1EF0040F0CBF9E
:1002F000EFF30880EFF309804FF0040102F000BB38
:100300001EF0040F0CBFEFF30880EFF309804FF0ED
:10031000050102F0F5BA4FF0000000B503F025FA30
:100320005DF804EBFFF770BF1EF0040F0CBFEFF396
:100330000880EFF309804FF0000102F0E1BA0000FD
:10034000194910B5012008701849002008601849A3
:100350000860184908601849086000F0A7F900F023
:1003600039F900F063F8002010BD10B5114800F015
:1003700018F90F4908600D490968884207D00A48F2
:100380000078022803D1BDE81040FFF735BF10BD4B
:1003900010B5FFF7EAFF044902200870FFF710FFCD
:1003A0004FF0FF3010BD00000002100004021000EA
:1003B000080210000C0210001002100070B50D466B
:1003C0000446C1698068CC2213F04BFAE169A06849
:1003D000084440384FF08071C163216A8163002175
:1003E00041630163C1628162C0E908514FF00B3182
:1003F000C1614FF00A3181614FF0093141614FF025
:10040000083101614FF00731C1604FF00631816062
:100410004FF0053141604FF00431016070BD8269D9
:100420008168914201D802F04CBD704710B54FF47D
:10043000B471464813F03FFA002010BD70B5054670
:1004400000EBC501414800EB8104FFF70DFF0646B4
:10045000207828B13046FFF70FFF6FF0010070BD24
:100460000320207000206560206204F11C0000F071
:1004700071F83046FFF700FF002070BD2DE9F04114
:100480000F463249002500EBC00001EB80042E46E8
:10049000FFF7EAFE8046206A3843206204F11C0020
:1004A000074600F07EF80CE0216A026C114203D08E
:1004B00000F054F9012600E06D1C2946384600F092
:1004C00066F80028F0D1012E01D1FFF74EFF40461B
:1004D000FFF7D2FE0020BDE8F08170B50D461B4944
:1004E00000EBC00001EB8004FFF7BEFE216AA943C8
:1004F0002162FFF7C1FE002070BD2DE9F0410D46DD
:10050000124900EBC0001E46904601EB8004FFF745
:10051000ABFE07460E4800680564216A294203D1F4
:1005200004F11C0100F02CF93846FFF7A5FEFFF797
:100530009BFE216A29403160B8F1010F02D1216A86
:10054000A9432162FFF798FE0020C4E7C40510000C
:1005500004021000002101600846704730B50A68A7
:1005600012B10B46C46B09E000220860C0E9032108
:100570000BE000BF02F10C03D26812B1D56BA542AB
:10058000F8DC1A68C0E903211860002030BD00685B
:10059000002201E0C068521C8A4201D00028F9D133
:1005A00070470068704702690AB1116831B96FF08D
:1005B0000400704701F10C02C96839B18142F9D1D8
:1005C000C968116000210161084670476FF003009F
:1005D0007047000010B54FF4C871324813F06BF942
:1005E000002010BD2DE9F041884605462D4900EB5D
:1005F0008500174601EBC004FFF736FE064620785B
:1006000030B13046FFF738FE6FF00100BDE8F081F1
:1006100002202070E7611422414604F10800656061
:1006200013F0DAF80020206204F12400FFF792FFB3
:100630003046FFF721FE0020E8E770B5194900EBCE
:10064000800001EBC004FFF70FFE0546D4E9070167
:10065000814205DB144804F12401006800F090F8A1
:10066000206A401C20622846FFF706FE002070BD6D
:1006700070B50C4900EB800001EBC004FFF7F4FDFE
:100680000546206A08B1401E206204F12400FFF7ED
:1006900088FF10B1606A00F011F82846FFF7ECFD02
:1006A000002070BD2C0710000402100010B54FF49C
:1006B0002A71404813F0FFF8002010BD10B5044621
:1006C00090F8380002280BD02046FFF76CFF02207C
:1006D00084F8380038492046FFF740FFFFF745FE11
:1006E000002010BD2DE9F05F8B460646314900EB36
:1006F00006109046DDE90AA911F820201D461AB11E
:100700006FF00100BDE8F09F01EB8004FFF7ACFD46
:10071000074601202070C4E90165C4E90585C4E9E4
:1007200007A91422594604F1240013F055F80020BB
:1007300084F8370084F838006169E0602061C4E91A
:100740000F1020460C99FFF739FEA0602046FFF7F6
:10075000B5FF3846FFF790FD0020D3E710B50446FB
:1007600090F83800022809D02046FFF71CFF02202D
:1007700084F8380010492046FFF7F0FE002010BD35
:1007800070B5044690F838000D4602280BD120467B
:10079000FFF709FF032084F8380029462046FFF7B9
:1007A000DDFEFFF7E2FD002070BD044800684068F0
:1007B00070470000BC0810000C021000040210007A
:1007C000F0B58446002004460C4F14E05CF8246029
:1007D0000323DD0046FA05F280EA026008250028BE
:1007E00002DA87EA400000E040006D1E002DF6DCD2
:1007F0005B1EEED5641C8C42E8DBF0BD1B00008064
:100800001248804712480047FEE7FEE7FEE7FEE792
:10081000FEE7FEE7FEE7FEE7FEE7FEE7FEE7FEE7B0
:10082000FEE7FEE7FEE7FEE7FEE7FEE7FEE7FEE7A0
:10083000FEE7FEE7FEE7FEE7FEE7FEE7FEE7FEE790
:10084000FEE7FEE7FEE7FEE7FEE70000890800009E
:10085000C50000001E4800684FF00051002891F8C4
:10086000210000F01C000DD0042805D0082805D078
:100870000C2805D096200CE011200AE0252008E085
:100880004B2006E0042809D0082809D00C2809D0FC
:100890007020401E01F82C0F087070470C20F8E7FC
:1008A0001B20F6E73720F4E770470A4993200870C9
:1008B000D0E708490B200870CCE70548006818B954
:1008C00004480078932801D0002070470120704729
:1008D000340400222100002070B5042000F058F9F3
:1008E000052000F055F9062000F052F9072000F02D
:1008F0004FF9082000F04CF9182000F049F91920B0
:1009000000F046F91A2000F043F9B34900200860CE
:10091000B14A40321060B04B183B1860AE4B083300
:100920001860AE4CE071AC4B143B1860AA4B0C3312
:1009300018602072A84B103B1860A74B103318604A
:100940006072A54B0C3B1860A34B14331860A07267
:10095000A14B083B1860A04B18331860E0729E4B07
:1009600028331860A0731E1D3060E073331D1860BB
:10097000207401250D60156025700621042000F00B
:100980001FF90621052000F01BF90621084600F09A
:1009900017F90621072000F013F90621082000F0BE
:1009A0000FF90621182000F00BF90621192000F09C
:1009B00007F904211A2000F003F9042000F0F4F8EC
:1009C000052000F0F1F8062000F0EEF8072000F016
:1009D000EBF8082000F0E8F8182000F0E5F81920FE
:1009E00000F0E2F81A2000F0DFF8042000F0C4F86C
:1009F000052000F0C1F8062000F0BEF8072000F046
:100A0000BBF8082000F0B8F8182000F0B5F81A205C
:100A100000F0B2F8FF20E070356070BD00EB8000A0
:100A20006D494000002218390A606C4A521F10704C
:100A30000120086070476849002018390860704735
:100A40006549002014390860704700EB8000624956
:100A50004000002210390A60604AD21E1070012046
:100A6000086070475C49002010390860704700EB4F
:100A700080005949400000220C390A60574A921EF2
:100A80001070012008607047534900200C3908603D
:100A90007047514A10B5283214680123D1065CB161
:100AA0000024146081F8350091F8420091F842402A
:100AB0008442FBD0136010BD81F83500FAE700EBEB
:100AC000C00101EB00106FF0030101EB800010B5D5
:100AD0004349444C0978B0FBF1F0401E80B2FF2836
:100AE0000CD9010A2170494200EB01206070FF20FF
:100AF000FFF7CFFF2078401E207010BD002121702D
:100B00006170BDE81040C0B2C3E7334828300168C7
:100B1000002909D000210160C10691F8420000BF00
:100B200091F842208242FBD0704710B52D4C2178BD
:100B3000607851EA000207D051B1FF20FFF7A9FF0A
:100B40002078401E207010BDBDE8104009F06CBD3B
:100B5000FFF79FFF0020607010BD10B5214C0023EF
:100B6000608830B11920FFF759FF6088401E60800F
:100B700000E00123184610BD00F01F020121914042
:100B800040094FF0E02202EB8000C0F800117047EE
:100B900000F01F020121914040094FF0E02202EBDA
:100BA0008000C0F88011704700F01F0201219140C1
:100BB00040094FF0E02202EB8000C0F8801270473D
:100BC0004907090E002803DA00F00F00064A00E08A
:100BD000064A8154704700001C05002233000020A3
:100BE000930210001402100014ED00E000E400E095
:100BF00049480121016000210160704747480121F7
:100C0000016000210160704710B5002000F06BF812
:100C1000FFF7F4FFFFF7ECFF41490020086041496E
:100C2000A0200870002000F06AF8BDE81040002005
:100C300000F04DB83A4801211C38016000210160E4
:100C4000704710B5002000F04EF8334901200860CD
:100C5000002000F054F8BDE81040002000F037B844
:100C60002D4901201C39086070472F4800782E4913
:100C7000491C0978401A00F03F0070472B49027860
:100C80000A7042784A7082788A70C278CA70027993
:100C90000A7142794A7182798A71C079C871704744
:100CA00023480068417882784FF00050437A0374FB
:100CB000204B1B78437443891B0A83744389C37494
:100CC00001754275C1798175017AC175704700F06F
:100CD0001F020121914040094FF0E02202EB800009
:100CE000C0F80011704700F01F0201219140400937
:100CF0004FF0E02202EB8000C0F88011704700F056
:100D00001F020121914040094FF0E02202EB8000D8
:100D1000C0F88012704700005C840022A00000220E
:100D20007C04002200E400E02004002000020020F7
:100D3000380210008802100010B5092000F054F8A5
:100D40000A2000F051F8092000F05AF80A2000F0BB
:100D500057F80521092000F05FF805210A2000F06E
:100D60005BF833487F2141707C2282700171002141
:100D700000F848192F490A684FF0010192F8C8306D
:100D8000DC070AD09C0708D590F84A40C3F38203D9
:100D900001FA03F39C4380F84A4092F81131DC07D2
:100DA00021D0C3F34203012B03D0234B4FF48064C3
:100DB0001C604830837802F211121478C4F34204A4
:100DC00001FA04F4A343837003791478C4F3420452
:100DD00001FA04F42343037103781278C2F3420248
:100DE00091400B43037010BD00F01F0201219140A0
:100DF00040094FF0E02202EB8000C0F880117047FC
:100E000000F01F020121914040094FF0E02202EB67
:100E10008000C0F8801270474907090E002803DAE5
:100E200000F00F00054A00E0054A815470470000B9
:100E3000480000203802100000E100E014ED00E05E
:100E400000E400E0704710B5044602462A21002065
:100E500000F060F9221D2B21002000F05BF904F165
:100E600008022C21002000F055F92068000E03280C
:100E700025D104F110022D21002000F04BF904F1DE
:100E80000C022E21002000F045F904F118022F2158
:100E9000002000F03FF904F114023021002000F09E
:100EA00039F904F120023121002000F033F904F176
:100EB0001C023221BDE81040002000F02BB910BD0B
:100EC00010B5BE4C072060700020207044F2C000B6
:100ED000608000BF00BF00BF4CF2C000608000BF58
:100EE00000BF00BF4CF2E00060800920FFF7D2F99C
:100EF00044F2E000608000BF00BF00BF4FF48040BC
:100F0000608010BDF0B500252E464FF00054E0275C
:100F100017E000BF883401F03F01607021706780E6
:100F200000BF00BF00BFD4F808C043F825C06680EA
:100F3000883C00BF6D1C521E491C3F2901D9401C32
:100F4000C0B2002AE6DCF0BD2DE9F0479B4D00263B
:100F5000AD1C04462E80DFF868920121C9F880108C
:100F60004FF4C058A5F8008000BF00BF00BF00BF0D
:100F700000BF4FF480572F803520FFF78BF92E806C
:100F8000FFF79EFF00F0DCF85C2000F0EAF8234653
:100F9000012208210020FFF7B5FF231D01220921AE
:100FA0000020FFF7AFFF04F1080301220A2100200F
:100FB000FFF7A8FF04F10C0301220B210020FFF72B
:100FC000A1FF04F1100301220C210020FFF79AFF7A
:100FD00004F1140301220D210020FFF793FF00F01C
:100FE000AFF8FFF76DFF2F8000BF00BF00BF00BF4D
:100FF00000BF00BF00BF00BF00BF00BFA5F800805A
:1010000000BF00BF00BF00BF00BF4FF4406028809A
:10101000C9F88060BDE8F087F0B54FF0000C059C82
:101020000CB14FF0800CC5B200264FF00057644C55
:1010300028E000BF87F889504FEAC05EBEF1000F7C
:1010400001F03F0E4EEA0C0E01DA4EF0400E87F82A
:1010500088E053F826E0C7F88CE04FF0010EC4F8A2
:10106000B0E04FF0000EC4F8B0E0491CC9B240290E
:1010700002D36D1CEDB20021D4F8C0E0BEF1000F28
:10108000FAD1761C9642D5DBF0BD4FF0005282F8C3
:101090008900002309B1802002E0C00503D540206B
:1010A00082F8880001E082F8883045480121C0F8C4
:1010B000AC10C0F8AC3000BFD0F8C0100029FBD194
:1010C0007047F8B50C4605464FF4F47600213046DB
:1010D000FFF7DBFF0020014600902B4622463046FA
:1010E000FFF79AFFF8BDF8B50C4605464FF4F876C1
:1010F00000213046FFF7C9FF00214FF4FC70FFF7D5
:10110000C4FF0020014600902B4622463046FFF7E0
:1011100083FFF8BD294B587041F0800003F888091F
:1011200027480021B4300160012140F8B41900BF04
:10113000D0F8C0100029FBD1D3F8900010607047A0
:1011400010B51E4C4FF48040A41C20800420FFF7F3
:10115000A1F80020208000BF00BF00BF00BF00BF7B
:1011600010BD70B5154C2126A41C268000BF00BF01
:1011700000BF00BF00BF40F02105258000BF00BFB9
:1011800000BF00BF00BF44F22101084320800420BB
:10119000FFF780F8258000BF00BF00BF00BF00BF81
:1011A000268000BF00BF00BF00BF00BF002020801E
:1011B00000BF00BF00BF00BF00BF70BD880000209F
:1011C00000100022F8B5FF4C002635462670E66078
:1011D000266166610120A66100F024FF0C2000F06A
:1011E00021FF032000F01EFF172000F01BFF01204D
:1011F00000F024FF0C2000F021FF032000F01EFF70
:10120000172000F01BFF01F0D1F86A460221EE48DA
:1012100001F019FBED499DF8010008709DF80000F0
:10122000442800D004260521012000F013FF0521E9
:101230000C2000F00FFF0621032000F00BFF062119
:10124000172000F007FF012000F0E0FE032000F06F
:10125000DDFE172000F0DAFEA5706570E5703046FF
:10126000F8BD70B5D74B1889C0F38001C0F34016A4
:10127000C0F300247140C0F3C0226140C0F3803548
:1012800051406940400840EAC130188170BD38B50E
:101290000D46009014460421684601F019FECC4921
:1012A0008978C90602D5062D00D1401C0099216518
:1012B00084F84C0038BD2DE9F047C64D0646C44CB5
:1012C000286890F83404C00718D0608840F0800087
:1012D0006080FFF7C6FF296800F00700084490F817
:1012E000350484F83900FFF7BCFF2968C0F3021009
:1012F000084490F83504800084F838004FF0000A64
:1013000084F845A028684FF002084FF0E90990F8EA
:1013100045176175B049042EC1F30E0706D0032EA0
:101320001FD0022E41D0052E5CD082E0A84A314663
:10133000E06AFFF7ACFF206BA065A4F84670A078C8
:1013400080060028286890F8590703DA20F0060084
:1013500040F0040084F84A0084F84B8084F84890F8
:1013600067E09B4A3146E06AFFF791FF206BA0657A
:10137000974804212C3001F0ABFD974901EB800028
:10138000C0F30E00A4F84600A07880060028286864
:1013900090F8590703DA20F0060040F0040084F8C2
:1013A0004A0084F84B80ED2019E0894A3146E06A12
:1013B000FFF76DFF206BA065A4F84670A07880064B
:1013C0000028286890F8590703DA20F0060040F05A
:1013D000040084F84A00042084F84B00E52084F8D7
:1013E000480026E0A178890623D500F2C9302C34C4
:1013F00001782174C178A1744178A1758078E07575
:1014000001206076724A31462068FFF740FF72483B
:10141000F830C0F30E006083286890F8590720F078
:10142000060040F00200A07784F81F8084F81C902A
:101430002C3C286890F80A17C907A1784FEA8171F7
:101440001CD000291CDB90F80907C0070DD0002133
:10145000012002F0C0FA94F8490020F00300801C3B
:1014600084F84900A4F83AA013E00121084602F0EC
:10147000B2FA94F8490040F0030008E0002904DAC9
:1014800090F86C0720F0030001E090F86C0784F8F6
:101490004900607D20F0040060754A484670BDE850
:1014A000F0474B4801F08CB84A484949006890F829
:1014B000002281F8212090F80122CA754A88D205BD
:1014C00004D490F8022202F00F028A7500F2032081
:1014D000027802F03F020A76B0F801208A83C278CF
:1014E0008A773E4A0079127800F0F00040EA121044
:1014F000C87770472DE9F047354C0546002084F841
:101500004500344FE12084F848003868DFF8CC907B
:101510002C4E90F84517617590F80A175FEAC1786C
:101520002146B1F802C0CB7D0CF0FF024CF0010166
:1015300004D05FEA8C7C01D4012D08D0DFF8A080B4
:10154000072D0BD0062D4DD0082D69D032E0337118
:1015500072710A22E2756180214911E03371727162
:101560006180417D027D4B1C94F85CC003FB02F15D
:10157000BCF1010F02D902FB0CF1594308EB410108
:10158000C1F30E01A4F8461090F8531799F8002003
:1015900001F0F00102F00F021143E17790F85507D6
:1015A00084F821000A4A29465FF00100FFF76FFE28
:1015B0002069A06560884107617D3FD521F0040165
:1015C00042E0000018021000041000208802100001
:1015D000640B100038021000009E0120F6FF01008D
:1015E00000800120427D338B017D521C5A435143C0
:1015F00008EB4101C1F30E01A4F8461090F853170F
:1016000099F8002001F0F00102F00F021143E17798
:1016100090F8550784F82100FE4A2946E068C5E79E
:10162000FD48C0F30E00A4F84600FFF73DFFF94A5D
:101630002946606AFFF72BFEA06ABAE73A6892F87B
:10164000452702F0040211436175C10705D094F8E3
:10165000481041F0020184F8481039684FEA807060
:1016600091F80A27D2071CD000281CDB062D04D0D5
:10167000082D02D0012D09D01EE03A34E07B20F085
:101680000300E073B1F86E07208015E0002101200F
:1016900002F0A1F914F8490F20F00300801C20701B
:1016A0000AE0002804DA91F86C0720F0030001E05A
:1016B00091F86C0784F849007570BDE8F047D5488B
:1016C00000F011BF06280ED008280CD001280AD03F
:1016D000072808D0042805D0032803D0052801D006
:1016E000022801D1E7E505E770472DE9F84FCB4D1A
:1016F0008246012901D10020A871AC79DFF824933A
:1017000004F10104C64EDFF80C83A9F1280713E0A9
:10171000306890F80A07C00706D098F802008007E2
:1017200002D459F8242001E057F824206946504695
:101730009047012805D0641C092CE9D90020BDE898
:10174000F88FAC719DF80000F9E72DE9F0410546EE
:10175000008800283AD060222946AE4801F037FFC1
:10176000FFF723F8AD4C0027AD4EC4E90670306892
:1017700090F80A07C0070AD0A878800707D4A549BF
:10178000088810F0760F02D040F080000880607862
:1017900000281BD101219F48FFF7A7FF050015D0A6
:1017A000A14901200870306890F8101149070FD541
:1017B00090F8430780070BD401F024F80220A070B2
:1017C00001F024F8192001F034F86570BDE8F081CB
:1017D00027702846BDE8F04174E700207047C268D2
:1017E000120006D00088C00503D50720087001202C
:1017F000704700207047C268120006D00078C0070A
:1018000003D0062008700120704700207047426A0C
:10181000120006D00078000703D5082008700120C8
:10182000704700207047C268120005D0007800069B
:1018300002D501200870704700207047C26A12006C
:1018400008D0026B32B10078800603D50220087000
:101850000120704700207047C26A120006D000784D
:10186000C00603D50520087001207047002070478E
:10187000C26A120006D00078800703D504200870E1
:101880000120704700207047026B32B1007840079A
:1018900003D5032008700120704700207047002006
:1018A0000870012070472DE9F0415A4804212C307E
:1018B00001F00EFB044657480421303001F008FBCC
:1018C000564F0546DFF84C817878584E042801D0F1
:1018D00002280CD198F80200800602D5A2005349D4
:1018E00002E0620006EB4401514801F070FE787896
:1018F000032801D0022811D198F80200800603D5F0
:10190000AA0006EB840104E005EB44006A0006EB44
:101910004001BDE8F041474801F059BE56E730B5F7
:1019200087B001208DF800003D483A4D3B4C0068DF
:1019300090F80A07C0070AD0A878800707D4607813
:10194000012804D102208DF8000008F076FE00F096
:1019500000FD39480190354802902F48E17800EBAE
:10196000410003900020E0702B4878380490A9686B
:101970006846884707B030BDF0B5294B47F6FF727F
:1019800001291B6803D01B7D2C4C00211EE02B4C31
:101990005B7D3C3CF9E70D18EDB2294FEE18F6B22D
:1019A00037F815E007F1800C37F816703CF8155041
:1019B0003CF81660AEEB0505BE1B35442DB224F88D
:1019C0001150954200DA2A46491CC9B29942E2D325
:1019D000002006E034F81010891A24F81010401C7A
:1019E000C0B29842F6D3F0BD2DE9FC5F012000267D
:1019F0000B4CCDE9006020680C4D90F80017C9072A
:101A000047D0044991F8407007B90127014991F87E
:101A10003F1017E0640B1000709F012018021000A7
:101A200038021000803A010091021000009E01204F
:101A3000C8A6012040A701200080012090A5012018
:101A400054A4012091FBF7F1DFF804840FFA81FB25
:101A500098F80110042902D0032903D00BE0407D3F
:101A6000460024E0007D04214600FA4801F030FAE7
:101A7000F94901EB800598F8010002280AD00528F1
:101A80000FD0042813D0032811D002280FD0052826
:101A90000DD0C5E12068F04D417D007D0844460031
:101AA00005E02068EC4D3A2690F801B7F835D8F8F3
:101AB0000C108A465945ECDCBAF1000F04D14FF402
:101AC000F871E64811F0F7FEC64698F801000021CB
:101AD000DFF88C83DFF884932EE000BF59F82130C3
:101AE00035F911C00428634449F8213001D0032896
:101AF00021D1BAF1000F08D1D94A0023803A22F847
:101B0000113047F6FF7228F81120DFF854C335F979
:101B10001120ACF1800C3CF911309A4200DC1A46DD
:101B20002CF8112035F9112038F911309A4200DBD8
:101B30001A4628F81120491CB142CFDB0AF10101F5
:101B4000CEF80C1059457CDB0023DFF818A3F046D3
:101B5000CEF80C30042806D0032857D0022871D0C4
:101B6000052870D05CE101210020FFF705FFDFF8B8
:101B7000E4B2ABF12C0B9BF8410058B12068407DDA
:101B80004100B64801F0C8FEC8F810007821B648F8
:101B900011F06FFE0020D8F8103034E039F8202022
:101BA0007A43A2EB030212B225F810209046226875
:101BB00092F849C45FEA8C7C20D59BF841C0BCF107
:101BC000000F12D0B2F956C4E04502DDA8EB0C02BA
:101BD00007E0B2F95A24904502DAA8EB020200E0CD
:101BE0000022DFF884C22CF810209F4A35F810C07C
:101BF00032F81020ACEB020225F8102059F8202012
:101C00004AF82020401CB042C8DB09E10021084608
:101C1000FFF7B2FEDFF83CB2ABF12C0B9BF84100B2
:101C200058B12068007D41008C4801F075FEC8F86D
:101C3000140080218D4811F01CFE0020D8F81430CB
:101C400037E0E9E038E0D6E039F820207A43A2EB2B
:101C5000030212B225F810209046226892F849C477
:101C60005FEA8C7C20D59BF841C0BCF1000F12D0FC
:101C7000B2F958C4E04502DDA8EB0C0207E0B2F966
:101C80005C24904502DAA8EB020200E00022DFF8B3
:101C9000DCC12CF81020754A35F810C032F810203D
:101CA000ACEB020225F8102059F820204AF8202039
:101CB000401CB042C8DBB3E0DFF898B1ABF12C0BAD
:101CC0009BF84100C8B12068407D4100634801F0A5
:101CD00023FEC8F810002068017D427D490009EB11
:101CE000C20001F019FEC8F8140078215E4811F016
:101CF000C0FD80215D4811F0BCFD002033E000BF35
:101D000039F82010B8F810307943A1EB030109B27B
:101D100025F81010236893F849C45FEA8C7C1DD520
:101D20009BF841C0BCF1000F10D0B3F956C4614517
:101D300002DDA1EB0C0106E0B3F95A34994201DA55
:101D4000C91A00E00021484B23F81010464935F825
:101D5000103031F81010591A25F8101059F82020B9
:101D60004AF82020401C2168497DB0EB410FC7DBB9
:101D70002068407D4FEA40003AE000BF39F820304B
:101D8000B8F814107B43A3EB010109B225F8101039
:101D9000236893F849C45FEA8C7C21D59BF841C045
:101DA000BCF1000F12D0B3F958C4614502DDA1EBBC
:101DB0000C0106E0B3F95C34994201DAC91A00E07B
:101DC00000212A4BDDF800C023F81C10274B009996
:101DD00035F810C033F81110ACEB010125F81010E4
:101DE0000099491C009159F820204AF82020401CF5
:101DF000B042C3DB14E0002049461D4A09E000BFA1
:101E000031F8203025F8103051F8203042F82030D9
:101E1000401CB042F4DB03E0FFF754FC00200190CB
:101E20000198BDE8FC9F0A4910B54A780120062AAE
:101E30000CD18B69074C5B1C2C3C8B6194F85C408B
:101E4000A34217DA1046FFF73DFC002010BD00004A
:101E500018021000900B1000009E0120849F0120AA
:101E6000D4A4012074A1012040AF0120B8AF01200B
:101E700064A3012000228A61E8E770B57B49096804
:101E80004B7D097D5B1C4B43794991F85C40012CEB
:101E90001ED9498849051BD50020764A15E0012145
:101EA0000AE000BF01FB030632F8105032F816605A
:101EB000491C354422F810508C42F3DC32F91010E2
:101EC00091FBF4F122F81010401C9842E7D370BD4A
:101ED000047570BDF0B587B0FFF7E5FCFFF7A3FF11
:101EE000002821D0624DA878400603D4FFF77CFD7E
:101EF000002819D05D4F604C386890F80A07C00779
:101F00000BD0A878800708D46078012805D1207903
:101F1000E8756079688008F090FB00215448FFF76D
:101F2000E4FB18B1FFF7CEFB07B0F0BD5348002625
:101F300066700670386890F80A07C00706D0A8785F
:101F4000800703D40021084601F045FD4C49A42038
:101F50000873386890F81001400702D5A67000F0A9
:101F60004DFC2078012819D08DF8006001208DF8F3
:101F700014006846FFF781FF3E48019000F5F050DD
:101F80000290E17800F5B87000EB41000390E67034
:101F90003C480490A96868468847C5E703208DF847
:101FA0000000E3E770B53148344D4FF0000401689C
:101FB00091F81001420730480AD591F84317890774
:101FC00006D48178012908D002290FD0032903D132
:101FD0008470FFF7A4FC2C7070BD0221817000F0AA
:101FE00015FCBDE87040322000F023BC0321817055
:101FF0004078BDE87040FFF765BB10B5FEF720FDE7
:102000001D484078BDE81040FFF75CBB00F01F02A0
:102010000121914040094FF0E02202EB8000C0F81E
:102020000011704700F01F020121914040094FF05C
:10203000E02202EB8000C0F88011704700F01F0220
:102040000121914040094FF0E02202EB8000C0F8EE
:10205000801270474907090E002803DA00F00F00CC
:10206000094A00E0094A8154704700003802100014
:10207000640B100000800120180210009102100073
:1020800000100020F89E012014ED00E000E400E0C4
:10209000F0B527260022FF4DFF484FF4F8315C27AA
:1020A0000C46002303EB000E11F803C05B1C8EF8F6
:1020B00060C00C2BF6DB2B68002BFCD18276C77638
:1020C00004F10C0103EB000E11F803C05B1C8EF849
:1020D00060C00C2BF6DB29680029FCD1511C8176ED
:1020E000C776921C04F13001B2EB460FD8DBF0BD8D
:1020F0002DE9F0479246089E5B1EC6F108010022BA
:10210000E54C01F0FF0C1546002189469A420BDA96
:1021100000EB0208875C98F8018027FA06F708FAB6
:102120000CF847EA080703E007D1875C27FA06F7AF
:1021300001EB040888F8607003E001EB040888F8FC
:10214000609001F1010102F101020C29DEDBD149AD
:102150000F68002FFCD10AEB0501A1765C21E17626
:102160006D1C022DD0DBBDE8F08718B500241123CB
:102170005C222146C9480094FFF7BAFFC7481823DC
:102180006222002121300094FFF7B2FF18BD2DE933
:10219000F0470024DFF8FC82BF49824625462646E8
:1021A0004FF05C0900209C4206DA00EB010C1AF8A3
:1021B00004708CF8607002E0471887F86060641C57
:1021C000401C0C28EFDB00BFD8F800000028FBD132
:1021D0005019887681F81B906D1C032DE2DBC2E755
:1021E000AE4800B516235E2200216C38FFF7CFFF02
:1021F000AA4820236422002140385DF804EBC6E79A
:1022000070B50023A44C05E0CD5C1E195B1C86F85C
:1022100060505BB29342F7DB9E490B68002BFCD108
:10222000A07642F01000E07670BD30B59C4C0722DD
:102230000220216801F24271FFF7E2FF21680222C9
:1022400001F24A710920FFF7DBFF2168062201F243
:102250004D710B20FFF7D4FF20689249924D90F802
:102260005307097800F0F00001F00F0108432870CF
:10227000012229461120FFF7C3FF2168072201F23E
:1022800054711220FFF7BCFF86480122401E0078DF
:1022900000F00F01206890F85B0761F31F102870B1
:1022A00029461920FFF7ACFF2168012201F249718C
:1022B0001A20FFF7A5FF2168042201F25C711B20A0
:1022C000FFF79EFF77480222C01C2946007828703D
:1022D0007448401C007868701F20FFF791FF216848
:1022E000062201F262712120FFF78AFF6D48022267
:1022F000001D2946007828706A48801C00786870A4
:102300002720FFF77DFF2168022201F26A71292050
:10231000FFF776FF2168072201F26C713D20FFF77D
:102320006FFF21680A2201F5F5614420FFF768FF7D
:1023300021680A2201F2B2714E20FFF761FF206886
:1023400090F8C01759480170332141740B218174F2
:1023500030BD57480022026055481C38026055487D
:10236000026101210161826081600260016002609E
:102370004849A0F574700B68002BFCD146490B7BD3
:1023800043F020030B730B7B23F040030B730B7B99
:1023900023F080030B730B7B23F020030B73C0F837
:1023A000D823C0F8E02344480270704730B5414854
:1023B0000024743004603F48803004603D48C460AD
:1023C0000121C160C460046001600460374D2020B9
:1023D000AD1D287068703049593D0873A4200873FA
:1023E0002C48183001680029FCD1FFF7B2FFFFF735
:1023F0001CFFFFF7F5FEFFF7B8FEFFF749FE2F4879
:10240000046085F8344030BD38B50546224C006D77
:1024100000906073010AA173010CE173000E207437
:10242000042269462B20FFF7EBFE012205F14C0147
:102430002F20FFF7E5FE95F84C00A074A86D0090E2
:10244000E074010A2175010C6175000EA07504226B
:1024500069463520FFF7D4FE0098800F84F84000CD
:102460001149012208703920FFF7CAFE38BD00EB80
:10247000C00101EB00106FF0030101EB800010B50B
:102480000F490E4A0978146890FBF1F0401EC1B262
:10249000012317E0040B002200100020ACF801001B
:1024A00038021000F6FF0100C40B1000530000209A
:1024B0001C0C0022D003002219021000400500224B
:1024C0009302100058075CB10024146080F83410A7
:1024D00090F8421090F842408C42FBD0136010BD3F
:1024E00080F83410FAE77CB5044600208DF804002B
:1024F0002046FFF789FFF848B4F846100180217D97
:1025000000F8011C94F848104173F44EA07D86F841
:102510003600F34D286890F842078DF80000618876
:10252000890503D520F012008DF8000001226946CC
:102530000220FFF765FE042204F115010520FFF7D4
:102540005FFE2968022201F24A710920FFF758FE56
:10255000022204F11A010C20FFF752FE022204F1BC
:102560001C010E20FFF74CFE2868052204F11E0115
:1025700090F8540784F820001020FFF741FE2868E7
:1025800090F80907C0070AD0012201A94420FFF7EB
:1025900037FE022204F13A013F20FFF731FE01220B
:1025A00004F149013D20FFF72BFECE4801680129C7
:1025B000FCD194F8480030732320FFF758FF7CBD0E
:1025C0007EB50446FFF720FFC348B4F846100180EB
:1025D00094F83D1000F8011C94F848104173C04D68
:1025E000286890F842078DF800006188890503D5B6
:1025F00020F012008DF80000012269460220FFF74A
:10260000FFFD286890F80A17C90730D06288910743
:102610002DD4B0F80D17ADF80410B0F87007ADF870
:102620000800120609D594F839201044ADF80800C6
:1026300094F838000844ADF80400022202A94120B1
:10264000FFF7DEFD022201A90920FFF7D9FD296865
:1026500091F80907C0071DD0012201F5F56144205A
:10266000FFF7CEFD022204F13A013F2010E090F87E
:102670000907C00707D000208DF80400012201A936
:102680004420FFF7BDFD2968022201F24A710920AA
:10269000FFF7B6FD022204F134011B20FFF7B0FD65
:1026A000022204F136012320FFF7AAFD012204F1E2
:1026B0003C010720FFF7A4FD012204F1420108209C
:1026C000FFF79EFD012204F143012120FFF798FD51
:1026D000012204F144012920FFF792FD012204F1B7
:1026E0004A011720FFF78CFD012204F14B0118204D
:1026F000FFF786FD28687C49012290F8540720F0F6
:10270000F00008701220FFF77BFD94F84500734E2F
:10271000C00708D0286800F2C67190F8C60786F88E
:102720003600012206E094F83E0086F836000122C9
:1027300004F13E010620FFF763FD012204F1490187
:102740003D20FFF75DFD674801680129FCD194F841
:10275000480030732320FFF78AFE7EBD6049634B3B
:102760000A6892F84D2702700A68B2F85027428032
:1027700009681B7801F2547103F00F0311F8012C62
:1027800002F0F0021A4302714A89C2804A8A028129
:10279000CA7B8272CA7DC27249780173704710B5D4
:1027A0000446014601220B20FFF72AFD0222A11C4C
:1027B0000E20FFF725FD0122211D1120FFF720FD2E
:1027C0000222A11D1D20FFF71BFD022204F10801BA
:1027D0002520FFF715FD012204F10A012220FFF751
:1027E0000FFD012204F10B012A20FFF709FD04F17E
:1027F0000C010122BDE81040132001E537490420F7
:102800000873704735492020087370473349C0204A
:102810000873704736480168002909D0002101601B
:102820004FF0005191F8420091F842208242FBD0D3
:1028300070472F49002240390A60274A273A107012
:1028400001200860704770B5264C1C342368002BAB
:10285000FCD11D4603E0C6185B1C86F880508B42F5
:10286000F9D32368002BFCD102E0C45CD4545B1C78
:102870008B42FAD370BD10B500F092FFFFF7CAFF8C
:102880001C48007878B11748001D01680029FCD168
:102890001248C078400602D5174901200870BDE8EB
:1028A0001040FFF717BB15490020087010BD10B588
:1028B00000F076FF0E49002040390860BDE8104066
:1028C000FFF770BB10B500F06BFFFFF7A3FFBDE88B
:1028D0001040FFF767BB00005400002000100020EC
:1028E00038021000000B0022C40B1000F6FF01009C
:1028F0004005002219021000180210009102100079
:102900000446012007F0C5FF00210F20226807F0D0
:10291000D8FF01210F20626807F0D3FF02210F20AA
:10292000A26807F0CEFF03210F20E26807F0C9FF7D
:102930000C210F20226907F0C4FF0E210F206269CD
:1029400007F0BFFF0F210846A26907F0BAFF202158
:102950000F20E26907F0B5FF3A48026821210F20F5
:1029600007F0AFFF37481038026822210F2007F028
:10297000A8FF34480C38026823210F2007F0A1FF7C
:1029800030480838026824210F2007F09AFF2D48AC
:10299000001D026825210F2007F093FF29483438D5
:1029A000026826210F2007F08CFF264814380268A1
:1029B00027210F2007F085FFFDF7F7FE02463021A3
:1029C0000F2007F07EFFFEE710B5012807D0022890
:1029D0000ED0032805D0042805D0042109E00121E8
:1029E00007E0032105E00021032007F052FFFEE786
:1029F0000221BDE81040032007F04BBF10B504468C
:102A00000146042007F045FF012C00D1FEE710BD70
:102A10000146082007F03DBF0146062007F039BFF8
:102A200010B504460146072007F033FF012C04D0FF
:102A3000022C03D0032C02D1FEE7FEE7FEE710BD17
:102A40000320EDE738ED00E000F0AABE70477047C4
:102A5000394810B5016821F00401016000F0A0FEC2
:102A6000BDE810400FF042BC344810B50078012892
:102A70000DD0032811D1FDF7DEFF0FF069F8FEF746
:102A80006CF8002809D0BDE8104008F03FB8FDF709
:102A9000D2FFBDE810400FF05BB810BD10B500F0DC
:102AA0007FFEBDE81040FFF7A8BA10B500F078FE31
:102AB000BDE8104008F040B910B500F071FEBDE867
:102AC00010404FF0005001F01BB87047704710B530
:102AD00000F066FE1A480078012803D0BDE81040D7
:102AE00007F0BDBDBDE8104001F05BBD704710B5FB
:102AF00000F056FEBDE810404FF0805001F000B8E5
:102B000070477047704770477047704710B500F0C6
:102B100047FEBDE81040FEF708B810B500F040FED3
:102B200007480078012803D1BDE8104001F015BD29
:102B300010BD70477047000010ED00E0AA021000C1
:102B40009002100010B55621984810F092FE974858
:102B50009749984A0180828097494180974BC3806A
:102B6000974C0481974C4481974C8481974CC48145
:102B7000974C0482974C4482974C8482974CC48231
:102B8000974C0483974C4486974C8486974CC48614
:102B9000974C0487C387418782879649A0F84010E5
:102BA00095490968B1F86220A0F84220B1F8C62121
:102BB000A0F84420B1F8A120A0F84620B1F8F021F7
:102BC000A0F84820B1F85421A0F84A20B1F85221C9
:102BD000A0F84C208748B1F84E274280B1F85C2716
:102BE000C280B1F86417018110BD84481322854961
:102BF00003788348552B02D0027019200CE07E4BDD
:102C00001B6893F81131DB0702D07C4A521C127802
:102C100002707A48801C0078087070472DE9F041F6
:102C20008AB0FF222421684610F01BFE6846FEF79A
:102C30000AF901990E240126072545F2AA5081427E
:102C400002D00299814237D1009980460F0E029935
:102C5000414508D1032F02D10098C0F301360098F6
:102C6000C0F3032502E00120FFF7D6FE019941459C
:102C700003D1009800F01F0402E00220FFF7CCFE11
:102C8000032F1FD1049A40465F49824201D1039A23
:102C900000E05E4A0A60069A5D49824201D1059AC7
:102CA00000E05C4A0A60089A5B49424501D10798F6
:102CB00000E05A48086005E00120FFF7ADFE022061
:102CC000FFF7AAFE564906F0030040EA051081F816
:102CD0006000012088761120C8765248017864F39C
:102CE000040101700AB0BDE8F08170B5FDF7DDFDAB
:102CF000FDF78AFF404C20680078A52802D001200B
:102D0000FFF77CFE4FF008500125C0F8985320686B
:102D1000454A90F8271101F00101116090F8270150
:102D2000111DC0F340000860FEF78CF8FDF7D4FDDC
:102D3000FEF748FA042801D1FFF746FEFDF7B0FF81
:102D4000FDF7FAFF3648802180F860100421817673
:102D50001121C176FFF762FFFFF747FF32480C38B9
:102D6000056070BD10B54FF0005140F285304881CC
:102D7000FFF7BBFFFFF7E6FE2C495F2008602C49F8
:102D8000002008602C482B49016001F508602B49A0
:102D900008602B4800F0AAFAFDF776FA00F052F826
:102DA000FDF770FAFDF7F4FA012010BD00000120D4
:102DB00000800120D8DD012058D6012056000120D6
:102DC000009E0120462E0120822E0120C82E0120C7
:102DD000042F01203834012074340120E22901201D
:102DE0001E2A01203A2E012080CE01208CCE012007
:102DF000D62901206C25100038021000F2FF0100D6
:102E000094021000930210009802100040A5AE0238
:102E10009C02100000879303A002100000366E0190
:102E2000001000202000002088040022C42E012071
:102E30008402100054131000640210006802100095
:102E4000542410007FB5FDF77BFA1F4D002400BF0E
:102E500005EB441000F11002017F4CCACDE902617C
:102E6000CDE900230FC8FDF73DFC10B10220FFF7AC
:102E7000D7FD641C082CEBDB144D002404EB44004C
:102E800005EB8001091D55F8200006C9FDF7AAFBD6
:102E900010B10220FFF7C4FD641C082CEEDB0B4DC3
:102EA0000024603505EBC400416855F83400FDF797
:102EB000C5FA10B10220FFF7B3FD641C072CF1DB4B
:102EC0007FBD4068FFF7BCBDA83A0100A83B0100E8
:102ED00070B5034600200246FE4C09E09D5C521C82
:102EE00005F00F0604EB1515A65D2D783044284437
:102EF0008A42F3DB70BD884200D30846704788429F
:102F000000D808467047884200D30846904200D354
:102F1000104670472DE9F047D0F810C00568046AE4
:102F200085FB0C12A1FB041242694368914683FBA6
:102F300002628269E246A6FB02677618D0E90217B0
:102F400081FB07C8C069ACFB00C81CEB060682FB0E
:102F50000A2CA2FB011280FB0902A0FB050240180B
:102F600084FB0712A1FB03120818301A4FEAE07124
:102F7000BDE8F0872DE9F04389B004460068009071
:102F80006068019020690290606803902069049055
:102F9000A069059020690690A0690790E0690890F3
:102FA0000D466846FFF7B6FF8046A0680190E068CE
:102FB00004906069079089466846FFF7ABFF0646B4
:102FC00060680190A068029020690490E068059014
:102FD000A0690790606908900F466846FFF79AFF5E
:102FE000C5E90401C5E90267C5E9008909B0BDE882
:102FF000F0832DE9FF4F4FF0000A89B09B465746FA
:10300000D146D0465646554654462021684610F0D3
:1030100052FC0B9810E00999824431F9102000FB12
:1030200000F102FB01668844414302FB009901FB69
:10303000004417440D44401C5845ECDD0B99ABEBA4
:103040000100401CCDE9000ACDE90654CDE9048613
:10305000CDE9027968460A99FFF78CFF0DB0BDE80B
:10306000F08F9D480068017B427B41EA0221827B10
:10307000C07B41EA024141EA006040007047964847
:1030800000680179427941EA02218279C07941EAF6
:10309000024141EA0060704700B5FFF7E2FF4008D7
:1030A000400000BDF8B50E460446FFF7F5FF00905E
:1030B000FFF7D7FF054604216846FFF709FF04EB39
:1030C00040070024DDF80010204623464FF0010C95
:1030D0000CFA03F20A4207D02A4204D037F8102033
:1030E00026F81420641C401C5B1C1E2BF0DBF8BD72
:1030F000C5E7FCB50E460746FFF7CEFF0190FFF788
:10310000BEFF0090FFF7BBFF0546042101A8FFF7B3
:10311000DFFE044604216846FFF7DAFE00EB4400B8
:1031200007EB400700200099044603464FF0010CCE
:103130000CFA03F20A4207D02A4204D037F81420CE
:1031400026F81020401C641C5B1C202BF0DBFCBD0F
:1031500070B561490020096801F5F57491F8E851EE
:103160008DB191F8E6214FF00103D2070DD0002276
:1031700003FA02F6354203D0A65C03FA06F10843CF
:10318000521C062AF4DB400070BD91F8E91103FAE5
:1031900001F0F8E770B550490020096801F5F574B1
:1031A00091F8E851002D09D091F8E6214FF0010384
:1031B000D20704D091F8E91103FA01F070BD03FAC7
:1031C00002F6354203D0A65C03FA06F10843521C0E
:1031D000062AF4DB70BD70B500223F4C012303FAD0
:1031E00002F6256895F8E851354203D030F81250C0
:1031F00021F81250521C062AF1DB70BD00B5FFF712
:1032000030FF40F0010000BD39E7344A520102EBC3
:10321000810101F108510860704701EB80108010B6
:1032200001EB41014900182291FBF2F300EB400051
:1032300000F5F83002FB1311006820F07F40C84011
:1032400000F03F00704701EB8010801010B501EBDB
:1032500041014900182391FBF3F403FB141300EB25
:10326000400000F5F8303F2401689C40A1439A409B
:103270000A430270110A4170110C817010BD821056
:1032800002EB4202114400EB40004000182290FB88
:10329000F2F301F5F83102FB1302086820F07F40D9
:1032A000D04000F03F007047831003EB43031A4403
:1032B00010B500EB40004000182390FBF3F403FB33
:1032C000140302F5F8323F2410689C40A043994053
:1032D000014305E0403C010038021000C42E0120EB
:1032E0001170080A5070080C907010BD2DE9F14F54
:1032F0007821009810F0DFFAFFF780FF4FEA5008BE
:10330000FFF7BDFE4FF0000C814666464FF0010A04
:103310000AFA06F111EA090F1ED0002401272546FA
:103320000AFA0CFB0AFA05F010EA080F0FD0314632
:103330002846FFF772FFA04207D00099009A51F883
:10334000271041EA0B0142F8271004467F1C6D1C30
:10335000272DE7DB0CF1010C761C202ED8DBBDE815
:10336000F88F2DE9F04F8346F84800242246D0F824
:1033700000A001219AF81450A5F1010621E00320D4
:103380000123DFF8CCE303FA01F99AF8157015E090
:103390005EF820C01CEA090F0FD0A0F1010300FB6A
:1033A000051C03FB05183BF91CC03BF91830BCEBAE
:1033B000030300D55B421C44521C401C8742E7DCDF
:1033C000491C8E42DBDC02B9012294FBF2F046E696
:1033D0002DE9FF4F85B000210391029101910091E9
:1033E000DA49012B0C6894F8775005F00F0700D1EB
:1033F0000027667D94F87A30C7F1100BB34200D2F3
:103400001E4600230493012381E000BF4FF0000912
:10341000C84603241FE0CE4951F824C00121994039
:103420001CEA010F04FB053130F911C0A4F10101C0
:1034300001FB053130F91110ACEB010106D0002978
:1034400000DA4942DDF818C0A1EB0C01002900DACE
:1034500049428944641CB442DDDB31469EF815A024
:103460001FE0BB4C54F821C001249C401CEA040F0F
:1034700001FB053430F914C0A1F1010404FB05344B
:1034800030F91440ACEB040406D0002C00DA64429E
:10349000DDF818C0A4EB0C04002C00DA6442A04450
:1034A000491C8A45DDDC0499012910D10199B1EB51
:1034B000090101D5C1F10001039C21440391009948
:1034C000B1EB080100D54942029C21440291CDE9AB
:1034D00000899EF87B10994216D11168039D7943AB
:1034E0000BFB0511CC1701EB1471091111609168E8
:1034F000029D79430BFB0511CC1701EB14710911E7
:10350000916000210391029101215B1C04918F497C
:10351000D1F800E09EF81450691E99423FF776AF4B
:103520005068039978430BFB0100C11700EB117041
:1035300000115060D068029B78430BFB0300C11759
:1035400000EB11700011D06009B088E52DE9F04F53
:103550007E49002318460C6894F84914257DC1F370
:10356000C001B4F865B4B4F867A4A5EB010924E080
:103570000322DFF8DCE1DFF8DC81667D19E000BFC3
:103580005EF822C0012707FA01F71CEA070F0ED1E7
:1035900002FB051738F917C0A2F1010707FB051751
:1035A00038F91770BCEB070700D57F423B44521C2B
:1035B000D2B29642E4D8491CC9B28945D8DC6649E2
:1035C0009B450B6002D2534500D2012047E503E042
:1035D00011F8013B00F8013B521EF9D270477CB54F
:1035E0000D460446FFF758FD0090FFF748FD019097
:1035F00000980421400800906846FFF769FC0646E1
:10360000042101A8FFF764FC3044820021462846CB
:10361000FFF7DDFF7CBD0B464C4909684A7D097DFB
:10362000521C4A43014652001846D0E72DE9F041AA
:103630000446602110F03FF90025444E2580658046
:10364000306890F8C50700F0010045EA401060803E
:10365000316891F84517C90940EA01106080A560FA
:10366000FFF7CCFDE060FFF70AFD3C4F2061788852
:103670006083306800F24670C27A817A02F03F02BD
:1036800041EA0221A1834178E17590F87A10217511
:103690000178A17581782176017BA1773049407B43
:1036A000097800F0F00001F00F010843E077FFF720
:1036B0004FFD6062FFF76EFDA062FFF7EDFCE06278
:1036C000FFF7DDFC2063F888A086E086306800F212
:1036D0004E7090F8731084F83C1090F8751084F8D0
:1036E0003D1090F8761084F83E1010F84C1C84F8C9
:1036F0003F10012184F8401084F8415090F8742064
:1037000084F84220027D84F84320027F84F844201C
:10371000027A84F82220827F84F8492084F8395084
:1037200084F83850028C628710F8562CA0F24E7044
:10373000D20717D090F8F90600F00F0084F85C006B
:10374000608840F480606080BDE8F081380210003D
:1037500054241000D40B1000700210006C251000CF
:10376000F6FF010084F85C10EEE710B50446FCF7A4
:103770008BFD012C0BD1FC48006890F810018007EC
:1037800005D5FDF79AF838B1FDF793F804E0FDF799
:1037900094F808B9FDF789F8BDE81040FCF772BD50
:1037A0000020E2E7F04B10B51A68947E640704D558
:1037B000D28A0468A2EB040202601A68947EA4070D
:1037C00003D5128B0C68121B0A600268002A00DA0B
:1037D000002202601C68E48AA24200DD22460260E8
:1037E0000A68002A00DA00220A601C68248BA242C0
:1037F00000DD22460A601B689B7EDB0702D003685F
:103800000B60026010BDF0B500252C4609E000BF3A
:1038100031F9146030F91470F61B964200DD6D1C0E
:10382000641C9C42F4DB012D01D90120F0BD002075
:10383000F0BD2DE9F04F9246DDE909B7012547F6C5
:10384000F87256429946AC46002416E030F814301F
:1038500031F81480A8EB03031BB29A4200DD1A462C
:103860009E4200DA1E46002B02DA4FF0000502E00D
:1038700001DD4FF0000C04F10104BC42E6DB55EA27
:103880000C0306D0012D01D02DB108E0BCF1010FD1
:1038900005D1002203E0BCF1010F00D13246002522
:1038A0002C462B4611E000BF30F8136031F813C0EE
:1038B0001644ACEB060636B24E4505DACBF1000CE9
:1038C000664501DD3544641C5B1CBB42ECDB95FBAB
:1038D000F4F10A44002105E030F8113013442AF8CD
:1038E0001130491CB942F7DB71E5F0B506460020FE
:1038F00004460546521C059F0AE000BF36F911C078
:103900009C4504DDA44502DD64460D460120491CAA
:103910009142F3DB3D60F0BD30B5026800251346EF
:103920000AE000BF50F82540944201DD224602E043
:103930009C4200DA23466D1C8D42F3DBD01800EB6D
:10394000D070401030BD70B5874B1B685C7D1B7D0F
:10395000641C5C43002307E032F8135030F8136016
:10396000AD1B21F813505B1CA342F5DB70BD7F49F2
:103970000120086081027E480FF07BBF2DE9F041F5
:10398000064615460F46302801D1FFF7F0FF774C69
:1039900020682844401CB0F5806F01D2206801E007
:1039A00001202060724908700E542DB10844401C5B
:1039B0002A463946FFF70BFE20682844401C206049
:1039C000C2E66C480021012201704270817070478C
:1039D00068480078704730B5634A126892F80A2741
:1039E000D3070BD0D506644A4FF000034FF0010413
:1039F00007D5151F2860012901D1136030BD14605F
:103A000030BD5D4D083D28600129F8D0F5E72DE96E
:103A1000F84F554C00264FF00057206890F80A07E1
:103A2000450997F8510000D101250720FCF705FE54
:103A3000FCF7BBFEDFF83C81C8F8040020684FF0BB
:103A4000010490F80A07C00603D5062087F8510044
:103A500001E087F8514000210120FFF7BCFF4FF43F
:103A60001670FCF717FC4FF0E02A4FF480594FF026
:103A7000000BCAF880924FF040514446D8F8040039
:103A8000FCF72BFDDFF8F480012088F80000E8B295
:103A9000FCF7EDFFCAF800916B4600224FF0405151
:103AA0006068FCF72AFD4FF040516068FCF715FD97
:103AB0000098C00000D501262078B04202D160787D
:103AC00001280CD197F85100A6B140EA0522DD206B
:103AD000616806F0F6FE00BF84F801B02670002190
:103AE0000846FFF778FF88F800B00720FCF7C0FD14
:103AF000207834E440EA0521092006F0CAFEEBE70D
:103B000010B504461E484FF480510160FCF7BCFF1D
:103B1000184821464068BDE81040FCF7AFBC70B5BE
:103B20001148006890F8D010CA0716492CD090F8B8
:103B3000D12002F00F02531C0A2B01D90A2200E007
:103B4000521C00F1D20400234D8804E034F81360C5
:103B5000B5421CD05B1C9342F8DBB0F84E274A807C
:103B6000B0F8E8200A8012E0380210003C02100091
:103B7000D6250120AC021000280A00229102100074
:103B800080E100E06C251000B0F84E274A8090F8E4
:103B90008023D2071FD090F8812302F00F035A1C14
:103BA0000A2A01D90A2300E05B1C00F282350024B6
:103BB000CA8804E035F81460B2420BD0641C9C4201
:103BC000F8DBB0F85C27CA80B0F864270A81B0F847
:103BD000AC03888070BDB0F85C27CA80B0F8640779
:103BE000088170BD10B501461822F748FFF7EFFCB9
:103BF000BDE810404FF400610120FCF73FBC2DE907
:103C0000F0419AB080460D4614466846FFF70EFD17
:103C1000E0074FF0010701D0ADF80070A00705D50F
:103C2000BDF8000040F00800ADF80000600735D591
:103C3000E64E306890F80A07C00712D0FFF7E7FE9B
:103C400001280CD0BDF8020040F00200ADF80200DF
:103C50005FF02000ADF80000A00707D018E00620B4
:103C6000F8E7BDF8000040F02000F3E7BDF80000E1
:103C700040F00100ADF80000306800F221104178FA
:103C80008DF8171001788DF81E1080788DF82200BD
:103C9000CF480088800501D58DF84170ADF83650C9
:103CA000ADF81A80ADF83450AFF2C700C64D03240A
:103CB0004FF4006602906846FDF747FD18AB0022FE
:103CC00031460120FCF719FC31460120FCF705FCC8
:103CD0002878002804D0FEF777FE641E002CEADC6A
:103CE0001AB0BDE8F0812DE9F041B84A0024214620
:103CF0001268254610F4D17F04D092F822100425D2
:103D00004FEA111110F0050F05D092F8213045F05F
:103D100001054FEA1314C00604D592F8210045F0BE
:103D2000020504098C4200DA0C46641C002DD8D030
:103D30000026A84F05E0F98878882A46FFF75FFF3C
:103D4000761CA642F7DBCCE72DE9F35FDFF87C8237
:103D50008B46D8F80000457D017D90F821006D1C50
:103D600000F00F074D437F1C4FF488519A480FF025
:103D7000A2FD0026984CDFF85C92DFF84CA218E018
:103D8000B9F8061001220098FFF739FF9349DAF8D5
:103D9000040005F01AFE9149002007E054F82020A5
:103DA00031F910301A4444F82020401CA842F5DBB9
:103DB000761CBE42E4DBD8F8000090F8210000F049
:103DC0000F01491C002006E054F8202092FBF1F27C
:103DD0002BF81020401CA842F6DBBDE8FC9F2DE923
:103DE000F34F7A4D87B08B462868182190F8210050
:103DF00000F00F077F1C68460FF05DFD00266C4643
:103E0000DFF8D091DFF8C0A1DFF8D48119E000BF5E
:103E1000B9F8061002220798FFF7F1FE7049DAF8A8
:103E20000C00FFF7D8F900204FEA080154F82020D1
:103E300031F910301A4444F82020401C0628F5DBE4
:103E4000761CBE42E4DB286890F8210000F00F01E8
:103E5000491C002001222B6802FA00F693F8E83191
:103E6000334205D054F8203093FBF1F32BF8103097
:103E7000401C0628EFDB09B0BDE8F08F2DE9F74FB5
:103E8000524D84B09146286830F83B1F039140881A
:103E90000290FFF701F90090FFF72AF90190042141
:103EA0006846FFF715F88046042101A8FFF710F8CF
:103EB000404446002868B10090F8220000F00F044A
:103EC000641C45480FF0F7FC296891F8F002C2071E
:103ED00006D0800704D491F8F102044405F02AFAD0
:103EE0000027DFF8F4B0AA462FE03A4804220599EB
:103EF0004088FFF784FEDAF80010334891F8C517C0
:103F00008568C90704D001692A46284605F0BEFA2B
:103F1000DAF8000090F8F002C10707D0800705D456
:103F20003049284605F022FA70B12E4D002059463E
:103F300008E000BF51F8202035F910301A4441F84C
:103F40002020401CB042F5DB7F1CA742CDDBDAF815
:103F50000010214C504691F8221001F00F0303F19C
:103F600001034FF000011CE05BF82120056892FB83
:103F7000F3F295F8F0725FEAC77C08D0BF0706D568
:103F800095F8F1727F1C5743B5F8F222BA1AB1EBDB
:103F9000480F01DA039D00E0029D2A4424F8112015
:103FA000491CB142E0DB049810F0220F09D02046F2
:103FB000D9F80010FFF776F82046D9F80410FFF77B
:103FC00098F807B058E70000684310003802100066
:103FD000480210006C25100054131000D40B100080
:103FE0003A2E0120D0A501202DE9F0479A46F94B41
:103FF000894600210125F84E1C681AE032F811307C
:1040000030F81170DB1B1FB200230AE0C3EB031C66
:1040100006EB8C0C5B1C3CF811801BB2B8442CF8EE
:10402000118094F880C305EB9C1C9C45EEDC491C78
:1040300009B2637D8B42E1DC0020E84A19E000BF51
:104040003AF8103039F81010591A0BB2002108E074
:1040500002EB8116491C36F8107009B21F4426F88D
:10406000107094F8806305EB96168E42F0DC401CCD
:1040700000B2217D8142E3DCBDE8F08770B5D54D0B
:10408000D74E00242868C4EB041100EB440006EB73
:10409000C111B0F8EF00FFF757FE641C042CF1DBF0
:1040A00070BD2DE9FE4F00258246CA4C2F46DFF831
:1040B0002883DFF82893012612E000BF00EB4500BB
:1040C000C5EB0512B0F8B21308EB8200009009EBC3
:1040D0008510CDE901076A465046FFF7CFFE6D1CFB
:1040E000206890F8801306EB9111A942E6DC90F865
:1040F0005011C90710D090F8911109060CD5407DD8
:10410000B5494200B748FFF762FA2068B349007D1D
:104110004200B548FFF75BFABDE8FE8FFEB5AD4A39
:10412000B24900241268012300F4907592F880636C
:10413000C98803EB961306E002EB4406B6F8B263B7
:10414000B14202D0641CA342F6DCA34219DDC5B122
:1041500092F85001C00703D192F8B001C0070FD008
:104160009D49C4EB041001EB80013C22A048FFF7FD
:104170002EFA9A48402200EB84119E48FFF727FA56
:10418000FEBD002202929A4A00929A4A01926A4621
:10419000FFF774FEFEBD70B504460020FCF74DFA33
:1041A0000320FCF74AFA8B4D286890F82010490745
:1041B00001D424F4006490F85011C90705D190F897
:1041C000B011C90701D124F0620490F880134907A7
:1041D00001D424F4B07490F8D010490701D424F02D
:1041E000040490F8E81109B924F0100490F80413BD
:1041F00009B924F4C07490F82002C00701D124F456
:10420000007460060AD53C2279497B48FFF7DFF944
:104210007948402277493C30FFF7D9F977490020A7
:10422000401C8842FCD3200502D52046FFF75BFDE9
:10423000600701D5FFF722FF14F4907F02D02046DB
:10424000FFF72FFF694EE0071BD070886C49FFF71E
:104250007BFD286890F8200000070AD56848FFF722
:1042600080F868490123684A086001466448FFF7FE
:10427000AFF8286890F84904C00702D0204602F041
:104280006DFBE00603D570886049FFF7A8FD14F0C8
:10429000820F0AD02046FFF741FF286890F84904B2
:1042A000800702D5204602F0CFFB600606D55249B2
:1042B000504B4F4A3C315048FFF796FE544901207D
:1042C00008705449087006F0A6F90020FCF7D0F9F0
:1042D000BDE870400320FCF7CBB9F0B43D490022A3
:1042E0003F4C0B68B3F8EF10814214D2B3F8F510CD
:1042F000814201D803220EE05FF0010103EB41058A
:10430000B5F8EF50A84201D10A4602E00DD2A1F162
:1043100001028A420DD1C2EB021004EBC011F0BCC5
:104320004FF4F0623648FFF752B9491C0429E5DB27
:10433000F1E703EB4103324D33F8ED2FC1EB0111EF
:104340005B88801A00029A1A90FBF2F300204FF467
:10435000707604EBC11100BF01EB4002A2F5F062E0
:1043600031F91040B2F90020A41A5C4302EB242278
:1043700025F81020401CB042EEDBF0BC70472DE960
:10438000F04114490025144A0968144EB1F8B233BB
:1043900083421AD291F880339C0901EB4407B7F8A5
:1043A000B27387420AD9012404EB931335E000BFAE
:1043B00001EB4407B7F8B273B84201D1254602E0D9
:1043C0002AD2A4F10105A5423ED191F85001C007BF
:1043D0002AD125E038021000562B0120822C012022
:1043E000D6070120462C0120822D01206C251000CB
:1043F000E22901201E2A0120EC42100020A1070022
:10440000560001206C021000CC241000D629012097
:104410004E0210007C021000641CA342C8DCD4E7EA
:1044200091F8B001C0074CD0C5EB051002EB80013C
:104430003C228448FFF7CBF806EB8511BDE8F0413C
:1044400040228148FFF7C3B801EB4405B5F8B0330B
:10445000B5F8B253C01A0002EB1A90FBF3F391F8CF
:104460005001C00703D191F8B001C00729D0754DA4
:10447000C4EB0411002002EB810100BF01EB4002FC
:1044800031F9107032F93C2CBF1A5F4302EB27223E
:1044900025F81020401C1E28F0DB6B4D002006EB99
:1044A000841100BF01EB400231F9104032F9402C79
:1044B000A41A5C4302EB242225F81020401C20287B
:1044C000F0DB0EE42DE9F04160480124604E0470F9
:1044D00000253560192000F0A8F8192000F08DF8AB
:1044E0005C4F052038724FF41670FBF7D3FE584826
:1044F00044380560FF2139703460046023E470B5EE
:104500005248554C01250570207F40F0040020776B
:104510005248006890F81101C00705D00A2000F049
:1045200084F80A2000F069F8002184F860105C2209
:10453000A2761120E07684F860505823A376E076C6
:10454000434B443B1960434EFF213170042184F8F2
:104550006010A276E0761D6070BD70B53C48002406
:10456000443804603B4D08352E79192000F051F88D
:10457000C6F1FB002978C0B2491CB0FBF1F0384904
:104580000870324804703548006890F81101C0077F
:1045900002D0BDE87040B2E731495520891E08704D
:1045A00070BD10B52C4C207F40F0040020772B48C4
:1045B000006890F81101C00702D00A2000F029F825
:1045C00024490A7B224B0020443B186084F8600099
:1045D0005C23A3761123E3760978891A89B24FF414
:1045E000FA42B2FBF1F11E4A0909521E117055211F
:1045F000521E11701549087010BD00F01F020121F4
:10460000914040094FF0E02202EB8000C0F8001119
:10461000704700F01F020121914040094FF0E02255
:1046200002EB8000C0F88011704700F01F020121EA
:10463000914040094FF0E02202EB8000C0F8801268
:1046400070470000E22901201E2A0120900210007C
:10465000480500222E000020001000203802100023
:10466000F4FF010010B501461822FE48FEF7AFFF27
:104670008021BDE810400120FBF700BF30B599B0A4
:1046800004466846FEF7D2FF00210120012C02D02B
:10469000022C03D009E0ADF8000002E00822ADF8DA
:1046A00000208DF816108DF81410BDF80210AFF22E
:1046B0004B0241F4A671ADF80210EB490292096871
:1046C00091F8F816C90701D08DF85C00E54D032478
:1046D0006846FDF73AF818AB002280210120FBF76D
:1046E0000CFF80210120FBF7F8FE2878002804D079
:1046F000FEF76AF9641E002CEADC19B030BD2DE922
:10470000FC5F4FF0000BFEF723FD0446FEF742FD71
:10471000D64907460020086048608860D4494FEABF
:10472000540980460860486088604FF0010A022002
:10473000FFF7A4FFCB4800242646C068CDF8000050
:104740000AFA06F010EA090F38D000250AFA05F136
:10475000394230D0C4490AFA04F0096891F8E811E6
:10476000014228D029463046FEF757FDBE49BF4AD0
:10477000096832F91430B1F80AC2B3EB0C01009B9E
:1047800033F91430A3EB0C0C00D54942BCF1000FF7
:1047900001DACCF1000C614504DBB54922F8143094
:1047A00021F814003F2805D2401CC2B229463046E9
:1047B000FEF749FD641C6D1C202DC7DB761C272EDF
:1047C000BEDBFDF765FC08F10108B8F1400FAEDB78
:1047D000012000900220FFF751FFD0460026DFF8AD
:1047E00088A2354608FA05F010EA090F1ED0002409
:1047F00008FA04F1394216D0DAF8001008FA06F087
:1048000091F8E81101420ED09948214610F816009F
:10481000019002462846FEF716FD01983F2801D375
:1048200000200090761C641C202CE1DB6D1C272DE1
:10483000D8DB009810B90520FEF7EAF8FDF728FC50
:104840000220FFF71BFF87488A49C068FEF7C3FCB8
:10485000DAF80040874D002094F8E831424600BF66
:1048600002FA00F10B421CD035F91010002902DCCD
:104870004BF0020005E040F6FF76B14203DB4BF05F
:104880000100834610E0B4F80A72B4F8BE6107EB89
:10489000060C8C4505DABF1B8F4202DD0EB14BF0D2
:1048A000040B401C0628DBDB5846BDE8FC9F2DE9C5
:1048B000F05F6D490A6892F8300105066E4803788A
:1048C00003F00F0407D492F83E1121F00F012143A9
:1048D0000170BDE8F09F0025DFF888A183460470D1
:1048E0002E46012789460220FFF7C8FE6149DAF803
:1048F0000C00FEF770FCD9F800205E4B002092F807
:10490000E81100BF07FA00FC11EA0C0F05D033F9DB
:1049100010C0B2F80882C445DBDB401C0628F1DB7E
:104920000F2D08D26D1CEDB244EA0510761C8BF8F1
:104930000000102ED7DBBDE8F05F0420FEF768B85A
:10494000F0B5484900204D6847490A68537D117DFC
:104950005B1C01FB03F41CE035F91130002B02DC79
:1049600040F0200014E040F6FF76B34202DB40F056
:1049700010000DE0B2F83471B2F8BE6107EB060C1E
:104980009C4505DABF1B9F4202DD0EB140F040009E
:10499000491C8C42E0DCF0BD024618215FF00100AA
:1049A00000FA01F3134201D1491EF9D5491C884090
:1049B000104370472DE9FE4FFEF720FC0446FEF73A
:1049C00023FC294D0746286890F84507000603D5C3
:1049D0002046FFF7E1FF04464FEA540B4FF4F06125
:1049E00026480EF046FF1F484FF027098021183057
:1049F0000EF061FF002001900120FFF73FFE1948F3
:104A0000D0F804A018480068057D01200024029019
:104A10006CE0012000FA04F111EA0B0F65D00026CA
:104A2000012000FA06F818EA070F54D00D48183094
:104A300050F8240010EA080F4CD131462046FEF70A
:104A4000ECFB009008483AF915100068B0F8340102
:104A5000814233DC094B33F91520121AA1EB000017
:104A60000FD50DE0804310003802100080CE0120E9
:104A70008CCE01203A2E0120F6FF010058D60120ED
:104A80005242002800DA4042824209DC0098314656
:104A9000401EC0B2024600902046FEF7D4FB01E063
:104AA00023F815106C49009821F815006B4850F850
:104AB000241041EA080140F824100BE00098314628
:104AC000401CC2B22046FEF7BEFB65483AF81510FE
:104AD00020F815106D1C761C202EA1DB5F4850F8C5
:104AE0002400B84201D000200290641C4C4590DBA9
:104AF000029838B9FDF7CCFA0198401C0190402883
:104B0000FFF67AAF57484FF0010A00250068067D8E
:104B10001DE0012202FA05F010EA0B0F16D0002466
:104B20000120A04038420ED04B48214610F8160014
:104B3000804602462846FEF786FBB8F13F0F01D3B8
:104B40004FF0000A761C641C202CE9DB6D1C4D45DF
:104B5000DFDBBAF1000F02D10320FDF759FFFDF7AB
:104B600097FA0120FFF78AFDBDE8FE4FE8E62DE940
:104B7000F05F3C4A116891F83001C4073A48037865
:104B800003F0F00516D0057000264B7D0C7DDFF894
:104B9000CCA05B1CB046AAF1180A914604FB03F7AF
:104BA00083460120FFF76AFD2046DAF80420D9F891
:104BB00000100EE091F83E1101F00F012943017041
:104BC00087E600BF32F91030B1F832C16345F7DB38
:104BD000401C8742F6DC0F2E0AD2761CF6B245EA5C
:104BE000060108F101088BF80010B8F1100FD8DBAE
:104BF000BDE8F05F0220FDF70BBF70B501244FF454
:104C000004614FF4F8300EF056FEFDF741FAFFF75D
:104C1000AEFFFFF7CFFE134D44EA0064286890F81A
:104C2000E80128B1FFF743FEFFF769FD44EA0044BD
:104C30000D482A68401D017892F8FB2701F0F00129
:104C400002F00F02114301700848FEF74FFB2046A7
:104C5000BDE8704005F0F7BED8DD01209843100094
:104C600058D6012038021000F6FF0100542410002D
:104C70002DE9F04FF84DF94B0020D5F814906E68EF
:104C80001B6804460246012140F6FF7B01FA02F749
:104C900037421CD039F914A0BAF1000F02DC40F001
:104CA000200013E0DA4502DB40F010000EE0B3F81C
:104CB00036C1B3F84171E6460CEB0708D04503DB7B
:104CC000AEEB070CD44501DD40F04000641C521CE3
:104CD000202ADBD30024AF69AE68224601FA02F530
:104CE00035421AD037F91450002D02DC40F0200074
:104CF00012E05D4502DB40F010000DE0B3F83A81B0
:104D0000B3F8439108EB090CAC4503DBA8EB090CA5
:104D1000AC4501DD40F04000641C521C202ADDD36C
:104D2000BDE8F08F10B501461822CD48FEF74FFCC4
:104D30008021BDE810400120FBF7A0BB30B599B041
:104D40006846FEF773FCC548006890F809178907A4
:104D500007D5B0F85C17B0F86427ADF83410ADF89B
:104D6000362090F80A074FF02004C00709D0FEF75C
:104D70004EFE012834D0BDF8020040F00200ADF82C
:104D80000200ADF8004000208DF83E008DF83D0097
:104D9000B148416849000B9180680C90BDF8020051
:104DA000AFF27F0140F4A670AD4D0291ADF8020064
:104DB00003246846FCF7C9FC18AB002280210120BF
:104DC000FBF79BFB80210120FBF787FB287800285D
:104DD00004D0FDF7F9FD641E002CEADC19B030BDEB
:104DE0000620ADF80000CEE72DE9F84F21219D48BF
:104DF0000EF061FD9B48302121300EF03AFDFDF7A9
:104E000014FAFDF7B2F9042003254FF000084FF023
:104E10000109914CDFF844A2CDF80000FFF78EFFA6
:104E2000E8072BD04FF0000B5F465E46616809FA39
:104E300006F008421AD040F6AC013046FEF71FFAE1
:104E4000616931F91720DAF80010B1F845118A428A
:104E50000BDA3F2809D200994FF0010B0844C1B288
:104E600040F6AC023046FEF71FFA7F1C761C202E5F
:104E7000DCD3BBF1000F01D125F00105A8072BD52C
:104E80004FF0000B5F465E46A16809FA06F0084243
:104E90001AD040F6CD013046FEF7F1F9A16931F99B
:104EA0001720DAF80010B1F847118A420BDA3F28D0
:104EB00009D200994FF0010B0844C1B240F6CD026F
:104EC0003046FEF7F1F97F1C761C202EDCD3BBF1B7
:104ED000000F01D125F0020545B1FDF7A6F9FDF758
:104EE00044F908F10108B8F1640F97DB03254FF08E
:104EF000000800BFFFF722FFE80729D04FF0000BA2
:104F00005F465E46616809FA06F0084218D040F62E
:104F1000AC013046FEF7B3F9616931F91720DAF8D0
:104F20000010B1F845118A4209DD40B1401EC1B2FE
:104F30004FF0010B40F6AC023046FEF7B5F97F1C8E
:104F4000761C202EDED3BBF1000F01D125F0010528
:104F5000A80729D54FF0000B5F465E46A16809FA05
:104F600006F0084218D040F6CD013046FEF787F92A
:104F7000A16931F91720DAF80010B1F847118A4217
:104F800009DD40B1401EC1B24FF0010B40F6CD0229
:104F90003046FEF789F97F1C761C202EDED3BBF14C
:104FA000000F01D125F00205002D08D0FDF73DF9D5
:104FB000FDF7DBF808F10108B8F1640F9ADBBDE8F2
:104FC000F88F2DE9F041284D002021212870254837
:104FD0000EF071FC2348302121300EF04AFCFDF721
:104FE000C4F8FDF722F91C4E002700BFFFF7A6FE0C
:104FF000D6E904320024204606E000BF32F9101042
:10500000A14200DD0C46401C9842F7DB0020F3680B
:10501000B26905E032F91010A14200DD0C46401CD7
:105020009842F7DB002C09DC28780F2803D8401CB5
:105030002870FDF7FAF87F1C202FD7DB40F6FE70B2
:10504000844206DD2878401E2870BDE8F041FDF757
:10505000ECB8BDE8F0810000B40210003802100086
:1050600018441000ACF80100F5FF01002DE9F05FD5
:105070000024FF4F25462146FE4E0120D6F804307D
:1050800000FA01F21A4203D07A5CA24200D9144617
:10509000491C2029F4D3F64FD6F808202C370021DC
:1050A00000FA01F3134203D07B5CAB4200D91D46EA
:1050B000491C2029F4D3DFF8C0A3F04F0AF1010BFB
:1050C0008AF800408BF80050386890F80A07C1074A
:1050D00005D0800703D5FEF77BFC012811D0E648F8
:1050E000E549801E491E0078097820442944FF22A2
:1050F00088427AD2081A2044FF2877D88AF800001C
:1051000099E0DE48006800F259700279C17802F037
:105110003F0201EB02268279417902F03F0201EB66
:105120000228027BC17A02F03F0201EB0227827B58
:10513000417B007802F03F0201EB022940060FD5C7
:10514000CD48801E017806EB080004EB40000844BF
:10515000C949491E0A7807EB090105EB410110E036
:1051600006EB0800400000EB4401C348801E0078B5
:10517000084407EB0901490001EB4502BE49491EFD
:1051800009781144FDF7BBFEBC49096801F20B72B6
:10519000B1F80B37834201D2A1F80B0791F80A0747
:1051A000400720D591F85907400620D570004342AA
:1051B000C8F1000091F80B1703EB40000144AE4822
:1051C000801E0078091A8AF8001078004142C9F15F
:1051D000000001EB400011780144A748401E007810
:1051E000081A8BF80000BDE8F09F27E01DE0A248F8
:1051F000B1F80B17801E037806EB080018444042F4
:1052000001EB4000C0F347019B488AF80010401EA4
:10521000017807EB090008441188404201EB400087
:10522000C0F347018BF80010DDE78AF800203068F2
:1052300040F0800030608BF80050D4E781420FD2FC
:10524000401A2844FF2802D88BF8000005E08BF8AC
:105250000020306840F0800030608AF80040C2E7EB
:105260008AF80040E7E72DE9F0410020804C814BAF
:10527000824A01214FEA00055F6801FA00F63E42CA
:1052800009D01768265C97F84A71BE4202D9F61B0E
:10529000265400E02554401C2028EDD3744C2C34B7
:1052A0005FF000009F6801FA00F63E4209D01768DF
:1052B000265C97F84A71BE4202D9F61B265400E0DC
:1052C0002554401C2028EDD3FFF7D0FEBDE8F04167
:1052D000FCF786BF2DE9F84F6548654D06462C352D
:1052E0002C210EF0E8FA402128460EF0E4FAFFF7F0
:1052F000BDFEFCF79AFFFCF773FF04200324002790
:105300004FF00109DFF86CA1DFF870B1CDF80000B3
:10531000FFF714FDE00728D04FF0000C624660460E
:105320004FEA0A0309FA00F1D3F8048011EA080FE2
:1053300013D0596931F91280DBF80010B1F8381137
:10534000884509DA315CDDF800804FF0010C4144FA
:10535000FF2900DDFF213154521C401C2028E1D3DD
:10536000BCF1000F01D124F00104A00727D54FF0B4
:10537000000C62466046534609FA00F1D3F80880F3
:1053800011EA080F13D0996931F91280DBF8001087
:10539000B1F83C11884509DA295CDDF800804FF04E
:1053A000010C4144FF2900DDFF212954521C401CFF
:1053B0002028E1D3BCF1000F01D124F0020444B154
:1053C000FFF754FEFCF731FFFCF70AFF7F1C642F48
:1053D0009EDB03245FF00007FFF7B0FCE00724D05A
:1053E0004FF0000E714670465246DC46D2F80480FB
:1053F00009FA00F313EA080F0FD05369DCF80080B4
:1054000033F91130B8F83881434505DD335C1BB101
:105410005B1E4FF0010E3354491C401C2028E5D37D
:10542000BEF1000F01D124F00104A0072ED54FF0EA
:10543000000E7146704652464FEA0B0CD2F80880B7
:1054400009FA00F313EA080F0FD09369DCF8008023
:1054500033F91130B8F83C81434505DD2B5C1BB1B5
:105460005B1E4FF0010E2B54491C401C202807E006
:1054700040F80100B4021000F9FF010038021000EA
:10548000DCD3BEF1000F01D124F00204002C08D0BF
:10549000FFF7ECFDFCF7C9FEFCF7A2FE7F1C642FB2
:1054A0009ADB8CE59A4930B409680020034691F8EC
:1054B000302192070BD5974A91F849410120157880
:1054C000A54203D9A5EB0404147000E0137091F811
:1054D000302152070CD58F4A91F84911521C40F0E7
:1054E000020014788C4202D9611A117000E0137026
:1054F000002801D030BCB9E530BC70472DE9F04739
:1055000083490024834D0868274690F8302192078C
:1055100002D501242F7002E090F83F212A708946BD
:1055200090F830117C4E490703D544F002043770DF
:1055300002E090F840013070002C75D02C217748A3
:105540000EF0B9F9754840212C300EF0B4F97148CD
:105550002121801E077071486C300EF0ACF96F4845
:1055600030218D300EF085F96B49FF20891C0870C1
:10557000491E0870FCF734FEFCF7F7FDFCF755FEFA
:10558000DFF89C814FF0100A002700BFFFF7D6FB21
:10559000E00723D0D8E9043C0020014606E000BF24
:1055A0003CF91120824200DD1046491C9942F7DB8C
:1055B000D9F80010B1F83621824202DA2878401E6C
:1055C00008E0B1F84B11814206DB28785044FF28EF
:1055D00000DDFF20287001E024F00104A00726D59B
:1055E00000200146D8F80CC0D8F8183006E000BFFB
:1055F00033F91120824200DD1046491C6145F7DB7A
:10560000D9F80010B1F83A21824202DA3078401E0F
:1056100008E0B1F84B11814207DB30785044FF2895
:1056200000DDFF20307002E00AE024F00204002CCC
:1056300006D0FFF71BFDFCF7F8FD7F1C202FA5DB34
:10564000BDE8F08770B5364C00202060FDF724FDE2
:105650006060FDF74DFDA060606804214008606057
:10566000201DFDF735FC2061042104F10800FDF741
:105670002FFCE060FFF762FB2A4E2169B06800EB67
:1056800041026261E26802EB410100EB4100A0616E
:10569000FFF734FFFFF706FF1D4D286890F8300133
:1056A000800603D5FFF716FEFFF7DDFD286890F8AA
:1056B0003001000701D5FFF784FC286890F830011D
:1056C000C00601D5FFF790FBFCF7AFFDFFF736FBF7
:1056D000B068216900EB41026261E26802EB4101BE
:1056E00000EB4100A061FFF7C3FA216801430A48BB
:1056F00021602A68C01C037892F8FB2763F3030239
:105700000270BDE8704041F0020005F09CB9000055
:1057100038021000F7FF0100F8FF010040F8010017
:10572000B40210001844100010B501461822A84811
:10573000FDF74DFF8021BDE810400120FAF79EBE25
:10574000F0B5A44D06460C4628684FF0FF3199B0DD
:1057500090F8B10000F00F00401C8140CF43684634
:10576000FDF764FF0120ADF80000ADF802402868A5
:1057700010F8F91F8DF8171044F00501ADF802106C
:105780000397ADF81A60AFF25F01029141788DF88E
:10579000181080788E4D8DF81E0003246846FBF7A4
:1057A000D4FF18AB002280210120FAF7A6FE802149
:1057B0000120FAF792FE2878002804D0FDF704F9BA
:1057C000641E002CEADC19B0F0BD2DE9FC5FDFF8A7
:1057D00004A24FF000094E46DAF8000000F57070A0
:1057E000017890F80180807801904FF00850D0F84F
:1057F0008C0100B9012600208CB2009038E000BF77
:10580000DAF8000090F8CD0300EB80004700002597
:1058100024E020460099FFF793FF6D48406809F0A7
:1058200072F80146DAF8000090F8F82012F00F0044
:1058300000D1012012094A43B2FBF0F01FFA80FBAD
:10584000012E09D1B9F5707F06D2634A09F1010032
:1058500022F819B01FFA80F96D1CADB2BD42D8D93B
:105860005A462146302005F031F90198204484B28F
:105870004445C5DDBDE8FC9F2DE9FF5F4FF6FF768F
:105880004FF0000A93460F46804634465546DFF8EF
:1058900044911BE038F815005146FFF751FF4C4882
:1058A000406809F030F8D9F8001091F8F82012F0AB
:1058B0000F0100D1012112094243B2FBF1F080B285
:1058C000A04202D238F8156004466D1CBD42E1DBEF
:1058D000ABF8006003980480BDE8FF9F2DE9F0411C
:1058E0003C4E05468846306888B090F8D12002F0DA
:1058F0000F01C2F30214491C641C0A2900DD0A21AD
:10590000022C00DD0224D23006AB05AAFFF7B4FF5B
:10591000326892F8D00080071BD5BDF814600121D1
:10592000E632ADF8006000204FF4803C6F4607E09F
:1059300013563344634502D227F81130491C401CEA
:10594000A042F5DB002904DD06AB05AA3846FFF7C7
:1059500093FFBDF814002880BDF81810A8F80010B7
:1059600008B0BDE8F0817CB50020FAF766FE1B4C5C
:1059700001A968466588FFF7B1FF164E3068B0F898
:10598000E810BDF80400814201D9218000E02080A8
:10599000BDF8000060800020FAF76AFEBDF8000044
:1059A000854207D0306890F8D000400702D5608863
:1059B000FEF793FC0A49012008700A4908700A4959
:1059C0000870BDF800202946092005F062F87CBD6A
:1059D0003044100038021000D8DD01206C25100082
:1059E0004E0210007C0210008A0210002DE9F047E0
:1059F00006460078FE4D00B1287018223146FD4859
:105A0000FDF7E5FDFC4C206890F8C517CA07F94979
:105A100001D00A6900E08A68417D6868F74B41431C
:105A2000002019E097F8F0C25FEACC780DD05FEA69
:105A30008C7C0AD597F8F17232F810C07F1C0CFBF1
:105A400007FC0F1823F817C005E001EB000C32F833
:105A5000107023F81C70401C276897F815C0844507
:105A6000E0DC686800F1010068607F7D07FB00FCF6
:105A70004FF000001EE000BF91F8F082C1465FEADF
:105A8000C8780FD05FEA89780CD507EB000891F849
:105A9000F11232F81880491C08FB01F80CEB0001E8
:105AA00023F8118039180CEB000832F8111023F894
:105AB0001810401C216891F815808045DCDC6B686B
:105AC0004FF0010803F101036B6091F8B10008EB9E
:105AD000101291F8F002C70705D0870703D491F898
